{
  "contractName": "SportLegends",
  "abi": [
    {
      "inputs": [],
      "stateMutability": "nonpayable",
      "type": "constructor"
    },
    {
      "anonymous": false,
      "inputs": [
        {
          "indexed": true,
          "internalType": "address",
          "name": "owner",
          "type": "address"
        },
        {
          "indexed": true,
          "internalType": "address",
          "name": "approved",
          "type": "address"
        },
        {
          "indexed": true,
          "internalType": "uint256",
          "name": "tokenId",
          "type": "uint256"
        }
      ],
      "name": "Approval",
      "type": "event"
    },
    {
      "anonymous": false,
      "inputs": [
        {
          "indexed": true,
          "internalType": "address",
          "name": "owner",
          "type": "address"
        },
        {
          "indexed": true,
          "internalType": "address",
          "name": "operator",
          "type": "address"
        },
        {
          "indexed": false,
          "internalType": "bool",
          "name": "approved",
          "type": "bool"
        }
      ],
      "name": "ApprovalForAll",
      "type": "event"
    },
    {
      "anonymous": false,
      "inputs": [
        {
          "indexed": true,
          "internalType": "address",
          "name": "previousOwner",
          "type": "address"
        },
        {
          "indexed": true,
          "internalType": "address",
          "name": "newOwner",
          "type": "address"
        }
      ],
      "name": "OwnershipTransferred",
      "type": "event"
    },
    {
      "anonymous": false,
      "inputs": [
        {
          "indexed": false,
          "internalType": "address",
          "name": "_to",
          "type": "address"
        },
        {
          "indexed": false,
          "internalType": "uint256",
          "name": "_value",
          "type": "uint256"
        }
      ],
      "name": "Transfer",
      "type": "event"
    },
    {
      "anonymous": false,
      "inputs": [
        {
          "indexed": true,
          "internalType": "address",
          "name": "from",
          "type": "address"
        },
        {
          "indexed": true,
          "internalType": "address",
          "name": "to",
          "type": "address"
        },
        {
          "indexed": true,
          "internalType": "uint256",
          "name": "tokenId",
          "type": "uint256"
        }
      ],
      "name": "Transfer",
      "type": "event"
    },
    {
      "inputs": [],
      "name": "ADOPT_ITEMS",
      "outputs": [
        {
          "internalType": "uint64",
          "name": "",
          "type": "uint64"
        }
      ],
      "stateMutability": "view",
      "type": "function",
      "constant": true
    },
    {
      "inputs": [],
      "name": "GIFT_ITEMS",
      "outputs": [
        {
          "internalType": "uint64",
          "name": "",
          "type": "uint64"
        }
      ],
      "stateMutability": "view",
      "type": "function",
      "constant": true
    },
    {
      "inputs": [],
      "name": "MAX_ITEMS_PER_MINT",
      "outputs": [
        {
          "internalType": "uint128",
          "name": "",
          "type": "uint128"
        }
      ],
      "stateMutability": "view",
      "type": "function",
      "constant": true
    },
    {
      "inputs": [],
      "name": "PREADOPT_ITEMS",
      "outputs": [
        {
          "internalType": "uint64",
          "name": "",
          "type": "uint64"
        }
      ],
      "stateMutability": "view",
      "type": "function",
      "constant": true
    },
    {
      "inputs": [],
      "name": "RESERVED_ITEMS",
      "outputs": [
        {
          "internalType": "uint64",
          "name": "",
          "type": "uint64"
        }
      ],
      "stateMutability": "view",
      "type": "function",
      "constant": true
    },
    {
      "inputs": [],
      "name": "TOTAL_ITEMS",
      "outputs": [
        {
          "internalType": "uint128",
          "name": "",
          "type": "uint128"
        }
      ],
      "stateMutability": "view",
      "type": "function",
      "constant": true
    },
    {
      "inputs": [
        {
          "internalType": "address",
          "name": "to",
          "type": "address"
        },
        {
          "internalType": "uint256",
          "name": "tokenId",
          "type": "uint256"
        }
      ],
      "name": "approve",
      "outputs": [],
      "stateMutability": "nonpayable",
      "type": "function"
    },
    {
      "inputs": [
        {
          "internalType": "address",
          "name": "owner",
          "type": "address"
        }
      ],
      "name": "balanceOf",
      "outputs": [
        {
          "internalType": "uint256",
          "name": "",
          "type": "uint256"
        }
      ],
      "stateMutability": "view",
      "type": "function",
      "constant": true
    },
    {
      "inputs": [],
      "name": "baseURI",
      "outputs": [
        {
          "internalType": "string",
          "name": "",
          "type": "string"
        }
      ],
      "stateMutability": "view",
      "type": "function",
      "constant": true
    },
    {
      "inputs": [
        {
          "internalType": "uint256",
          "name": "tokenId",
          "type": "uint256"
        }
      ],
      "name": "getApproved",
      "outputs": [
        {
          "internalType": "address",
          "name": "",
          "type": "address"
        }
      ],
      "stateMutability": "view",
      "type": "function",
      "constant": true
    },
    {
      "inputs": [
        {
          "internalType": "address",
          "name": "owner",
          "type": "address"
        },
        {
          "internalType": "address",
          "name": "operator",
          "type": "address"
        }
      ],
      "name": "isApprovedForAll",
      "outputs": [
        {
          "internalType": "bool",
          "name": "",
          "type": "bool"
        }
      ],
      "stateMutability": "view",
      "type": "function",
      "constant": true
    },
    {
      "inputs": [],
      "name": "itemPrice",
      "outputs": [
        {
          "internalType": "uint256",
          "name": "",
          "type": "uint256"
        }
      ],
      "stateMutability": "view",
      "type": "function",
      "constant": true
    },
    {
      "inputs": [],
      "name": "name",
      "outputs": [
        {
          "internalType": "string",
          "name": "",
          "type": "string"
        }
      ],
      "stateMutability": "view",
      "type": "function",
      "constant": true
    },
    {
      "inputs": [],
      "name": "owner",
      "outputs": [
        {
          "internalType": "address",
          "name": "",
          "type": "address"
        }
      ],
      "stateMutability": "view",
      "type": "function",
      "constant": true
    },
    {
      "inputs": [
        {
          "internalType": "uint256",
          "name": "tokenId",
          "type": "uint256"
        }
      ],
      "name": "ownerOf",
      "outputs": [
        {
          "internalType": "address",
          "name": "",
          "type": "address"
        }
      ],
      "stateMutability": "view",
      "type": "function",
      "constant": true
    },
    {
      "inputs": [],
      "name": "preSaleIsActive",
      "outputs": [
        {
          "internalType": "bool",
          "name": "",
          "type": "bool"
        }
      ],
      "stateMutability": "view",
      "type": "function",
      "constant": true
    },
    {
      "inputs": [],
      "name": "renounceOwnership",
      "outputs": [],
      "stateMutability": "nonpayable",
      "type": "function"
    },
    {
      "inputs": [
        {
          "internalType": "address",
          "name": "from",
          "type": "address"
        },
        {
          "internalType": "address",
          "name": "to",
          "type": "address"
        },
        {
          "internalType": "uint256",
          "name": "tokenId",
          "type": "uint256"
        }
      ],
      "name": "safeTransferFrom",
      "outputs": [],
      "stateMutability": "nonpayable",
      "type": "function"
    },
    {
      "inputs": [
        {
          "internalType": "address",
          "name": "from",
          "type": "address"
        },
        {
          "internalType": "address",
          "name": "to",
          "type": "address"
        },
        {
          "internalType": "uint256",
          "name": "tokenId",
          "type": "uint256"
        },
        {
          "internalType": "bytes",
          "name": "_data",
          "type": "bytes"
        }
      ],
      "name": "safeTransferFrom",
      "outputs": [],
      "stateMutability": "nonpayable",
      "type": "function"
    },
    {
      "inputs": [],
      "name": "saleIsActive",
      "outputs": [
        {
          "internalType": "bool",
          "name": "",
          "type": "bool"
        }
      ],
      "stateMutability": "view",
      "type": "function",
      "constant": true
    },
    {
      "inputs": [
        {
          "internalType": "address",
          "name": "operator",
          "type": "address"
        },
        {
          "internalType": "bool",
          "name": "approved",
          "type": "bool"
        }
      ],
      "name": "setApprovalForAll",
      "outputs": [],
      "stateMutability": "nonpayable",
      "type": "function"
    },
    {
      "inputs": [
        {
          "internalType": "bytes4",
          "name": "interfaceId",
          "type": "bytes4"
        }
      ],
      "name": "supportsInterface",
      "outputs": [
        {
          "internalType": "bool",
          "name": "",
          "type": "bool"
        }
      ],
      "stateMutability": "view",
      "type": "function",
      "constant": true
    },
    {
      "inputs": [],
      "name": "symbol",
      "outputs": [
        {
          "internalType": "string",
          "name": "",
          "type": "string"
        }
      ],
      "stateMutability": "view",
      "type": "function",
      "constant": true
    },
    {
      "inputs": [
        {
          "internalType": "uint256",
          "name": "index",
          "type": "uint256"
        }
      ],
      "name": "tokenByIndex",
      "outputs": [
        {
          "internalType": "uint256",
          "name": "",
          "type": "uint256"
        }
      ],
      "stateMutability": "view",
      "type": "function",
      "constant": true
    },
    {
      "inputs": [
        {
          "internalType": "address",
          "name": "owner",
          "type": "address"
        },
        {
          "internalType": "uint256",
          "name": "index",
          "type": "uint256"
        }
      ],
      "name": "tokenOfOwnerByIndex",
      "outputs": [
        {
          "internalType": "uint256",
          "name": "",
          "type": "uint256"
        }
      ],
      "stateMutability": "view",
      "type": "function",
      "constant": true
    },
    {
      "inputs": [],
      "name": "totalSupply",
      "outputs": [
        {
          "internalType": "uint256",
          "name": "",
          "type": "uint256"
        }
      ],
      "stateMutability": "view",
      "type": "function",
      "constant": true
    },
    {
      "inputs": [
        {
          "internalType": "address",
          "name": "from",
          "type": "address"
        },
        {
          "internalType": "address",
          "name": "to",
          "type": "address"
        },
        {
          "internalType": "uint256",
          "name": "tokenId",
          "type": "uint256"
        }
      ],
      "name": "transferFrom",
      "outputs": [],
      "stateMutability": "nonpayable",
      "type": "function"
    },
    {
      "inputs": [
        {
          "internalType": "address",
          "name": "newOwner",
          "type": "address"
        }
      ],
      "name": "transferOwnership",
      "outputs": [],
      "stateMutability": "nonpayable",
      "type": "function"
    },
    {
      "inputs": [],
      "name": "withdraw",
      "outputs": [],
      "stateMutability": "nonpayable",
      "type": "function"
    },
    {
      "inputs": [],
      "name": "flipSaleState",
      "outputs": [],
      "stateMutability": "nonpayable",
      "type": "function"
    },
    {
      "inputs": [],
      "name": "flipPreSaleState",
      "outputs": [],
      "stateMutability": "nonpayable",
      "type": "function"
    },
    {
      "inputs": [
        {
          "internalType": "uint32",
          "name": "mapIndex",
          "type": "uint32"
        }
      ],
      "name": "setPreSaleMapIndex",
      "outputs": [],
      "stateMutability": "nonpayable",
      "type": "function"
    },
    {
      "inputs": [],
      "name": "getPreSaleMapIndex",
      "outputs": [
        {
          "internalType": "uint32",
          "name": "",
          "type": "uint32"
        }
      ],
      "stateMutability": "view",
      "type": "function",
      "constant": true
    },
    {
      "inputs": [
        {
          "internalType": "address[]",
          "name": "recipients",
          "type": "address[]"
        }
      ],
      "name": "setPreSalesAddresses",
      "outputs": [],
      "stateMutability": "nonpayable",
      "type": "function"
    },
    {
      "inputs": [
        {
          "internalType": "string",
          "name": "baseURI",
          "type": "string"
        }
      ],
      "name": "setBaseURI",
      "outputs": [],
      "stateMutability": "nonpayable",
      "type": "function"
    },
    {
      "inputs": [
        {
          "internalType": "uint256",
          "name": "tokenId",
          "type": "uint256"
        },
        {
          "internalType": "string",
          "name": "_tokenURI",
          "type": "string"
        }
      ],
      "name": "setTokenURI",
      "outputs": [],
      "stateMutability": "nonpayable",
      "type": "function"
    },
    {
      "inputs": [],
      "name": "getGiftItems",
      "outputs": [
        {
          "internalType": "uint256",
          "name": "",
          "type": "uint256"
        }
      ],
      "stateMutability": "view",
      "type": "function",
      "constant": true
    },
    {
      "inputs": [],
      "name": "getPreSaleItems",
      "outputs": [
        {
          "internalType": "uint256",
          "name": "",
          "type": "uint256"
        }
      ],
      "stateMutability": "view",
      "type": "function",
      "constant": true
    },
    {
      "inputs": [],
      "name": "reserveItems",
      "outputs": [],
      "stateMutability": "nonpayable",
      "type": "function"
    },
    {
      "inputs": [
        {
          "internalType": "address[]",
          "name": "recipients",
          "type": "address[]"
        }
      ],
      "name": "giftSportLegends",
      "outputs": [],
      "stateMutability": "nonpayable",
      "type": "function"
    },
    {
      "inputs": [
        {
          "internalType": "uint256",
          "name": "numberOfTokens",
          "type": "uint256"
        }
      ],
      "name": "mintPreSaleSportLegends",
      "outputs": [],
      "stateMutability": "payable",
      "type": "function",
      "payable": true
    },
    {
      "inputs": [
        {
          "internalType": "uint256",
          "name": "numberOfTokens",
          "type": "uint256"
        }
      ],
      "name": "mintSportLegends",
      "outputs": [],
      "stateMutability": "payable",
      "type": "function",
      "payable": true
    },
    {
      "inputs": [
        {
          "internalType": "uint256",
          "name": "tokenId",
          "type": "uint256"
        }
      ],
      "name": "tokenURI",
      "outputs": [
        {
          "internalType": "string",
          "name": "",
          "type": "string"
        }
      ],
      "stateMutability": "view",
      "type": "function",
      "constant": true
    }
  ],
  "bytecode": "0x60806040526000600a60146101000a81548160ff0219169083151502179055506000600a60156101000a81548160ff0219169083151502179055506000600b556000600c556001600d60006101000a81548163ffffffff021916908363ffffffff1602179055503480156200007357600080fd5b506040518060400160405280600d81526020017f53706f7274204c6567656e6473000000000000000000000000000000000000008152506040518060400160405280600381526020017f53504c0000000000000000000000000000000000000000000000000000000000815250620000f86301ffc9a760e01b6200022b60201b60201c565b8160069080519060200190620001109291906200033c565b508060079080519060200190620001299291906200033c565b50620001426380ac58cd60e01b6200022b60201b60201c565b6200015a635b5e139f60e01b6200022b60201b60201c565b6200017263780e9d6360e01b6200022b60201b60201c565b50506000620001866200033460201b60201c565b905080600a60006101000a81548173ffffffffffffffffffffffffffffffffffffffff021916908373ffffffffffffffffffffffffffffffffffffffff1602179055508073ffffffffffffffffffffffffffffffffffffffff16600073ffffffffffffffffffffffffffffffffffffffff167f8be0079c531659141344cd1fd0a4f28419497f9722a3daafe3b4186f6b6457e060405160405180910390a350620003f2565b63ffffffff60e01b817bffffffffffffffffffffffffffffffffffffffffffffffffffffffff19161415620002c8576040517f08c379a000000000000000000000000000000000000000000000000000000000815260040180806020018281038252601c8152602001807f4552433136353a20696e76616c696420696e746572666163652069640000000081525060200191505060405180910390fd5b6001600080837bffffffffffffffffffffffffffffffffffffffffffffffffffffffff19167bffffffffffffffffffffffffffffffffffffffffffffffffffffffff1916815260200190815260200160002060006101000a81548160ff02191690831515021790555050565b600033905090565b828054600181600116156101000203166002900490600052602060002090601f016020900481019282620003745760008555620003c0565b82601f106200038f57805160ff1916838001178555620003c0565b82800160010185558215620003c0579182015b82811115620003bf578251825591602001919060010190620003a2565b5b509050620003cf9190620003d3565b5090565b5b80821115620003ee576000816000905550600101620003d4565b5090565b614b8780620004026000396000f3fe60806040526004361061025c5760003560e01c80634f6ccce711610144578063a46b3b08116100b6578063e985e9c51161007a578063e985e9c514611039578063eb8d2444146110c0578063f0325549146110ed578063f2fde38b14611104578063f8023bdb14611155578063fd47532d146111835761025c565b8063a46b3b0814610ddd578063b88d4fde14610e0b578063c4741fdd14610f1d578063c87b56dd14610f5a578063dac6db1c1461100e5761025c565b8063715018a611610108578063715018a614610c22578063820fea3e14610c395780638da5cb5b14610c6e57806395d89b4114610caf5780639e4aa2df14610d3f578063a22cb46514610d805761025c565b80634f6ccce7146109b157806355f804b314610a005780636352211e14610ac85780636c0360eb14610b2d57806370a0823114610bbd5761025c565b80631dac7cf2116101dd578063334894e7116101a1578063334894e7146107e357806334918dfd146108185780633ccfd60b1461082f5780633d9e13331461084657806341425b031461087157806342842e0e146109365761025c565b80631dac7cf21461066c5780631f0234d81461069757806323b872dd146106c45780632f745c591461073f5780633051484e146107ae5761025c565b80630f258b05116102245780630f258b051461045e578063162094c41461047557806318160ddd146105475780631a93ff9f146105725780631ae5c6ba146105a75761025c565b806301ffc9a71461026157806306fdde03146102d1578063081812fc14610361578063095ea7b3146103c65780630ee7487e14610421575b600080fd5b34801561026d57600080fd5b506102b96004803603602081101561028457600080fd5b8101908080357bffffffffffffffffffffffffffffffffffffffffffffffffffffffff191690602001909291905050506111b4565b60405180821515815260200191505060405180910390f35b3480156102dd57600080fd5b506102e661121b565b6040518080602001828103825283818151815260200191508051906020019080838360005b8381101561032657808201518184015260208101905061030b565b50505050905090810190601f1680156103535780820380516001836020036101000a031916815260200191505b509250505060405180910390f35b34801561036d57600080fd5b5061039a6004803603602081101561038457600080fd5b81019080803590602001909291905050506112bd565b604051808273ffffffffffffffffffffffffffffffffffffffff16815260200191505060405180910390f35b3480156103d257600080fd5b5061041f600480360360408110156103e957600080fd5b81019080803573ffffffffffffffffffffffffffffffffffffffff16906020019092919080359060200190929190505050611358565b005b34801561042d57600080fd5b5061043661149c565b60405180826fffffffffffffffffffffffffffffffff16815260200191505060405180910390f35b34801561046a57600080fd5b506104736114a1565b005b34801561048157600080fd5b506105456004803603604081101561049857600080fd5b8101908080359060200190929190803590602001906401000000008111156104bf57600080fd5b8201836020820111156104d157600080fd5b803590602001918460018302840111640100000000831117156104f357600080fd5b91908080601f016020809104026020016040519081016040528093929190818152602001838380828437600081840152601f19601f820116905080830192505050505050509192919290505050611634565b005b34801561055357600080fd5b5061055c6116f1565b6040518082815260200191505060405180910390f35b34801561057e57600080fd5b50610587611702565b604051808267ffffffffffffffff16815260200191505060405180910390f35b3480156105b357600080fd5b5061066a600480360360208110156105ca57600080fd5b81019080803590602001906401000000008111156105e757600080fd5b8201836020820111156105f957600080fd5b8035906020019184602083028401116401000000008311171561061b57600080fd5b919080806020026020016040519081016040528093929190818152602001838360200280828437600081840152601f19601f820116905080830192505050505050509192919290505050611708565b005b34801561067857600080fd5b50610681611934565b6040518082815260200191505060405180910390f35b3480156106a357600080fd5b506106ac61193e565b60405180821515815260200191505060405180910390f35b3480156106d057600080fd5b5061073d600480360360608110156106e757600080fd5b81019080803573ffffffffffffffffffffffffffffffffffffffff169060200190929190803573ffffffffffffffffffffffffffffffffffffffff16906020019092919080359060200190929190505050611951565b005b34801561074b57600080fd5b506107986004803603604081101561076257600080fd5b81019080803573ffffffffffffffffffffffffffffffffffffffff169060200190929190803590602001909291905050506119c7565b6040518082815260200191505060405180910390f35b3480156107ba57600080fd5b506107c3611a22565b604051808267ffffffffffffffff16815260200191505060405180910390f35b3480156107ef57600080fd5b506107f8611a27565b604051808267ffffffffffffffff16815260200191505060405180910390f35b34801561082457600080fd5b5061082d611a2c565b005b34801561083b57600080fd5b50610844611b07565b005b34801561085257600080fd5b5061085b611c5a565b6040518082815260200191505060405180910390f35b34801561087d57600080fd5b506109346004803603602081101561089457600080fd5b81019080803590602001906401000000008111156108b157600080fd5b8201836020820111156108c357600080fd5b803590602001918460208302840111640100000000831117156108e557600080fd5b919080806020026020016040519081016040528093929190818152602001838360200280828437600081840152601f19601f820116905080830192505050505050509192919290505050611c64565b005b34801561094257600080fd5b506109af6004803603606081101561095957600080fd5b81019080803573ffffffffffffffffffffffffffffffffffffffff169060200190929190803573ffffffffffffffffffffffffffffffffffffffff16906020019092919080359060200190929190505050611dd1565b005b3480156109bd57600080fd5b506109ea600480360360208110156109d457600080fd5b8101908080359060200190929190505050611df1565b6040518082815260200191505060405180910390f35b348015610a0c57600080fd5b50610ac660048036036020811015610a2357600080fd5b8101908080359060200190640100000000811115610a4057600080fd5b820183602082011115610a5257600080fd5b80359060200191846001830284011164010000000083111715610a7457600080fd5b91908080601f016020809104026020016040519081016040528093929190818152602001838380828437600081840152601f19601f820116905080830192505050505050509192919290505050611e14565b005b348015610ad457600080fd5b50610b0160048036036020811015610aeb57600080fd5b8101908080359060200190929190505050611ecf565b604051808273ffffffffffffffffffffffffffffffffffffffff16815260200191505060405180910390f35b348015610b3957600080fd5b50610b42611f06565b6040518080602001828103825283818151815260200191508051906020019080838360005b83811015610b82578082015181840152602081019050610b67565b50505050905090810190601f168015610baf5780820380516001836020036101000a031916815260200191505b509250505060405180910390f35b348015610bc957600080fd5b50610c0c60048036036020811015610be057600080fd5b81019080803573ffffffffffffffffffffffffffffffffffffffff169060200190929190505050611fa8565b6040518082815260200191505060405180910390f35b348015610c2e57600080fd5b50610c3761207d565b005b348015610c4557600080fd5b50610c4e6121ed565b604051808267ffffffffffffffff16815260200191505060405180910390f35b348015610c7a57600080fd5b50610c836121f3565b604051808273ffffffffffffffffffffffffffffffffffffffff16815260200191505060405180910390f35b348015610cbb57600080fd5b50610cc461221d565b6040518080602001828103825283818151815260200191508051906020019080838360005b83811015610d04578082015181840152602081019050610ce9565b50505050905090810190601f168015610d315780820380516001836020036101000a031916815260200191505b509250505060405180910390f35b348015610d4b57600080fd5b50610d7e60048036036020811015610d6257600080fd5b81019080803563ffffffff1690602001909291905050506122bf565b005b348015610d8c57600080fd5b50610ddb60048036036040811015610da357600080fd5b81019080803573ffffffffffffffffffffffffffffffffffffffff169060200190929190803515159060200190929190505050612392565b005b610e0960048036036020811015610df357600080fd5b8101908080359060200190929190505050612548565b005b348015610e1757600080fd5b50610f1b60048036036080811015610e2e57600080fd5b81019080803573ffffffffffffffffffffffffffffffffffffffff169060200190929190803573ffffffffffffffffffffffffffffffffffffffff1690602001909291908035906020019092919080359060200190640100000000811115610e9557600080fd5b820183602082011115610ea757600080fd5b80359060200191846001830284011164010000000083111715610ec957600080fd5b91908080601f016020809104026020016040519081016040528093929190818152602001838380828437600081840152601f19601f820116905080830192505050505050509192919290505050612803565b005b348015610f2957600080fd5b50610f3261287b565b60405180826fffffffffffffffffffffffffffffffff16815260200191505060405180910390f35b348015610f6657600080fd5b50610f9360048036036020811015610f7d57600080fd5b8101908080359060200190929190505050612895565b6040518080602001828103825283818151815260200191508051906020019080838360005b83811015610fd3578082015181840152602081019050610fb8565b50505050905090810190601f1680156110005780820380516001836020036101000a031916815260200191505b509250505060405180910390f35b34801561101a57600080fd5b50611023612a1a565b6040518082815260200191505060405180910390f35b34801561104557600080fd5b506110a86004803603604081101561105c57600080fd5b81019080803573ffffffffffffffffffffffffffffffffffffffff169060200190929190803573ffffffffffffffffffffffffffffffffffffffff169060200190929190505050612a25565b60405180821515815260200191505060405180910390f35b3480156110cc57600080fd5b506110d5612ab9565b60405180821515815260200191505060405180910390f35b3480156110f957600080fd5b50611102612acc565b005b34801561111057600080fd5b506111536004803603602081101561112757600080fd5b81019080803573ffffffffffffffffffffffffffffffffffffffff169060200190929190505050612ba7565b005b6111816004803603602081101561116b57600080fd5b8101908080359060200190929190505050612d9c565b005b34801561118f57600080fd5b506111986131e9565b604051808263ffffffff16815260200191505060405180910390f35b6000806000837bffffffffffffffffffffffffffffffffffffffffffffffffffffffff19167bffffffffffffffffffffffffffffffffffffffffffffffffffffffff1916815260200190815260200160002060009054906101000a900460ff169050919050565b606060068054600181600116156101000203166002900480601f0160208091040260200160405190810160405280929190818152602001828054600181600116156101000203166002900480156112b35780601f10611288576101008083540402835291602001916112b3565b820191906000526020600020905b81548152906001019060200180831161129657829003601f168201915b5050505050905090565b60006112c8826132b2565b61131d576040517f08c379a000000000000000000000000000000000000000000000000000000000815260040180806020018281038252602c8152602001806149f3602c913960400191505060405180910390fd5b6004600083815260200190815260200160002060009054906101000a900473ffffffffffffffffffffffffffffffffffffffff169050919050565b600061136382611ecf565b90508073ffffffffffffffffffffffffffffffffffffffff168373ffffffffffffffffffffffffffffffffffffffff1614156113ea576040517f08c379a0000000000000000000000000000000000000000000000000000000008152600401808060200182810382526021815260200180614aa36021913960400191505060405180910390fd5b8073ffffffffffffffffffffffffffffffffffffffff166114096132cf565b73ffffffffffffffffffffffffffffffffffffffff1614806114385750611437816114326132cf565b612a25565b5b61148d576040517f08c379a00000000000000000000000000000000000000000000000000000000081526004018080602001828103825260388152602001806149256038913960400191505060405180910390fd5b61149783836132d7565b505050565b600a81565b6114a96132cf565b73ffffffffffffffffffffffffffffffffffffffff166114c76121f3565b73ffffffffffffffffffffffffffffffffffffffff1614611550576040517f08c379a00000000000000000000000000000000000000000000000000000000081526004018080602001828103825260208152602001807f4f776e61626c653a2063616c6c6572206973206e6f7420746865206f776e657281525060200191505060405180910390fd5b600760466102bc611b5801010167ffffffffffffffff166fffffffffffffffffffffffffffffffff1661159e600767ffffffffffffffff166115906116f1565b61339090919063ffffffff16565b11156115f5576040517f08c379a0000000000000000000000000000000000000000000000000000000008152600401808060200182810382526026815260200180614b2c6026913960400191505060405180910390fd5b60006115ff6116f1565b905060005b600767ffffffffffffffff168110156116305761162333828401613418565b8080600101915050611604565b5050565b61163c6132cf565b73ffffffffffffffffffffffffffffffffffffffff1661165a6121f3565b73ffffffffffffffffffffffffffffffffffffffff16146116e3576040517f08c379a00000000000000000000000000000000000000000000000000000000081526004018080602001828103825260208152602001807f4f776e61626c653a2063616c6c6572206973206e6f7420746865206f776e657281525060200191505060405180910390fd5b6116ed8282613436565b5050565b60006116fd60026134c0565b905090565b6102bc81565b6117106132cf565b73ffffffffffffffffffffffffffffffffffffffff1661172e6121f3565b73ffffffffffffffffffffffffffffffffffffffff16146117b7576040517f08c379a00000000000000000000000000000000000000000000000000000000081526004018080602001828103825260208152602001807f4f776e61626c653a2063616c6c6572206973206e6f7420746865206f776e657281525060200191505060405180910390fd5b600160460167ffffffffffffffff16600b548251011061183f576040517f08c379a000000000000000000000000000000000000000000000000000000000815260040180806020018281038252601d8152602001807f43616e27742067696674206d6f7265207468616e203730206974656d7300000081525060200191505060405180910390fd5b600760466102bc611b5801010167ffffffffffffffff166fffffffffffffffffffffffffffffffff1661188382516118756116f1565b61339090919063ffffffff16565b11156118da576040517f08c379a00000000000000000000000000000000000000000000000000000000081526004018080602001828103825260228152602001806148b16022913960400191505060405180910390fd5b60006118e46116f1565b905060005b825181101561192f5761191183828151811061190157fe5b6020026020010151828401613418565b6001600b6000828254019250508190555080806001019150506118e9565b505050565b6000600b54905090565b600a60159054906101000a900460ff1681565b61196261195c6132cf565b826134d5565b6119b7576040517f08c379a0000000000000000000000000000000000000000000000000000000008152600401808060200182810382526031815260200180614afb6031913960400191505060405180910390fd5b6119c28383836135c9565b505050565b6000611a1a82600160008673ffffffffffffffffffffffffffffffffffffffff1673ffffffffffffffffffffffffffffffffffffffff16815260200190815260200160002061380c90919063ffffffff16565b905092915050565b600781565b604681565b611a346132cf565b73ffffffffffffffffffffffffffffffffffffffff16611a526121f3565b73ffffffffffffffffffffffffffffffffffffffff1614611adb576040517f08c379a00000000000000000000000000000000000000000000000000000000081526004018080602001828103825260208152602001807f4f776e61626c653a2063616c6c6572206973206e6f7420746865206f776e657281525060200191505060405180910390fd5b600a60149054906101000a900460ff1615600a60146101000a81548160ff021916908315150217905550565b611b0f6132cf565b73ffffffffffffffffffffffffffffffffffffffff16611b2d6121f3565b73ffffffffffffffffffffffffffffffffffffffff1614611bb6576040517f08c379a00000000000000000000000000000000000000000000000000000000081526004018080602001828103825260208152602001807f4f776e61626c653a2063616c6c6572206973206e6f7420746865206f776e657281525060200191505060405180910390fd5b60004790503373ffffffffffffffffffffffffffffffffffffffff166108fc829081150290604051600060405180830381858888f19350505050158015611c01573d6000803e3d6000fd5b507f69ca02dd4edd7bf0a4abb9ed3b7af3f14778db5d61921c7dc7cd545266326de23382604051808373ffffffffffffffffffffffffffffffffffffffff1681526020018281526020019250505060405180910390a150565b6000600c54905090565b611c6c6132cf565b73ffffffffffffffffffffffffffffffffffffffff16611c8a6121f3565b73ffffffffffffffffffffffffffffffffffffffff1614611d13576040517f08c379a00000000000000000000000000000000000000000000000000000000081526004018080602001828103825260208152602001807f4f776e61626c653a2063616c6c6572206973206e6f7420746865206f776e657281525060200191505060405180910390fd5b60005b8151811015611dcd576001600e6000600d60009054906101000a900463ffffffff1663ffffffff1663ffffffff1681526020019081526020016000206000848481518110611d6057fe5b602002602001015173ffffffffffffffffffffffffffffffffffffffff1673ffffffffffffffffffffffffffffffffffffffff16815260200190815260200160002060006101000a81548163ffffffff021916908363ffffffff1602179055508080600101915050611d16565b5050565b611dec83838360405180602001604052806000815250612803565b505050565b600080611e0883600261382690919063ffffffff16565b50905080915050919050565b611e1c6132cf565b73ffffffffffffffffffffffffffffffffffffffff16611e3a6121f3565b73ffffffffffffffffffffffffffffffffffffffff1614611ec3576040517f08c379a00000000000000000000000000000000000000000000000000000000081526004018080602001828103825260208152602001807f4f776e61626c653a2063616c6c6572206973206e6f7420746865206f776e657281525060200191505060405180910390fd5b611ecc81613852565b50565b6000611eff8260405180606001604052806029815260200161498760299139600261386c9092919063ffffffff16565b9050919050565b606060098054600181600116156101000203166002900480601f016020809104026020016040519081016040528092919081815260200182805460018160011615610100020316600290048015611f9e5780601f10611f7357610100808354040283529160200191611f9e565b820191906000526020600020905b815481529060010190602001808311611f8157829003601f168201915b5050505050905090565b60008073ffffffffffffffffffffffffffffffffffffffff168273ffffffffffffffffffffffffffffffffffffffff16141561202f576040517f08c379a000000000000000000000000000000000000000000000000000000000815260040180806020018281038252602a81526020018061495d602a913960400191505060405180910390fd5b612076600160008473ffffffffffffffffffffffffffffffffffffffff1673ffffffffffffffffffffffffffffffffffffffff16815260200190815260200160002061388b565b9050919050565b6120856132cf565b73ffffffffffffffffffffffffffffffffffffffff166120a36121f3565b73ffffffffffffffffffffffffffffffffffffffff161461212c576040517f08c379a00000000000000000000000000000000000000000000000000000000081526004018080602001828103825260208152602001807f4f776e61626c653a2063616c6c6572206973206e6f7420746865206f776e657281525060200191505060405180910390fd5b600073ffffffffffffffffffffffffffffffffffffffff16600a60009054906101000a900473ffffffffffffffffffffffffffffffffffffffff1673ffffffffffffffffffffffffffffffffffffffff167f8be0079c531659141344cd1fd0a4f28419497f9722a3daafe3b4186f6b6457e060405160405180910390a36000600a60006101000a81548173ffffffffffffffffffffffffffffffffffffffff021916908373ffffffffffffffffffffffffffffffffffffffff160217905550565b611b5881565b6000600a60009054906101000a900473ffffffffffffffffffffffffffffffffffffffff16905090565b606060078054600181600116156101000203166002900480601f0160208091040260200160405190810160405280929190818152602001828054600181600116156101000203166002900480156122b55780601f1061228a576101008083540402835291602001916122b5565b820191906000526020600020905b81548152906001019060200180831161229857829003601f168201915b5050505050905090565b6122c76132cf565b73ffffffffffffffffffffffffffffffffffffffff166122e56121f3565b73ffffffffffffffffffffffffffffffffffffffff161461236e576040517f08c379a00000000000000000000000000000000000000000000000000000000081526004018080602001828103825260208152602001807f4f776e61626c653a2063616c6c6572206973206e6f7420746865206f776e657281525060200191505060405180910390fd5b80600d60006101000a81548163ffffffff021916908363ffffffff16021790555050565b61239a6132cf565b73ffffffffffffffffffffffffffffffffffffffff168273ffffffffffffffffffffffffffffffffffffffff16141561243b576040517f08c379a00000000000000000000000000000000000000000000000000000000081526004018080602001828103825260198152602001807f4552433732313a20617070726f766520746f2063616c6c65720000000000000081525060200191505060405180910390fd5b80600560006124486132cf565b73ffffffffffffffffffffffffffffffffffffffff1673ffffffffffffffffffffffffffffffffffffffff16815260200190815260200160002060008473ffffffffffffffffffffffffffffffffffffffff1673ffffffffffffffffffffffffffffffffffffffff16815260200190815260200160002060006101000a81548160ff0219169083151502179055508173ffffffffffffffffffffffffffffffffffffffff166124f56132cf565b73ffffffffffffffffffffffffffffffffffffffff167f17307eab39ab6107e8899845ad3d59bd9653f200f220920489ca2b5937696c318360405180821515815260200191505060405180910390a35050565b600a60149054906101000a900460ff166125ca576040517f08c379a000000000000000000000000000000000000000000000000000000000815260040180806020018281038252601b8152602001807f53616c65206d7573742062652061637469766520746f206d696e74000000000081525060200191505060405180910390fd5b600a6fffffffffffffffffffffffffffffffff16811115612653576040517f08c379a000000000000000000000000000000000000000000000000000000000815260040180806020018281038252601d8152602001807f43616e2774206d696e74206d6f7265207468616e203130206974656d7300000081525060200191505060405180910390fd5b600760466102bc611b5801010167ffffffffffffffff166fffffffffffffffffffffffffffffffff16612696826126886116f1565b61339090919063ffffffff16565b111561270a576040517f08c379a00000000000000000000000000000000000000000000000000000000081526004018080602001828103825260208152602001807f507572636861736520776f756c6420657863656564206d617820737570706c7981525060200191505060405180910390fd5b6127248166b1a2bc2ec500006138a090919063ffffffff16565b3414612798576040517f08c379a000000000000000000000000000000000000000000000000000000000815260040180806020018281038252601f8152602001807f45746865722076616c75652073656e74206973206e6f7420636f72726563740081525060200191505060405180910390fd5b60005b818110156127ff5760006127ad6116f1565b9050600760466102bc611b5801010167ffffffffffffffff166fffffffffffffffffffffffffffffffff166127e06116f1565b10156127f1576127f03382613418565b5b50808060010191505061279b565b5050565b61281461280e6132cf565b836134d5565b612869576040517f08c379a0000000000000000000000000000000000000000000000000000000008152600401808060200182810382526031815260200180614afb6031913960400191505060405180910390fd5b61287584848484613926565b50505050565b600760466102bc611b5801010167ffffffffffffffff1681565b60606128a0826132b2565b6128f5576040517f08c379a000000000000000000000000000000000000000000000000000000000815260040180806020018281038252602f815260200180614a74602f913960400191505060405180910390fd5b60006128ff611f06565b905060008151141561292c5760405180606001604052806035815260200161485860359139915050612a15565b600081511161294a5760405180602001604052806000815250612a11565b8061295484613998565b6040516020018083805190602001908083835b6020831061298a5780518252602082019150602081019050602083039250612967565b6001836020036101000a03801982511681845116808217855250505050505090500182805190602001908083835b602083106129db57805182526020820191506020810190506020830392506129b8565b6001836020036101000a038019825116818451168082178552505050505050905001925050506040516020818303038152906040525b9150505b919050565b66b1a2bc2ec5000081565b6000600560008473ffffffffffffffffffffffffffffffffffffffff1673ffffffffffffffffffffffffffffffffffffffff16815260200190815260200160002060008373ffffffffffffffffffffffffffffffffffffffff1673ffffffffffffffffffffffffffffffffffffffff16815260200190815260200160002060009054906101000a900460ff16905092915050565b600a60149054906101000a900460ff1681565b612ad46132cf565b73ffffffffffffffffffffffffffffffffffffffff16612af26121f3565b73ffffffffffffffffffffffffffffffffffffffff1614612b7b576040517f08c379a00000000000000000000000000000000000000000000000000000000081526004018080602001828103825260208152602001807f4f776e61626c653a2063616c6c6572206973206e6f7420746865206f776e657281525060200191505060405180910390fd5b600a60159054906101000a900460ff1615600a60156101000a81548160ff021916908315150217905550565b612baf6132cf565b73ffffffffffffffffffffffffffffffffffffffff16612bcd6121f3565b73ffffffffffffffffffffffffffffffffffffffff1614612c56576040517f08c379a00000000000000000000000000000000000000000000000000000000081526004018080602001828103825260208152602001807f4f776e61626c653a2063616c6c6572206973206e6f7420746865206f776e657281525060200191505060405180910390fd5b600073ffffffffffffffffffffffffffffffffffffffff168173ffffffffffffffffffffffffffffffffffffffff161415612cdc576040517f08c379a00000000000000000000000000000000000000000000000000000000081526004018080602001828103825260268152602001806148326026913960400191505060405180910390fd5b8073ffffffffffffffffffffffffffffffffffffffff16600a60009054906101000a900473ffffffffffffffffffffffffffffffffffffffff1673ffffffffffffffffffffffffffffffffffffffff167f8be0079c531659141344cd1fd0a4f28419497f9722a3daafe3b4186f6b6457e060405160405180910390a380600a60006101000a81548173ffffffffffffffffffffffffffffffffffffffff021916908373ffffffffffffffffffffffffffffffffffffffff16021790555050565b600a60159054906101000a900460ff16612e1e576040517f08c379a000000000000000000000000000000000000000000000000000000000815260040180806020018281038252601f8152602001807f5072652073616c65206d7573742062652061637469766520746f206d696e740081525060200191505060405180910390fd5b6000600e6000600d60009054906101000a900463ffffffff1663ffffffff1663ffffffff16815260200190815260200160002060003373ffffffffffffffffffffffffffffffffffffffff1673ffffffffffffffffffffffffffffffffffffffff16815260200190815260200160002060009054906101000a900463ffffffff1663ffffffff1611612efb576040517f08c379a0000000000000000000000000000000000000000000000000000000008152600401808060200182810382526037815260200180614ac46037913960400191505060405180910390fd5b60016102bc0167ffffffffffffffff16600c54820110612f83576040517f08c379a000000000000000000000000000000000000000000000000000000000815260040180806020018281038252601e8152602001807f43616e2774206d696e74206d6f7265207468616e20373030206974656d73000081525060200191505060405180910390fd5b600a6fffffffffffffffffffffffffffffffff1681111561300c576040517f08c379a000000000000000000000000000000000000000000000000000000000815260040180806020018281038252601d8152602001807f43616e2774206d696e74206d6f7265207468616e203130206974656d7300000081525060200191505060405180910390fd5b600760466102bc611b5801010167ffffffffffffffff166fffffffffffffffffffffffffffffffff1661304f826130416116f1565b61339090919063ffffffff16565b11156130c3576040517f08c379a00000000000000000000000000000000000000000000000000000000081526004018080602001828103825260208152602001807f507572636861736520776f756c6420657863656564206d617820737570706c7981525060200191505060405180910390fd5b6130dd8166b1a2bc2ec500006138a090919063ffffffff16565b3414613151576040517f08c379a000000000000000000000000000000000000000000000000000000000815260040180806020018281038252601f8152602001807f45746865722076616c75652073656e74206973206e6f7420636f72726563740081525060200191505060405180910390fd5b60005b818110156131e55760006131666116f1565b9050600760466102bc611b5801010167ffffffffffffffff166fffffffffffffffffffffffffffffffff166131996116f1565b1080156131b6575060016102bc0167ffffffffffffffff16600c54105b156131d7576131c53382613418565b6001600c600082825401925050819055505b508080600101915050613154565b5050565b60006131f36132cf565b73ffffffffffffffffffffffffffffffffffffffff166132116121f3565b73ffffffffffffffffffffffffffffffffffffffff161461329a576040517f08c379a00000000000000000000000000000000000000000000000000000000081526004018080602001828103825260208152602001807f4f776e61626c653a2063616c6c6572206973206e6f7420746865206f776e657281525060200191505060405180910390fd5b600d60009054906101000a900463ffffffff16905090565b60006132c8826002613adf90919063ffffffff16565b9050919050565b600033905090565b816004600083815260200190815260200160002060006101000a81548173ffffffffffffffffffffffffffffffffffffffff021916908373ffffffffffffffffffffffffffffffffffffffff160217905550808273ffffffffffffffffffffffffffffffffffffffff1661334a83611ecf565b73ffffffffffffffffffffffffffffffffffffffff167f8c5be1e5ebec7d5bd14f71427d1e84f3dd0314c0f7b2291e5b200ac8c7c3b92560405160405180910390a45050565b60008082840190508381101561340e576040517f08c379a000000000000000000000000000000000000000000000000000000000815260040180806020018281038252601b8152602001807f536166654d6174683a206164646974696f6e206f766572666c6f77000000000081525060200191505060405180910390fd5b8091505092915050565b613432828260405180602001604052806000815250613af9565b5050565b61343f826132b2565b613494576040517f08c379a000000000000000000000000000000000000000000000000000000000815260040180806020018281038252602c815260200180614a1f602c913960400191505060405180910390fd5b806008600084815260200190815260200160002090805190602001906134bb929190614732565b505050565b60006134ce82600001613b6a565b9050919050565b60006134e0826132b2565b613535576040517f08c379a000000000000000000000000000000000000000000000000000000000815260040180806020018281038252602c8152602001806148f9602c913960400191505060405180910390fd5b600061354083611ecf565b90508073ffffffffffffffffffffffffffffffffffffffff168473ffffffffffffffffffffffffffffffffffffffff1614806135af57508373ffffffffffffffffffffffffffffffffffffffff16613597846112bd565b73ffffffffffffffffffffffffffffffffffffffff16145b806135c057506135bf8185612a25565b5b91505092915050565b8273ffffffffffffffffffffffffffffffffffffffff166135e982611ecf565b73ffffffffffffffffffffffffffffffffffffffff1614613655576040517f08c379a0000000000000000000000000000000000000000000000000000000008152600401808060200182810382526029815260200180614a4b6029913960400191505060405180910390fd5b600073ffffffffffffffffffffffffffffffffffffffff168273ffffffffffffffffffffffffffffffffffffffff1614156136db576040517f08c379a000000000000000000000000000000000000000000000000000000000815260040180806020018281038252602481526020018061488d6024913960400191505060405180910390fd5b6136e6838383613b7b565b6136f16000826132d7565b61374281600160008673ffffffffffffffffffffffffffffffffffffffff1673ffffffffffffffffffffffffffffffffffffffff168152602001908152602001600020613b8090919063ffffffff16565b5061379481600160008573ffffffffffffffffffffffffffffffffffffffff1673ffffffffffffffffffffffffffffffffffffffff168152602001908152602001600020613b9a90919063ffffffff16565b506137ab81836002613bb49092919063ffffffff16565b50808273ffffffffffffffffffffffffffffffffffffffff168473ffffffffffffffffffffffffffffffffffffffff167fddf252ad1be2c89b69c2b068fc378daa952ba7f163c4a11628f55a4df523b3ef60405160405180910390a4505050565b600061381b8360000183613be9565b60001c905092915050565b6000806000806138398660000186613c6c565b915091508160001c8160001c9350935050509250929050565b8060099080519060200190613868929190614732565b5050565b600061387f846000018460001b84613d05565b60001c90509392505050565b600061389982600001613dfb565b9050919050565b6000808314156138b35760009050613920565b60008284029050828482816138c457fe5b041461391b576040517f08c379a00000000000000000000000000000000000000000000000000000000081526004018080602001828103825260218152602001806149d26021913960400191505060405180910390fd5b809150505b92915050565b6139318484846135c9565b61393d84848484613e0c565b613992576040517f08c379a00000000000000000000000000000000000000000000000000000000081526004018080602001828103825260328152602001806148006032913960400191505060405180910390fd5b50505050565b606060008214156139e0576040518060400160405280600181526020017f30000000000000000000000000000000000000000000000000000000000000008152509050613ada565b600082905060005b60008214613a0a578080600101915050600a8281613a0257fe5b0491506139e8565b60008167ffffffffffffffff81118015613a2357600080fd5b506040519080825280601f01601f191660200182016040528015613a565781602001600182028036833780820191505090505b50905060006001830390508593505b60008414613ad257600a8481613a7757fe5b0660300160f81b82828060019003935081518110613a9157fe5b60200101907effffffffffffffffffffffffffffffffffffffffffffffffffffffffffffff1916908160001a905350600a8481613aca57fe5b049350613a65565b819450505050505b919050565b6000613af1836000018360001b614025565b905092915050565b613b038383614048565b613b106000848484613e0c565b613b65576040517f08c379a00000000000000000000000000000000000000000000000000000000081526004018080602001828103825260328152602001806148006032913960400191505060405180910390fd5b505050565b600081600001805490509050919050565b505050565b6000613b92836000018360001b61423c565b905092915050565b6000613bac836000018360001b614324565b905092915050565b6000613be0846000018460001b8473ffffffffffffffffffffffffffffffffffffffff1660001b614394565b90509392505050565b600081836000018054905011613c4a576040517f08c379a00000000000000000000000000000000000000000000000000000000081526004018080602001828103825260228152602001806147de6022913960400191505060405180910390fd5b826000018281548110613c5957fe5b9060005260206000200154905092915050565b60008082846000018054905011613cce576040517f08c379a00000000000000000000000000000000000000000000000000000000081526004018080602001828103825260228152602001806149b06022913960400191505060405180910390fd5b6000846000018481548110613cdf57fe5b906000526020600020906002020190508060000154816001015492509250509250929050565b60008084600101600085815260200190815260200160002054905060008114158390613dcc576040517f08c379a00000000000000000000000000000000000000000000000000000000081526004018080602001828103825283818151815260200191508051906020019080838360005b83811015613d91578082015181840152602081019050613d76565b50505050905090810190601f168015613dbe5780820380516001836020036101000a031916815260200191505b509250505060405180910390fd5b50846000016001820381548110613ddf57fe5b9060005260206000209060020201600101549150509392505050565b600081600001805490509050919050565b6000613e2d8473ffffffffffffffffffffffffffffffffffffffff16614470565b613e3a576001905061401d565b6000613fa463150b7a0260e01b613e4f6132cf565b888787604051602401808573ffffffffffffffffffffffffffffffffffffffff1681526020018473ffffffffffffffffffffffffffffffffffffffff16815260200183815260200180602001828103825283818151815260200191508051906020019080838360005b83811015613ed3578082015181840152602081019050613eb8565b50505050905090810190601f168015613f005780820380516001836020036101000a031916815260200191505b5095505050505050604051602081830303815290604052907bffffffffffffffffffffffffffffffffffffffffffffffffffffffff19166020820180517bffffffffffffffffffffffffffffffffffffffffffffffffffffffff8381831617835250505050604051806060016040528060328152602001614800603291398773ffffffffffffffffffffffffffffffffffffffff166144839092919063ffffffff16565b90506000818060200190516020811015613fbd57600080fd5b8101908080519060200190929190505050905063150b7a0260e01b7bffffffffffffffffffffffffffffffffffffffffffffffffffffffff1916817bffffffffffffffffffffffffffffffffffffffffffffffffffffffff191614925050505b949350505050565b600080836001016000848152602001908152602001600020541415905092915050565b600073ffffffffffffffffffffffffffffffffffffffff168273ffffffffffffffffffffffffffffffffffffffff1614156140eb576040517f08c379a00000000000000000000000000000000000000000000000000000000081526004018080602001828103825260208152602001807f4552433732313a206d696e7420746f20746865207a65726f206164647265737381525060200191505060405180910390fd5b6140f4816132b2565b15614167576040517f08c379a000000000000000000000000000000000000000000000000000000000815260040180806020018281038252601c8152602001807f4552433732313a20746f6b656e20616c7265616479206d696e7465640000000081525060200191505060405180910390fd5b61417360008383613b7b565b6141c481600160008573ffffffffffffffffffffffffffffffffffffffff1673ffffffffffffffffffffffffffffffffffffffff168152602001908152602001600020613b9a90919063ffffffff16565b506141db81836002613bb49092919063ffffffff16565b50808273ffffffffffffffffffffffffffffffffffffffff16600073ffffffffffffffffffffffffffffffffffffffff167fddf252ad1be2c89b69c2b068fc378daa952ba7f163c4a11628f55a4df523b3ef60405160405180910390a45050565b60008083600101600084815260200190815260200160002054905060008114614318576000600182039050600060018660000180549050039050600086600001828154811061428757fe5b90600052602060002001549050808760000184815481106142a457fe5b90600052602060002001819055506001830187600101600083815260200190815260200160002081905550866000018054806142dc57fe5b6001900381819060005260206000200160009055905586600101600087815260200190815260200160002060009055600194505050505061431e565b60009150505b92915050565b6000614330838361449b565b61438957826000018290806001815401808255809150506001900390600052602060002001600090919091909150558260000180549050836001016000848152602001908152602001600020819055506001905061438e565b600090505b92915050565b600080846001016000858152602001908152602001600020549050600081141561443b57846000016040518060400160405280868152602001858152509080600181540180825580915050600190039060005260206000209060020201600090919091909150600082015181600001556020820151816001015550508460000180549050856001016000868152602001908152602001600020819055506001915050614469565b8285600001600183038154811061444e57fe5b90600052602060002090600202016001018190555060009150505b9392505050565b600080823b905060008111915050919050565b606061449284846000856144be565b90509392505050565b600080836001016000848152602001908152602001600020541415905092915050565b606082471015614519576040517f08c379a00000000000000000000000000000000000000000000000000000000081526004018080602001828103825260268152602001806148d36026913960400191505060405180910390fd5b61452285614470565b614594576040517f08c379a000000000000000000000000000000000000000000000000000000000815260040180806020018281038252601d8152602001807f416464726573733a2063616c6c20746f206e6f6e2d636f6e747261637400000081525060200191505060405180910390fd5b6000808673ffffffffffffffffffffffffffffffffffffffff1685876040518082805190602001908083835b602083106145e357805182526020820191506020810190506020830392506145c0565b6001836020036101000a03801982511681845116808217855250505050505090500191505060006040518083038185875af1925050503d8060008114614645576040519150601f19603f3d011682016040523d82523d6000602084013e61464a565b606091505b509150915061465a828286614666565b92505050949350505050565b606083156146765782905061472b565b6000835111156146895782518084602001fd5b816040517f08c379a00000000000000000000000000000000000000000000000000000000081526004018080602001828103825283818151815260200191508051906020019080838360005b838110156146f05780820151818401526020810190506146d5565b50505050905090810190601f16801561471d5780820380516001836020036101000a031916815260200191505b509250505060405180910390fd5b9392505050565b828054600181600116156101000203166002900490600052602060002090601f01602090048101928261476857600085556147af565b82601f1061478157805160ff19168380011785556147af565b828001600101855582156147af579182015b828111156147ae578251825591602001919060010190614793565b5b5090506147bc91906147c0565b5090565b5b808211156147d95760008160009055506001016147c1565b509056fe456e756d657261626c655365743a20696e646578206f7574206f6620626f756e64734552433732313a207472616e7366657220746f206e6f6e20455243373231526563656976657220696d706c656d656e7465724f776e61626c653a206e6577206f776e657220697320746865207a65726f2061646472657373697066733a2f2f516d57754365484c3175616a6a4e454c4b6665483138617a5a334b5342315966665474626a614e4a715a703139664552433732313a207472616e7366657220746f20746865207a65726f206164647265737347696674206974656d7320776f756c6420657863656564206d617820737570706c79416464726573733a20696e73756666696369656e742062616c616e636520666f722063616c6c4552433732313a206f70657261746f7220717565727920666f72206e6f6e6578697374656e7420746f6b656e4552433732313a20617070726f76652063616c6c6572206973206e6f74206f776e6572206e6f7220617070726f76656420666f7220616c6c4552433732313a2062616c616e636520717565727920666f7220746865207a65726f20616464726573734552433732313a206f776e657220717565727920666f72206e6f6e6578697374656e7420746f6b656e456e756d657261626c654d61703a20696e646578206f7574206f6620626f756e6473536166654d6174683a206d756c7469706c69636174696f6e206f766572666c6f774552433732313a20617070726f76656420717565727920666f72206e6f6e6578697374656e7420746f6b656e4552433732314d657461646174613a2055524920736574206f66206e6f6e6578697374656e7420746f6b656e4552433732313a207472616e73666572206f6620746f6b656e2074686174206973206e6f74206f776e4552433732314d657461646174613a2055524920717565727920666f72206e6f6e6578697374656e7420746f6b656e4552433732313a20617070726f76616c20746f2063757272656e74206f776e6572596f7520617265206e6f7420616c6c6f77656420746f20706172746563697061746520746f20746865207072652073616c65206d696e744552433732313a207472616e736665722063616c6c6572206973206e6f74206f776e6572206e6f7220617070726f7665645265736572766564206974656d7320776f756c6420657863656564206d617820737570706c79a2646970667358221220ed6c032ba928ec5c1b270cd7835e7bcb7771078cf2ab06fc64391411d8fe92f764736f6c63430007060033",
  "immutableReferences": {},
  "source": "\n// SPDX-License-Identifier: MIT\n\npragma solidity ^0.7.6;\n\nimport \"openzeppelin-solidity/contracts/token/ERC721/ERC721.sol\";\nimport \"openzeppelin-solidity/contracts/access/Ownable.sol\";\nimport \"openzeppelin-solidity/contracts/math/SafeMath.sol\";\n\ncontract SportLegends is ERC721, Ownable {\n\n    using SafeMath for uint256;\n    \n    event Transfer(address _to, uint _value);\n\n    bool public saleIsActive = false;\n    bool public preSaleIsActive = false;\n\n    uint256 public constant itemPrice = 0.05 ether;\n    uint64 public constant RESERVED_ITEMS = 7;\n    uint64 public constant GIFT_ITEMS = 70;\n    uint64 public constant PREADOPT_ITEMS = 700;\n    uint64 public constant ADOPT_ITEMS = 7000;\n    uint128 public constant TOTAL_ITEMS = ADOPT_ITEMS + PREADOPT_ITEMS + GIFT_ITEMS + RESERVED_ITEMS;\n    uint128 public constant MAX_ITEMS_PER_MINT = 10;\n\n    uint256 private giftItems = 0;\n    uint256 private preSaleItems = 0;\n    string private constant IPFS_GUESS_ITEM = \"ipfs://QmWuCeHL1uajjNELKfeH18azZ3KSB1YffTtbjaNJqZp19f\";\n\n    uint32 private _presaleMapIndex = 1;\n\n    mapping (uint32 => mapping (address => uint32)) private _preSaleAddress;\n\n    constructor() ERC721(\"Sport Legends\", \"SPL\") {\n    }\n\n    function withdraw() public onlyOwner {\n        uint balance = address(this).balance;\n        msg.sender.transfer(balance);\n        emit Transfer(msg.sender, balance);\n    }\n    \n    function flipSaleState() public onlyOwner {\n        saleIsActive = !saleIsActive;\n    }\n    \n    function flipPreSaleState() public onlyOwner {\n        preSaleIsActive = !preSaleIsActive;\n    }\n\n    function setPreSaleMapIndex(uint32 mapIndex) public onlyOwner {\n        _presaleMapIndex = mapIndex;\n    }\n\n    function getPreSaleMapIndex() public onlyOwner view returns( uint32 ) {\n        return _presaleMapIndex;\n    }\n\n    function setPreSalesAddresses( address [] memory recipients ) public onlyOwner {   \n        for( uint256 i ; i < recipients.length; i++ ){\n            _preSaleAddress[_presaleMapIndex][recipients[i]] = 1;\n        }\n    }\n    \n    function setBaseURI(string memory baseURI) public onlyOwner {\n        _setBaseURI(baseURI);\n    }\n    \n    function setTokenURI(uint256 tokenId, string memory _tokenURI) public onlyOwner {\n        _setTokenURI(tokenId, _tokenURI);\n    }\n\n    function getGiftItems() public view returns( uint256 ){\n        return giftItems;\n    }\n\n    function getPreSaleItems() public view returns( uint256 ){\n        return preSaleItems;\n    }\n\n    function reserveItems() public onlyOwner {        \n        require(totalSupply().add(RESERVED_ITEMS) <= TOTAL_ITEMS, \"Reserved items would exceed max supply\");\n        uint supply = totalSupply();\n        uint i;\n        for (i = 0; i < RESERVED_ITEMS; i++) {\n            _safeMint(msg.sender, supply + i);\n        }\n    }\n\n    function giftSportLegends( address [] memory recipients ) public onlyOwner {\n        require(recipients.length + giftItems < GIFT_ITEMS + 1, \"Can't gift more than 70 items\");\n        require(totalSupply().add(recipients.length) <= TOTAL_ITEMS, \"Gift items would exceed max supply\");\n        uint256 supply = totalSupply();        \n        for( uint256 i ; i < recipients.length; i++ ){\n            _safeMint(recipients[i], supply + i );\n            giftItems += 1;\n        }\n    }\n\n    function mintPreSaleSportLegends(uint numberOfTokens) public payable {\n        require(preSaleIsActive, \"Pre sale must be active to mint\");\n        require(_preSaleAddress[_presaleMapIndex][msg.sender] > 0, \"You are not allowed to partecipate to the pre sale mint\");\n        require(numberOfTokens + preSaleItems < PREADOPT_ITEMS + 1, \"Can't mint more than 700 items\");\n        require(numberOfTokens <= MAX_ITEMS_PER_MINT, \"Can't mint more than 10 items\");\n        require(totalSupply().add(numberOfTokens) <= TOTAL_ITEMS, \"Purchase would exceed max supply\");\n        require(msg.value == itemPrice.mul(numberOfTokens), \"Ether value sent is not correct\");\n        \n        for(uint i = 0; i < numberOfTokens; i++) {\n            uint mintIndex = totalSupply();\n            if (totalSupply() < TOTAL_ITEMS && preSaleItems < PREADOPT_ITEMS + 1) {\n                _safeMint(msg.sender, mintIndex);\n                preSaleItems += 1;\n            }\n        }\n    }\n\n    function mintSportLegends(uint numberOfTokens) public payable {\n        require(saleIsActive, \"Sale must be active to mint\");\n        require(numberOfTokens <= MAX_ITEMS_PER_MINT, \"Can't mint more than 10 items\");\n        require(totalSupply().add(numberOfTokens) <= TOTAL_ITEMS, \"Purchase would exceed max supply\");\n        require(msg.value == itemPrice.mul(numberOfTokens), \"Ether value sent is not correct\");\n        \n        for(uint i = 0; i < numberOfTokens; i++) {\n            uint mintIndex = totalSupply();\n            if (totalSupply() < TOTAL_ITEMS) {\n                _safeMint(msg.sender, mintIndex);\n            }\n        }\n    }\n\n    function tokenURI(uint256 tokenId) public view virtual override returns (string memory) {\n        require(_exists(tokenId), \"ERC721Metadata: URI query for nonexistent token\");\n\n        string memory baseURI = baseURI();\n        if( bytes(baseURI).length == 0 ){\n            return IPFS_GUESS_ITEM;\n        }\n        return bytes(baseURI).length > 0 ? string(abi.encodePacked(baseURI, Strings.toString(tokenId))) : \"\";\n    }\n}",
  "sourcePath": "/home/gascenzo/TheSporties/contracts/SportLegends.sol",
  "compiler": {
    "name": "solc",
    "version": "0.7.6+commit.7338295f.Emscripten.clang"
  },
  "schemaVersion": "3.4.3",
  "updatedAt": "2021-09-08T13:03:17.841Z",
  "networkType": "ethereum",
  "devdoc": {
    "kind": "dev",
    "methods": {
      "approve(address,uint256)": {
        "details": "See {IERC721-approve}."
      },
      "balanceOf(address)": {
        "details": "See {IERC721-balanceOf}."
      },
      "baseURI()": {
        "details": "Returns the base URI set via {_setBaseURI}. This will be automatically added as a prefix in {tokenURI} to each token's URI, or to the token ID if no specific URI is set for that token ID."
      },
      "getApproved(uint256)": {
        "details": "See {IERC721-getApproved}."
      },
      "isApprovedForAll(address,address)": {
        "details": "See {IERC721-isApprovedForAll}."
      },
      "name()": {
        "details": "See {IERC721Metadata-name}."
      },
      "owner()": {
        "details": "Returns the address of the current owner."
      },
      "ownerOf(uint256)": {
        "details": "See {IERC721-ownerOf}."
      },
      "renounceOwnership()": {
        "details": "Leaves the contract without owner. It will not be possible to call `onlyOwner` functions anymore. Can only be called by the current owner. NOTE: Renouncing ownership will leave the contract without an owner, thereby removing any functionality that is only available to the owner."
      },
      "safeTransferFrom(address,address,uint256)": {
        "details": "See {IERC721-safeTransferFrom}."
      },
      "safeTransferFrom(address,address,uint256,bytes)": {
        "details": "See {IERC721-safeTransferFrom}."
      },
      "setApprovalForAll(address,bool)": {
        "details": "See {IERC721-setApprovalForAll}."
      },
      "supportsInterface(bytes4)": {
        "details": "See {IERC165-supportsInterface}. Time complexity O(1), guaranteed to always use less than 30 000 gas."
      },
      "symbol()": {
        "details": "See {IERC721Metadata-symbol}."
      },
      "tokenByIndex(uint256)": {
        "details": "See {IERC721Enumerable-tokenByIndex}."
      },
      "tokenOfOwnerByIndex(address,uint256)": {
        "details": "See {IERC721Enumerable-tokenOfOwnerByIndex}."
      },
      "tokenURI(uint256)": {
        "details": "See {IERC721Metadata-tokenURI}."
      },
      "totalSupply()": {
        "details": "See {IERC721Enumerable-totalSupply}."
      },
      "transferFrom(address,address,uint256)": {
        "details": "See {IERC721-transferFrom}."
      },
      "transferOwnership(address)": {
        "details": "Transfers ownership of the contract to a new account (`newOwner`). Can only be called by the current owner."
      }
    },
    "version": 1
  },
  "userdoc": {
    "kind": "user",
    "methods": {},
    "version": 1
  }
}