{
  "contractName": "SportSuperstars",
  "abi": [
    {
      "inputs": [],
      "stateMutability": "nonpayable",
      "type": "constructor"
    },
    {
      "anonymous": false,
      "inputs": [
        {
          "indexed": true,
          "internalType": "address",
          "name": "owner",
          "type": "address"
        },
        {
          "indexed": true,
          "internalType": "address",
          "name": "approved",
          "type": "address"
        },
        {
          "indexed": true,
          "internalType": "uint256",
          "name": "tokenId",
          "type": "uint256"
        }
      ],
      "name": "Approval",
      "type": "event"
    },
    {
      "anonymous": false,
      "inputs": [
        {
          "indexed": true,
          "internalType": "address",
          "name": "owner",
          "type": "address"
        },
        {
          "indexed": true,
          "internalType": "address",
          "name": "operator",
          "type": "address"
        },
        {
          "indexed": false,
          "internalType": "bool",
          "name": "approved",
          "type": "bool"
        }
      ],
      "name": "ApprovalForAll",
      "type": "event"
    },
    {
      "anonymous": false,
      "inputs": [
        {
          "indexed": true,
          "internalType": "address",
          "name": "previousOwner",
          "type": "address"
        },
        {
          "indexed": true,
          "internalType": "address",
          "name": "newOwner",
          "type": "address"
        }
      ],
      "name": "OwnershipTransferred",
      "type": "event"
    },
    {
      "anonymous": false,
      "inputs": [
        {
          "indexed": true,
          "internalType": "address",
          "name": "from",
          "type": "address"
        },
        {
          "indexed": true,
          "internalType": "address",
          "name": "to",
          "type": "address"
        },
        {
          "indexed": true,
          "internalType": "uint256",
          "name": "tokenId",
          "type": "uint256"
        }
      ],
      "name": "Transfer",
      "type": "event"
    },
    {
      "inputs": [],
      "name": "GIFT_ITEMS",
      "outputs": [
        {
          "internalType": "uint256",
          "name": "",
          "type": "uint256"
        }
      ],
      "stateMutability": "view",
      "type": "function",
      "constant": true
    },
    {
      "inputs": [],
      "name": "MAX_ITEMS_PER_MINT",
      "outputs": [
        {
          "internalType": "uint256",
          "name": "",
          "type": "uint256"
        }
      ],
      "stateMutability": "view",
      "type": "function",
      "constant": true
    },
    {
      "inputs": [],
      "name": "PREADOPT_ITEMS",
      "outputs": [
        {
          "internalType": "uint256",
          "name": "",
          "type": "uint256"
        }
      ],
      "stateMutability": "view",
      "type": "function",
      "constant": true
    },
    {
      "inputs": [],
      "name": "TOTAL_ITEMS",
      "outputs": [
        {
          "internalType": "uint256",
          "name": "",
          "type": "uint256"
        }
      ],
      "stateMutability": "view",
      "type": "function",
      "constant": true
    },
    {
      "inputs": [
        {
          "internalType": "address",
          "name": "to",
          "type": "address"
        },
        {
          "internalType": "uint256",
          "name": "tokenId",
          "type": "uint256"
        }
      ],
      "name": "approve",
      "outputs": [],
      "stateMutability": "nonpayable",
      "type": "function"
    },
    {
      "inputs": [
        {
          "internalType": "address",
          "name": "owner",
          "type": "address"
        }
      ],
      "name": "balanceOf",
      "outputs": [
        {
          "internalType": "uint256",
          "name": "",
          "type": "uint256"
        }
      ],
      "stateMutability": "view",
      "type": "function",
      "constant": true
    },
    {
      "inputs": [],
      "name": "baseURI",
      "outputs": [
        {
          "internalType": "string",
          "name": "",
          "type": "string"
        }
      ],
      "stateMutability": "view",
      "type": "function",
      "constant": true
    },
    {
      "inputs": [
        {
          "internalType": "uint256",
          "name": "tokenId",
          "type": "uint256"
        }
      ],
      "name": "getApproved",
      "outputs": [
        {
          "internalType": "address",
          "name": "",
          "type": "address"
        }
      ],
      "stateMutability": "view",
      "type": "function",
      "constant": true
    },
    {
      "inputs": [],
      "name": "giftItems",
      "outputs": [
        {
          "internalType": "uint256",
          "name": "",
          "type": "uint256"
        }
      ],
      "stateMutability": "view",
      "type": "function",
      "constant": true
    },
    {
      "inputs": [
        {
          "internalType": "address",
          "name": "owner",
          "type": "address"
        },
        {
          "internalType": "address",
          "name": "operator",
          "type": "address"
        }
      ],
      "name": "isApprovedForAll",
      "outputs": [
        {
          "internalType": "bool",
          "name": "",
          "type": "bool"
        }
      ],
      "stateMutability": "view",
      "type": "function",
      "constant": true
    },
    {
      "inputs": [],
      "name": "itemPrice",
      "outputs": [
        {
          "internalType": "uint256",
          "name": "",
          "type": "uint256"
        }
      ],
      "stateMutability": "view",
      "type": "function",
      "constant": true
    },
    {
      "inputs": [],
      "name": "name",
      "outputs": [
        {
          "internalType": "string",
          "name": "",
          "type": "string"
        }
      ],
      "stateMutability": "view",
      "type": "function",
      "constant": true
    },
    {
      "inputs": [],
      "name": "owner",
      "outputs": [
        {
          "internalType": "address",
          "name": "",
          "type": "address"
        }
      ],
      "stateMutability": "view",
      "type": "function",
      "constant": true
    },
    {
      "inputs": [
        {
          "internalType": "uint256",
          "name": "tokenId",
          "type": "uint256"
        }
      ],
      "name": "ownerOf",
      "outputs": [
        {
          "internalType": "address",
          "name": "",
          "type": "address"
        }
      ],
      "stateMutability": "view",
      "type": "function",
      "constant": true
    },
    {
      "inputs": [],
      "name": "preSaleIsActive",
      "outputs": [
        {
          "internalType": "bool",
          "name": "",
          "type": "bool"
        }
      ],
      "stateMutability": "view",
      "type": "function",
      "constant": true
    },
    {
      "inputs": [],
      "name": "preSaleItems",
      "outputs": [
        {
          "internalType": "uint256",
          "name": "",
          "type": "uint256"
        }
      ],
      "stateMutability": "view",
      "type": "function",
      "constant": true
    },
    {
      "inputs": [],
      "name": "renounceOwnership",
      "outputs": [],
      "stateMutability": "nonpayable",
      "type": "function"
    },
    {
      "inputs": [
        {
          "internalType": "address",
          "name": "from",
          "type": "address"
        },
        {
          "internalType": "address",
          "name": "to",
          "type": "address"
        },
        {
          "internalType": "uint256",
          "name": "tokenId",
          "type": "uint256"
        }
      ],
      "name": "safeTransferFrom",
      "outputs": [],
      "stateMutability": "nonpayable",
      "type": "function"
    },
    {
      "inputs": [
        {
          "internalType": "address",
          "name": "from",
          "type": "address"
        },
        {
          "internalType": "address",
          "name": "to",
          "type": "address"
        },
        {
          "internalType": "uint256",
          "name": "tokenId",
          "type": "uint256"
        },
        {
          "internalType": "bytes",
          "name": "_data",
          "type": "bytes"
        }
      ],
      "name": "safeTransferFrom",
      "outputs": [],
      "stateMutability": "nonpayable",
      "type": "function"
    },
    {
      "inputs": [],
      "name": "saleIsActive",
      "outputs": [
        {
          "internalType": "bool",
          "name": "",
          "type": "bool"
        }
      ],
      "stateMutability": "view",
      "type": "function",
      "constant": true
    },
    {
      "inputs": [
        {
          "internalType": "address",
          "name": "operator",
          "type": "address"
        },
        {
          "internalType": "bool",
          "name": "approved",
          "type": "bool"
        }
      ],
      "name": "setApprovalForAll",
      "outputs": [],
      "stateMutability": "nonpayable",
      "type": "function"
    },
    {
      "inputs": [
        {
          "internalType": "bytes4",
          "name": "interfaceId",
          "type": "bytes4"
        }
      ],
      "name": "supportsInterface",
      "outputs": [
        {
          "internalType": "bool",
          "name": "",
          "type": "bool"
        }
      ],
      "stateMutability": "view",
      "type": "function",
      "constant": true
    },
    {
      "inputs": [],
      "name": "symbol",
      "outputs": [
        {
          "internalType": "string",
          "name": "",
          "type": "string"
        }
      ],
      "stateMutability": "view",
      "type": "function",
      "constant": true
    },
    {
      "inputs": [
        {
          "internalType": "uint256",
          "name": "index",
          "type": "uint256"
        }
      ],
      "name": "tokenByIndex",
      "outputs": [
        {
          "internalType": "uint256",
          "name": "",
          "type": "uint256"
        }
      ],
      "stateMutability": "view",
      "type": "function",
      "constant": true
    },
    {
      "inputs": [
        {
          "internalType": "address",
          "name": "owner",
          "type": "address"
        },
        {
          "internalType": "uint256",
          "name": "index",
          "type": "uint256"
        }
      ],
      "name": "tokenOfOwnerByIndex",
      "outputs": [
        {
          "internalType": "uint256",
          "name": "",
          "type": "uint256"
        }
      ],
      "stateMutability": "view",
      "type": "function",
      "constant": true
    },
    {
      "inputs": [],
      "name": "totalSupply",
      "outputs": [
        {
          "internalType": "uint256",
          "name": "",
          "type": "uint256"
        }
      ],
      "stateMutability": "view",
      "type": "function",
      "constant": true
    },
    {
      "inputs": [
        {
          "internalType": "address",
          "name": "from",
          "type": "address"
        },
        {
          "internalType": "address",
          "name": "to",
          "type": "address"
        },
        {
          "internalType": "uint256",
          "name": "tokenId",
          "type": "uint256"
        }
      ],
      "name": "transferFrom",
      "outputs": [],
      "stateMutability": "nonpayable",
      "type": "function"
    },
    {
      "inputs": [
        {
          "internalType": "address",
          "name": "newOwner",
          "type": "address"
        }
      ],
      "name": "transferOwnership",
      "outputs": [],
      "stateMutability": "nonpayable",
      "type": "function"
    },
    {
      "inputs": [
        {
          "internalType": "address[]",
          "name": "recipients",
          "type": "address[]"
        }
      ],
      "name": "giftSportSuperstars",
      "outputs": [],
      "stateMutability": "nonpayable",
      "type": "function"
    },
    {
      "inputs": [
        {
          "internalType": "uint256",
          "name": "tokens",
          "type": "uint256"
        }
      ],
      "name": "mintPreSaleSportSuperstars",
      "outputs": [],
      "stateMutability": "payable",
      "type": "function",
      "payable": true
    },
    {
      "inputs": [
        {
          "internalType": "uint256",
          "name": "tokens",
          "type": "uint256"
        }
      ],
      "name": "mintSportSuperstars",
      "outputs": [],
      "stateMutability": "payable",
      "type": "function",
      "payable": true
    },
    {
      "inputs": [
        {
          "internalType": "uint256",
          "name": "tokenId",
          "type": "uint256"
        }
      ],
      "name": "tokenURI",
      "outputs": [
        {
          "internalType": "string",
          "name": "",
          "type": "string"
        }
      ],
      "stateMutability": "view",
      "type": "function",
      "constant": true
    },
    {
      "inputs": [],
      "name": "withdraw",
      "outputs": [],
      "stateMutability": "nonpayable",
      "type": "function"
    },
    {
      "inputs": [],
      "name": "flipSaleState",
      "outputs": [],
      "stateMutability": "nonpayable",
      "type": "function"
    },
    {
      "inputs": [],
      "name": "flipPreSaleState",
      "outputs": [],
      "stateMutability": "nonpayable",
      "type": "function"
    },
    {
      "inputs": [
        {
          "internalType": "address[]",
          "name": "recipients",
          "type": "address[]"
        }
      ],
      "name": "setPreSalesAddresses",
      "outputs": [],
      "stateMutability": "nonpayable",
      "type": "function"
    },
    {
      "inputs": [
        {
          "internalType": "string",
          "name": "baseURI",
          "type": "string"
        }
      ],
      "name": "setBaseURI",
      "outputs": [],
      "stateMutability": "nonpayable",
      "type": "function"
    },
    {
      "inputs": [
        {
          "internalType": "address",
          "name": "recipient",
          "type": "address"
        }
      ],
      "name": "isAddressAllowedForPreSale",
      "outputs": [
        {
          "internalType": "bool",
          "name": "",
          "type": "bool"
        }
      ],
      "stateMutability": "view",
      "type": "function",
      "constant": true
    },
    {
      "inputs": [
        {
          "internalType": "uint256",
          "name": "numberOfTokens",
          "type": "uint256"
        }
      ],
      "name": "reserveItems",
      "outputs": [],
      "stateMutability": "nonpayable",
      "type": "function"
    }
  ],
  "bytecode": "0x60806040526000600b819055600c55600d805461ffff191690553480156200002657600080fd5b50604080518082018252601081526f53706f7274205375706572737461727360801b6020808301919091528251808401909352600383526253535360e81b90830152906200007b6301ffc9a760e01b62000140565b815162000090906006906020850190620001c9565b508051620000a6906007906020840190620001c9565b50620000b96380ac58cd60e01b62000140565b620000cb635b5e139f60e01b62000140565b620000dd63780e9d6360e01b62000140565b5060009050620000ec620001c5565b600a80546001600160a01b0319166001600160a01b038316908117909155604051919250906000907f8be0079c531659141344cd1fd0a4f28419497f9722a3daafe3b4186f6b6457e0908290a35062000275565b6001600160e01b03198082161415620001a0576040805162461bcd60e51b815260206004820152601c60248201527f4552433136353a20696e76616c696420696e7465726661636520696400000000604482015290519081900360640190fd5b6001600160e01b0319166000908152602081905260409020805460ff19166001179055565b3390565b828054600181600116156101000203166002900490600052602060002090601f0160209004810192826200020157600085556200024c565b82601f106200021c57805160ff19168380011785556200024c565b828001600101855582156200024c579182015b828111156200024c5782518255916020019190600101906200022f565b506200025a9291506200025e565b5090565b5b808211156200025a57600081556001016200025f565b612c7180620002856000396000f3fe6080604052600436106102305760003560e01c806355f804b31161012e578063974c25a6116100ab578063dac6db1c1161006f578063dac6db1c146109e0578063e985e9c5146109f5578063eb8d244414610a30578063f032554914610a45578063f2fde38b14610a5a57610230565b8063974c25a61461086b578063a22cb46514610895578063b88d4fde146108d0578063c4741fdd146109a1578063c87b56dd146109b657610230565b806370a08231116100f257806370a08231146107e4578063715018a614610817578063847bc9701461082c5780638da5cb5b1461084157806395d89b411461085657610230565b806355f804b3146106295780635d5faaa5146106da5780636352211e146106f75780636c0360eb146107215780636c94babb1461073657610230565b806323b872dd116101bc5780633ccfd60b116101805780633ccfd60b146104e457806341425b03146104f957806342842e0e146105a75780634a9b4bb5146105ea5780634f6ccce7146105ff57610230565b806323b872dd14610421578063260dae1f146104645780632f745c5914610481578063334894e7146104ba57806334918dfd146104cf57610230565b8063095ea7b311610203578063095ea7b3146103805780630ee7487e146103bb57806318160ddd146103e25780631a93ff9f146103f75780631f0234d81461040c57610230565b806301ffc9a71461023557806302ad565c1461027d57806306fdde03146102b0578063081812fc1461033a575b600080fd5b34801561024157600080fd5b506102696004803603602081101561025857600080fd5b50356001600160e01b031916610a8d565b604080519115158252519081900360200190f35b34801561028957600080fd5b50610269600480360360208110156102a057600080fd5b50356001600160a01b0316610ab0565b3480156102bc57600080fd5b506102c5610acd565b6040805160208082528351818301528351919283929083019185019080838360005b838110156102ff5781810151838201526020016102e7565b50505050905090810190601f16801561032c5780820380516001836020036101000a031916815260200191505b509250505060405180910390f35b34801561034657600080fd5b506103646004803603602081101561035d57600080fd5b5035610b63565b604080516001600160a01b039092168252519081900360200190f35b34801561038c57600080fd5b506103b9600480360360408110156103a357600080fd5b506001600160a01b038135169060200135610bc5565b005b3480156103c757600080fd5b506103d0610ca0565b60408051918252519081900360200190f35b3480156103ee57600080fd5b506103d0610ca5565b34801561040357600080fd5b506103d0610cb6565b34801561041857600080fd5b50610269610cbc565b34801561042d57600080fd5b506103b96004803603606081101561044457600080fd5b506001600160a01b03813581169160208101359091169060400135610cca565b6103b96004803603602081101561047a57600080fd5b5035610d21565b34801561048d57600080fd5b506103d0600480360360408110156104a457600080fd5b506001600160a01b038135169060200135610f60565b3480156104c657600080fd5b506103d0610f8b565b3480156104db57600080fd5b506103b9610f90565b3480156104f057600080fd5b506103b9611006565b34801561050557600080fd5b506103b96004803603602081101561051c57600080fd5b810190602081018135600160201b81111561053657600080fd5b82018360208201111561054857600080fd5b803590602001918460208302840111600160201b8311171561056957600080fd5b919080806020026020016040519081016040528093929190818152602001838360200280828437600092019190915250929550611097945050505050565b3480156105b357600080fd5b506103b9600480360360608110156105ca57600080fd5b506001600160a01b03813581169160208101359091169060400135611143565b3480156105f657600080fd5b506103d061115e565b34801561060b57600080fd5b506103d06004803603602081101561062257600080fd5b5035611164565b34801561063557600080fd5b506103b96004803603602081101561064c57600080fd5b810190602081018135600160201b81111561066657600080fd5b82018360208201111561067857600080fd5b803590602001918460018302840111600160201b8311171561069957600080fd5b91908080601f01602080910402602001604051908101604052809392919081815260200183838082843760009201919091525092955061117a945050505050565b6103b9600480360360208110156106f057600080fd5b50356111e8565b34801561070357600080fd5b506103646004803603602081101561071a57600080fd5b5035611356565b34801561072d57600080fd5b506102c561137e565b34801561074257600080fd5b506103b96004803603602081101561075957600080fd5b810190602081018135600160201b81111561077357600080fd5b82018360208201111561078557600080fd5b803590602001918460208302840111600160201b831117156107a657600080fd5b9190808060200260200160405190810160405280939291908181526020018383602002808284376000920191909152509295506113df945050505050565b3480156107f057600080fd5b506103d06004803603602081101561080757600080fd5b50356001600160a01b0316611529565b34801561082357600080fd5b506103b9611591565b34801561083857600080fd5b506103d061163d565b34801561084d57600080fd5b50610364611643565b34801561086257600080fd5b506102c5611652565b34801561087757600080fd5b506103b96004803603602081101561088e57600080fd5b50356116b3565b3480156108a157600080fd5b506103b9600480360360408110156108b857600080fd5b506001600160a01b0381351690602001351515611796565b3480156108dc57600080fd5b506103b9600480360360808110156108f357600080fd5b6001600160a01b03823581169260208101359091169160408201359190810190608081016060820135600160201b81111561092d57600080fd5b82018360208201111561093f57600080fd5b803590602001918460018302840111600160201b8311171561096057600080fd5b91908080601f01602080910402602001604051908101604052809392919081815260200183838082843760009201919091525092955061189b945050505050565b3480156109ad57600080fd5b506103d06118f9565b3480156109c257600080fd5b506102c5600480360360208110156109d957600080fd5b50356118ff565b3480156109ec57600080fd5b506103d0611a67565b348015610a0157600080fd5b5061026960048036036040811015610a1857600080fd5b506001600160a01b0381358116916020013516611a72565b348015610a3c57600080fd5b50610269611aa0565b348015610a5157600080fd5b506103b9611aa9565b348015610a6657600080fd5b506103b960048036036020811015610a7d57600080fd5b50356001600160a01b0316611b28565b6001600160e01b0319811660009081526020819052604090205460ff165b919050565b6001600160a01b03166000908152600e6020526040902054151590565b60068054604080516020601f6002600019610100600188161502019095169490940493840181900481028201810190925282815260609390929091830182828015610b595780601f10610b2e57610100808354040283529160200191610b59565b820191906000526020600020905b815481529060010190602001808311610b3c57829003601f168201915b5050505050905090565b6000610b6e82611c2b565b610ba95760405162461bcd60e51b815260040180806020018281038252602c815260200180612b75602c913960400191505060405180910390fd5b506000908152600460205260409020546001600160a01b031690565b6000610bd082611356565b9050806001600160a01b0316836001600160a01b03161415610c235760405162461bcd60e51b8152600401808060200182810382526021815260200180612bea6021913960400191505060405180910390fd5b806001600160a01b0316610c35611c38565b6001600160a01b03161480610c565750610c5681610c51611c38565b611a72565b610c915760405162461bcd60e51b8152600401808060200182810382526038815260200180612aa76038913960400191505060405180910390fd5b610c9b8383611c3c565b505050565b600a81565b6000610cb16002611caa565b905090565b6102bc81565b600d54610100900460ff1681565b610cdb610cd5611c38565b82611cb5565b610d165760405162461bcd60e51b8152600401808060200182810382526031815260200180612c0b6031913960400191505060405180910390fd5b610c9b838383611d59565b600d54610100900460ff16610d73576040805162461bcd60e51b81526020600482015260136024820152725072652d73616c65206e6f742061637469766560681b604482015290519081900360640190fd5b336000908152600e6020526040902054610dcb576040805162461bcd60e51b8152602060048201526014602482015273139bdd08185b1b1bddd959081c1c994b5b5a5b9d60621b604482015290519081900360640190fd5b600c546102bd90820110610e18576040805162461bcd60e51b815260206004820152600f60248201526e141c994b5cd85b1948195e18d95959608a1b604482015290519081900360640190fd5b600a811115610e5d576040805162461bcd60e51b815260206004820152600c60248201526b4d6178203130206974656d7360a01b604482015290519081900360640190fd5b611e61610e7282610e6c610ca5565b90611ea5565b1115610eb7576040805162461bcd60e51b815260206004820152600f60248201526e141d5c98da185cd948195e18d95959608a1b604482015290519081900360640190fd5b610ec866d529ae9e86000082611eff565b3414610f0f576040805162461bcd60e51b8152602060048201526011602482015270115d1a195c881b9bdd0818dbdc9c9958dd607a1b604482015290519081900360640190fd5b60005b81811015610f5c576000610f24610ca5565b9050611e6181108015610f3a5750600c546102bd115b15610f5357610f493382611f58565b600c805460010190555b50600101610f12565b5050565b6001600160a01b0382166000908152600160205260408120610f829083611f72565b90505b92915050565b604681565b610f98611c38565b6001600160a01b0316610fa9611643565b6001600160a01b031614610ff2576040805162461bcd60e51b81526020600482018190526024820152600080516020612ba1833981519152604482015290519081900360640190fd5b600d805460ff19811660ff90911615179055565b61100e611c38565b6001600160a01b031661101f611643565b6001600160a01b031614611068576040805162461bcd60e51b81526020600482018190526024820152600080516020612ba1833981519152604482015290519081900360640190fd5b6040514790339082156108fc029083906000818181858888f19350505050158015610f5c573d6000803e3d6000fd5b61109f611c38565b6001600160a01b03166110b0611643565b6001600160a01b0316146110f9576040805162461bcd60e51b81526020600482018190526024820152600080516020612ba1833981519152604482015290519081900360640190fd5b60005b8151811015610f5c576001600e600084848151811061111757fe5b6020908102919091018101516001600160a01b03168252810191909152604001600020556001016110fc565b610c9b8383836040518060200160405280600081525061189b565b600c5481565b600080611172600284611f7e565b509392505050565b611182611c38565b6001600160a01b0316611193611643565b6001600160a01b0316146111dc576040805162461bcd60e51b81526020600482018190526024820152600080516020612ba1833981519152604482015290519081900360640190fd5b6111e581611f9a565b50565b600d5460ff16611231576040805162461bcd60e51b815260206004820152600f60248201526e53616c65206e6f742061637469766560881b604482015290519081900360640190fd5b600a811115611276576040805162461bcd60e51b815260206004820152600c60248201526b4d6178203130206974656d7360a01b604482015290519081900360640190fd5b611e6161128582610e6c610ca5565b11156112ca576040805162461bcd60e51b815260206004820152600f60248201526e141d5c98da185cd948195e18d95959608a1b604482015290519081900360640190fd5b6112db66d529ae9e86000082611eff565b3414611322576040805162461bcd60e51b8152602060048201526011602482015270115d1a195c881b9bdd0818dbdc9c9958dd607a1b604482015290519081900360640190fd5b60005b81811015610f5c576000611337610ca5565b9050611e6181101561134d5761134d3382611f58565b50600101611325565b6000610f8582604051806060016040528060298152602001612b096029913960029190611fad565b60098054604080516020601f6002600019610100600188161502019095169490940493840181900481028201810190925282815260609390929091830182828015610b595780601f10610b2e57610100808354040283529160200191610b59565b6113e7611c38565b6001600160a01b03166113f8611643565b6001600160a01b031614611441576040805162461bcd60e51b81526020600482018190526024820152600080516020612ba1833981519152604482015290519081900360640190fd5b600b5481516047910110611487576040805162461bcd60e51b815260206004820152600860248201526713585e0819da599d60c21b604482015290519081900360640190fd5b611e616114978251610e6c610ca5565b11156114d7576040805162461bcd60e51b815260206004820152600a6024820152694d617820737570706c7960b01b604482015290519081900360640190fd5b60006114e1610ca5565b90506000805b835181101561151b5761150f8482815181106114ff57fe5b6020026020010151828501611f58565b600191820191016114e7565b50600b805490910190555050565b60006001600160a01b0382166115705760405162461bcd60e51b815260040180806020018281038252602a815260200180612adf602a913960400191505060405180910390fd5b6001600160a01b0382166000908152600160205260409020610f8590611caa565b611599611c38565b6001600160a01b03166115aa611643565b6001600160a01b0316146115f3576040805162461bcd60e51b81526020600482018190526024820152600080516020612ba1833981519152604482015290519081900360640190fd5b600a546040516000916001600160a01b0316907f8be0079c531659141344cd1fd0a4f28419497f9722a3daafe3b4186f6b6457e0908390a3600a80546001600160a01b0319169055565b600b5481565b600a546001600160a01b031690565b60078054604080516020601f6002600019610100600188161502019095169490940493840181900481028201810190925282815260609390929091830182828015610b595780601f10610b2e57610100808354040283529160200191610b59565b6116bb611c38565b6001600160a01b03166116cc611643565b6001600160a01b031614611715576040805162461bcd60e51b81526020600482018190526024820152600080516020612ba1833981519152604482015290519081900360640190fd5b611e6161172482610e6c610ca5565b111561176b576040805162461bcd60e51b8152602060048201526011602482015270457863656564206d617820737570706c7960781b604482015290519081900360640190fd5b6000611775610ca5565b905060005b82811015610c9b5761178e33828401611f58565b60010161177a565b61179e611c38565b6001600160a01b0316826001600160a01b03161415611804576040805162461bcd60e51b815260206004820152601960248201527f4552433732313a20617070726f766520746f2063616c6c657200000000000000604482015290519081900360640190fd5b8060056000611811611c38565b6001600160a01b03908116825260208083019390935260409182016000908120918716808252919093529120805460ff191692151592909217909155611855611c38565b6001600160a01b03167f17307eab39ab6107e8899845ad3d59bd9653f200f220920489ca2b5937696c318360405180821515815260200191505060405180910390a35050565b6118ac6118a6611c38565b83611cb5565b6118e75760405162461bcd60e51b8152600401808060200182810382526031815260200180612c0b6031913960400191505060405180910390fd5b6118f384848484611fba565b50505050565b611e6181565b606061190a82611c2b565b611951576040805162461bcd60e51b8152602060048201526013602482015272151bdad95b88191bd95cdb89dd08195e1a5cdd606a1b604482015290519081900360640190fd5b600061195b61137e565b905080516000141561198857604051806060016040528060358152602001612a2260359139915050610aab565b60008151116119a65760405180602001604052806000815250611a60565b806119b08461200c565b6040516020018083805190602001908083835b602083106119e25780518252601f1990920191602091820191016119c3565b51815160209384036101000a600019018019909216911617905285519190930192850191508083835b60208310611a2a5780518252601f199092019160209182019101611a0b565b6001836020036101000a038019825116818451168082178552505050505050905001925050506040516020818303038152906040525b9392505050565b66d529ae9e86000081565b6001600160a01b03918216600090815260056020908152604080832093909416825291909152205460ff1690565b600d5460ff1681565b611ab1611c38565b6001600160a01b0316611ac2611643565b6001600160a01b031614611b0b576040805162461bcd60e51b81526020600482018190526024820152600080516020612ba1833981519152604482015290519081900360640190fd5b600d805461ff001981166101009182900460ff1615909102179055565b611b30611c38565b6001600160a01b0316611b41611643565b6001600160a01b031614611b8a576040805162461bcd60e51b81526020600482018190526024820152600080516020612ba1833981519152604482015290519081900360640190fd5b6001600160a01b038116611bcf5760405162461bcd60e51b81526004018080602001828103825260268152602001806129fc6026913960400191505060405180910390fd5b600a546040516001600160a01b038084169216907f8be0079c531659141344cd1fd0a4f28419497f9722a3daafe3b4186f6b6457e090600090a3600a80546001600160a01b0319166001600160a01b0392909216919091179055565b6000610f856002836120e7565b3390565b600081815260046020526040902080546001600160a01b0319166001600160a01b0384169081179091558190611c7182611356565b6001600160a01b03167f8c5be1e5ebec7d5bd14f71427d1e84f3dd0314c0f7b2291e5b200ac8c7c3b92560405160405180910390a45050565b6000610f85826120f3565b6000611cc082611c2b565b611cfb5760405162461bcd60e51b815260040180806020018281038252602c815260200180612a7b602c913960400191505060405180910390fd5b6000611d0683611356565b9050806001600160a01b0316846001600160a01b03161480611d415750836001600160a01b0316611d3684610b63565b6001600160a01b0316145b80611d515750611d518185611a72565b949350505050565b826001600160a01b0316611d6c82611356565b6001600160a01b031614611db15760405162461bcd60e51b8152600401808060200182810382526029815260200180612bc16029913960400191505060405180910390fd5b6001600160a01b038216611df65760405162461bcd60e51b8152600401808060200182810382526024815260200180612a576024913960400191505060405180910390fd5b611e01838383610c9b565b611e0c600082611c3c565b6001600160a01b0383166000908152600160205260409020611e2e90826120f7565b506001600160a01b0382166000908152600160205260409020611e519082612103565b50611e5e6002828461210f565b5080826001600160a01b0316846001600160a01b03167fddf252ad1be2c89b69c2b068fc378daa952ba7f163c4a11628f55a4df523b3ef60405160405180910390a4505050565b600082820183811015610f82576040805162461bcd60e51b815260206004820152601b60248201527f536166654d6174683a206164646974696f6e206f766572666c6f770000000000604482015290519081900360640190fd5b600082611f0e57506000610f85565b82820282848281611f1b57fe5b0414610f825760405162461bcd60e51b8152600401808060200182810382526021815260200180612b546021913960400191505060405180910390fd5b610f5c828260405180602001604052806000815250612125565b6000610f828383612177565b6000808080611f8d86866121db565b9097909650945050505050565b8051610f5c906009906020840190612906565b6000611d51848484612256565b611fc5848484611d59565b611fd184848484612320565b6118f35760405162461bcd60e51b81526004018080602001828103825260328152602001806129ca6032913960400191505060405180910390fd5b60608161203157506040805180820190915260018152600360fc1b6020820152610aab565b8160005b811561204957600101600a82049150612035565b60008167ffffffffffffffff8111801561206257600080fd5b506040519080825280601f01601f19166020018201604052801561208d576020820181803683370190505b50859350905060001982015b83156120de57600a840660300160f81b828280600190039350815181106120bc57fe5b60200101906001600160f81b031916908160001a905350600a84049350612099565b50949350505050565b6000610f828383612488565b5490565b6000610f8283836124a0565b6000610f828383612566565b6000611d5184846001600160a01b0385166125b0565b61212f8383612647565b61213c6000848484612320565b610c9b5760405162461bcd60e51b81526004018080602001828103825260328152602001806129ca6032913960400191505060405180910390fd5b815460009082106121b95760405162461bcd60e51b81526004018080602001828103825260228152602001806129a86022913960400191505060405180910390fd5b8260000182815481106121c857fe5b9060005260206000200154905092915050565b81546000908190831061221f5760405162461bcd60e51b8152600401808060200182810382526022815260200180612b326022913960400191505060405180910390fd5b600084600001848154811061223057fe5b906000526020600020906002020190508060000154816001015492509250509250929050565b600082815260018401602052604081205482816122f15760405162461bcd60e51b81526004018080602001828103825283818151815260200191508051906020019080838360005b838110156122b657818101518382015260200161229e565b50505050905090810190601f1680156122e35780820380516001836020036101000a031916815260200191505b509250505060405180910390fd5b5084600001600182038154811061230457fe5b9060005260206000209060020201600101549150509392505050565b6000612334846001600160a01b0316612775565b61234057506001611d51565b600061244e630a85bd0160e11b612355611c38565b88878760405160240180856001600160a01b03168152602001846001600160a01b0316815260200183815260200180602001828103825283818151815260200191508051906020019080838360005b838110156123bc5781810151838201526020016123a4565b50505050905090810190601f1680156123e95780820380516001836020036101000a031916815260200191505b5095505050505050604051602081830303815290604052906001600160e01b0319166020820180516001600160e01b0383818316178352505050506040518060600160405280603281526020016129ca603291396001600160a01b038816919061277b565b9050600081806020019051602081101561246757600080fd5b50516001600160e01b031916630a85bd0160e11b1492505050949350505050565b60009081526001919091016020526040902054151590565b6000818152600183016020526040812054801561255c57835460001980830191908101906000908790839081106124d357fe5b90600052602060002001549050808760000184815481106124f057fe5b60009182526020808320909101929092558281526001898101909252604090209084019055865487908061252057fe5b60019003818190600052602060002001600090559055866001016000878152602001908152602001600020600090556001945050505050610f85565b6000915050610f85565b60006125728383612488565b6125a857508154600181810184556000848152602080822090930184905584548482528286019093526040902091909155610f85565b506000610f85565b600082815260018401602052604081205480612615575050604080518082018252838152602080820184815286546001818101895560008981528481209551600290930290950191825591519082015586548684528188019092529290912055611a60565b8285600001600183038154811061262857fe5b9060005260206000209060020201600101819055506000915050611a60565b6001600160a01b0382166126a2576040805162461bcd60e51b815260206004820181905260248201527f4552433732313a206d696e7420746f20746865207a65726f2061646472657373604482015290519081900360640190fd5b6126ab81611c2b565b156126fd576040805162461bcd60e51b815260206004820152601c60248201527f4552433732313a20746f6b656e20616c7265616479206d696e74656400000000604482015290519081900360640190fd5b61270960008383610c9b565b6001600160a01b038216600090815260016020526040902061272b9082612103565b506127386002828461210f565b5060405181906001600160a01b038416906000907fddf252ad1be2c89b69c2b068fc378daa952ba7f163c4a11628f55a4df523b3ef908290a45050565b3b151590565b6060611d5184846000858561278f85612775565b6127e0576040805162461bcd60e51b815260206004820152601d60248201527f416464726573733a2063616c6c20746f206e6f6e2d636f6e7472616374000000604482015290519081900360640190fd5b600080866001600160a01b031685876040518082805190602001908083835b6020831061281e5780518252601f1990920191602091820191016127ff565b6001836020036101000a03801982511681845116808217855250505050505090500191505060006040518083038185875af1925050503d8060008114612880576040519150601f19603f3d011682016040523d82523d6000602084013e612885565b606091505b50915091506128958282866128a0565b979650505050505050565b606083156128af575081611a60565b8251156128bf5782518084602001fd5b60405162461bcd60e51b81526020600482018181528451602484015284518593919283926044019190850190808383600083156122b657818101518382015260200161229e565b828054600181600116156101000203166002900490600052602060002090601f01602090048101928261293c5760008555612982565b82601f1061295557805160ff1916838001178555612982565b82800160010185558215612982579182015b82811115612982578251825591602001919060010190612967565b5061298e929150612992565b5090565b5b8082111561298e576000815560010161299356fe456e756d657261626c655365743a20696e646578206f7574206f6620626f756e64734552433732313a207472616e7366657220746f206e6f6e20455243373231526563656976657220696d706c656d656e7465724f776e61626c653a206e6577206f776e657220697320746865207a65726f2061646472657373697066733a2f2f516d57754365484c3175616a6a4e454c4b6665483138617a5a334b5342315966665474626a614e4a715a703139664552433732313a207472616e7366657220746f20746865207a65726f20616464726573734552433732313a206f70657261746f7220717565727920666f72206e6f6e6578697374656e7420746f6b656e4552433732313a20617070726f76652063616c6c6572206973206e6f74206f776e6572206e6f7220617070726f76656420666f7220616c6c4552433732313a2062616c616e636520717565727920666f7220746865207a65726f20616464726573734552433732313a206f776e657220717565727920666f72206e6f6e6578697374656e7420746f6b656e456e756d657261626c654d61703a20696e646578206f7574206f6620626f756e6473536166654d6174683a206d756c7469706c69636174696f6e206f766572666c6f774552433732313a20617070726f76656420717565727920666f72206e6f6e6578697374656e7420746f6b656e4f776e61626c653a2063616c6c6572206973206e6f7420746865206f776e65724552433732313a207472616e73666572206f6620746f6b656e2074686174206973206e6f74206f776e4552433732313a20617070726f76616c20746f2063757272656e74206f776e65724552433732313a207472616e736665722063616c6c6572206973206e6f74206f776e6572206e6f7220617070726f766564a2646970667358221220c5ee1361da74a669ca24ad43c28e3f33d057196d11d01cf248904845ab37a32564736f6c63430007060033",
  "immutableReferences": {},
  "source": "// SPDX-License-Identifier: MIT\n\npragma solidity ^0.7.6;\n\nimport \"openzeppelin-solidity/contracts/token/ERC721/ERC721.sol\";\nimport \"openzeppelin-solidity/contracts/access/Ownable.sol\";\nimport \"openzeppelin-solidity/contracts/math/SafeMath.sol\";\n\ncontract SportSuperstars is ERC721, Ownable {\n\n    using SafeMath for uint256;\n    uint public constant GIFT_ITEMS = 70;\n    uint public constant PREADOPT_ITEMS = 700;\n    uint public constant TOTAL_ITEMS = 7777;\n    uint public constant MAX_ITEMS_PER_MINT = 10;\n    uint256 public constant itemPrice = 0.06 ether;\n    uint public giftItems = 0;\n    uint public preSaleItems = 0;\n    bool public saleIsActive = false;\n    bool public preSaleIsActive = false;\n    mapping (address => uint256) private _preSaleAddress;\n\n    constructor() ERC721(\"Sport Superstars\", \"SSS\") {\n    }\n\n    function giftSportSuperstars( address [] memory recipients ) public onlyOwner {\n        require(recipients.length + giftItems < GIFT_ITEMS + 1, \"Max gift\");\n        require(totalSupply().add(recipients.length) <= TOTAL_ITEMS, \"Max supply\");\n        uint supply = totalSupply(); \n        uint temp = 0;       \n        for( uint i ; i < recipients.length; i++ ){\n            _safeMint(recipients[i], supply + i );\n            temp += 1;\n        }\n        giftItems += temp;\n    }\n\n    function mintPreSaleSportSuperstars(uint tokens) public payable {\n        require(preSaleIsActive, \"Pre-sale not active\");\n        require(_preSaleAddress[msg.sender] > 0, \"Not allowed pre-mint\");\n        require(tokens + preSaleItems < PREADOPT_ITEMS + 1, \"Pre-sale exceed\");\n        require(tokens <= MAX_ITEMS_PER_MINT, \"Max 10 items\");\n        require(totalSupply().add(tokens) <= TOTAL_ITEMS, \"Purchase exceed\");\n        require(msg.value == itemPrice.mul(tokens), \"Ether not correct\");\n        for(uint i = 0; i < tokens; i++) {\n            uint mintIndex = totalSupply();\n            if (mintIndex < TOTAL_ITEMS && preSaleItems < PREADOPT_ITEMS + 1) {\n                _safeMint(msg.sender, mintIndex);\n                preSaleItems += 1;\n            }\n        }\n    }\n\n    function mintSportSuperstars(uint tokens) public payable {\n        require(saleIsActive, \"Sale not active\");\n        require(tokens <= MAX_ITEMS_PER_MINT, \"Max 10 items\");\n        require(totalSupply().add(tokens) <= TOTAL_ITEMS, \"Purchase exceed\");\n        require(msg.value == itemPrice.mul(tokens), \"Ether not correct\");   \n        for(uint i = 0; i < tokens; i++) {\n            uint mintIndex = totalSupply();\n            if (mintIndex < TOTAL_ITEMS) {\n                _safeMint(msg.sender, mintIndex);\n            }\n        }\n    }\n\n    function tokenURI(uint256 tokenId) public view virtual override returns (string memory) {\n        require(_exists(tokenId), \"Token doesn't exist\");\n        string memory baseURI = baseURI();\n        if( bytes(baseURI).length == 0 ){\n            return \"ipfs://QmWuCeHL1uajjNELKfeH18azZ3KSB1YffTtbjaNJqZp19f\";\n        }\n        return bytes(baseURI).length > 0 ? string(abi.encodePacked(baseURI, Strings.toString(tokenId))) : \"\";\n    }\n\n    function withdraw() public onlyOwner {\n        uint balance = address(this).balance;\n        msg.sender.transfer(balance);\n    }\n    \n    function flipSaleState() public onlyOwner {\n        saleIsActive = !saleIsActive;\n    }\n    \n    function flipPreSaleState() public onlyOwner {\n        preSaleIsActive = !preSaleIsActive;\n    }\n\n    function setPreSalesAddresses( address [] memory recipients ) public onlyOwner {   \n        for( uint i ; i < recipients.length; i++ ){\n            _preSaleAddress[recipients[i]] = 1;\n        }\n    }\n\n    function setBaseURI(string memory baseURI) public onlyOwner {\n        _setBaseURI(baseURI);\n    }\n\n    function isAddressAllowedForPreSale(address recipient ) public view returns( bool ) {   \n        return _preSaleAddress[recipient] > 0;\n    }\n\n    function reserveItems(uint numberOfTokens) public onlyOwner {        \n        require(totalSupply().add(numberOfTokens) <= TOTAL_ITEMS, \"Exceed max supply\");\n        uint supply = totalSupply();\n        for (uint i = 0; i < numberOfTokens; i++) {\n            _safeMint(msg.sender, supply + i);\n        }\n    }\n\n\n}",
  "sourcePath": "/home/raelix/dev/projects/sport-superstars/contracts/SportSuperstars.sol",
  "compiler": {
    "name": "solc",
    "version": "0.7.6+commit.7338295f.Emscripten.clang"
  },
  "schemaVersion": "3.4.4",
  "updatedAt": "2022-01-08T15:53:55.244Z",
  "networkType": "ethereum",
  "devdoc": {
    "kind": "dev",
    "methods": {
      "approve(address,uint256)": {
        "details": "See {IERC721-approve}."
      },
      "balanceOf(address)": {
        "details": "See {IERC721-balanceOf}."
      },
      "baseURI()": {
        "details": "Returns the base URI set via {_setBaseURI}. This will be automatically added as a prefix in {tokenURI} to each token's URI, or to the token ID if no specific URI is set for that token ID."
      },
      "getApproved(uint256)": {
        "details": "See {IERC721-getApproved}."
      },
      "isApprovedForAll(address,address)": {
        "details": "See {IERC721-isApprovedForAll}."
      },
      "name()": {
        "details": "See {IERC721Metadata-name}."
      },
      "owner()": {
        "details": "Returns the address of the current owner."
      },
      "ownerOf(uint256)": {
        "details": "See {IERC721-ownerOf}."
      },
      "renounceOwnership()": {
        "details": "Leaves the contract without owner. It will not be possible to call `onlyOwner` functions anymore. Can only be called by the current owner. NOTE: Renouncing ownership will leave the contract without an owner, thereby removing any functionality that is only available to the owner."
      },
      "safeTransferFrom(address,address,uint256)": {
        "details": "See {IERC721-safeTransferFrom}."
      },
      "safeTransferFrom(address,address,uint256,bytes)": {
        "details": "See {IERC721-safeTransferFrom}."
      },
      "setApprovalForAll(address,bool)": {
        "details": "See {IERC721-setApprovalForAll}."
      },
      "supportsInterface(bytes4)": {
        "details": "See {IERC165-supportsInterface}. Time complexity O(1), guaranteed to always use less than 30 000 gas."
      },
      "symbol()": {
        "details": "See {IERC721Metadata-symbol}."
      },
      "tokenByIndex(uint256)": {
        "details": "See {IERC721Enumerable-tokenByIndex}."
      },
      "tokenOfOwnerByIndex(address,uint256)": {
        "details": "See {IERC721Enumerable-tokenOfOwnerByIndex}."
      },
      "tokenURI(uint256)": {
        "details": "See {IERC721Metadata-tokenURI}."
      },
      "totalSupply()": {
        "details": "See {IERC721Enumerable-totalSupply}."
      },
      "transferFrom(address,address,uint256)": {
        "details": "See {IERC721-transferFrom}."
      },
      "transferOwnership(address)": {
        "details": "Transfers ownership of the contract to a new account (`newOwner`). Can only be called by the current owner."
      }
    },
    "version": 1
  },
  "userdoc": {
    "kind": "user",
    "methods": {},
    "version": 1
  }
}