{
  "contractName": "SportLegends",
  "abi": [
    {
      "inputs": [],
      "stateMutability": "nonpayable",
      "type": "constructor"
    },
    {
      "anonymous": false,
      "inputs": [
        {
          "indexed": true,
          "internalType": "address",
          "name": "owner",
          "type": "address"
        },
        {
          "indexed": true,
          "internalType": "address",
          "name": "approved",
          "type": "address"
        },
        {
          "indexed": true,
          "internalType": "uint256",
          "name": "tokenId",
          "type": "uint256"
        }
      ],
      "name": "Approval",
      "type": "event"
    },
    {
      "anonymous": false,
      "inputs": [
        {
          "indexed": true,
          "internalType": "address",
          "name": "owner",
          "type": "address"
        },
        {
          "indexed": true,
          "internalType": "address",
          "name": "operator",
          "type": "address"
        },
        {
          "indexed": false,
          "internalType": "bool",
          "name": "approved",
          "type": "bool"
        }
      ],
      "name": "ApprovalForAll",
      "type": "event"
    },
    {
      "anonymous": false,
      "inputs": [
        {
          "indexed": true,
          "internalType": "address",
          "name": "previousOwner",
          "type": "address"
        },
        {
          "indexed": true,
          "internalType": "address",
          "name": "newOwner",
          "type": "address"
        }
      ],
      "name": "OwnershipTransferred",
      "type": "event"
    },
    {
      "anonymous": false,
      "inputs": [
        {
          "indexed": false,
          "internalType": "address",
          "name": "_to",
          "type": "address"
        },
        {
          "indexed": false,
          "internalType": "uint256",
          "name": "_value",
          "type": "uint256"
        }
      ],
      "name": "Transfer",
      "type": "event"
    },
    {
      "anonymous": false,
      "inputs": [
        {
          "indexed": true,
          "internalType": "address",
          "name": "from",
          "type": "address"
        },
        {
          "indexed": true,
          "internalType": "address",
          "name": "to",
          "type": "address"
        },
        {
          "indexed": true,
          "internalType": "uint256",
          "name": "tokenId",
          "type": "uint256"
        }
      ],
      "name": "Transfer",
      "type": "event"
    },
    {
      "inputs": [],
      "name": "ADOPT_ITEMS",
      "outputs": [
        {
          "internalType": "uint64",
          "name": "",
          "type": "uint64"
        }
      ],
      "stateMutability": "view",
      "type": "function",
      "constant": true
    },
    {
      "inputs": [],
      "name": "GIFT_ITEMS",
      "outputs": [
        {
          "internalType": "uint64",
          "name": "",
          "type": "uint64"
        }
      ],
      "stateMutability": "view",
      "type": "function",
      "constant": true
    },
    {
      "inputs": [],
      "name": "MAX_ITEMS_PER_MINT",
      "outputs": [
        {
          "internalType": "uint128",
          "name": "",
          "type": "uint128"
        }
      ],
      "stateMutability": "view",
      "type": "function",
      "constant": true
    },
    {
      "inputs": [],
      "name": "RESERVED_ITEMS",
      "outputs": [
        {
          "internalType": "uint64",
          "name": "",
          "type": "uint64"
        }
      ],
      "stateMutability": "view",
      "type": "function",
      "constant": true
    },
    {
      "inputs": [],
      "name": "TOTAL_ITEMS",
      "outputs": [
        {
          "internalType": "uint64",
          "name": "",
          "type": "uint64"
        }
      ],
      "stateMutability": "view",
      "type": "function",
      "constant": true
    },
    {
      "inputs": [
        {
          "internalType": "address",
          "name": "to",
          "type": "address"
        },
        {
          "internalType": "uint256",
          "name": "tokenId",
          "type": "uint256"
        }
      ],
      "name": "approve",
      "outputs": [],
      "stateMutability": "nonpayable",
      "type": "function"
    },
    {
      "inputs": [
        {
          "internalType": "address",
          "name": "owner",
          "type": "address"
        }
      ],
      "name": "balanceOf",
      "outputs": [
        {
          "internalType": "uint256",
          "name": "",
          "type": "uint256"
        }
      ],
      "stateMutability": "view",
      "type": "function",
      "constant": true
    },
    {
      "inputs": [],
      "name": "baseURI",
      "outputs": [
        {
          "internalType": "string",
          "name": "",
          "type": "string"
        }
      ],
      "stateMutability": "view",
      "type": "function",
      "constant": true
    },
    {
      "inputs": [
        {
          "internalType": "uint256",
          "name": "tokenId",
          "type": "uint256"
        }
      ],
      "name": "getApproved",
      "outputs": [
        {
          "internalType": "address",
          "name": "",
          "type": "address"
        }
      ],
      "stateMutability": "view",
      "type": "function",
      "constant": true
    },
    {
      "inputs": [
        {
          "internalType": "address",
          "name": "owner",
          "type": "address"
        },
        {
          "internalType": "address",
          "name": "operator",
          "type": "address"
        }
      ],
      "name": "isApprovedForAll",
      "outputs": [
        {
          "internalType": "bool",
          "name": "",
          "type": "bool"
        }
      ],
      "stateMutability": "view",
      "type": "function",
      "constant": true
    },
    {
      "inputs": [],
      "name": "itemPrice",
      "outputs": [
        {
          "internalType": "uint256",
          "name": "",
          "type": "uint256"
        }
      ],
      "stateMutability": "view",
      "type": "function",
      "constant": true
    },
    {
      "inputs": [],
      "name": "name",
      "outputs": [
        {
          "internalType": "string",
          "name": "",
          "type": "string"
        }
      ],
      "stateMutability": "view",
      "type": "function",
      "constant": true
    },
    {
      "inputs": [],
      "name": "owner",
      "outputs": [
        {
          "internalType": "address",
          "name": "",
          "type": "address"
        }
      ],
      "stateMutability": "view",
      "type": "function",
      "constant": true
    },
    {
      "inputs": [
        {
          "internalType": "uint256",
          "name": "tokenId",
          "type": "uint256"
        }
      ],
      "name": "ownerOf",
      "outputs": [
        {
          "internalType": "address",
          "name": "",
          "type": "address"
        }
      ],
      "stateMutability": "view",
      "type": "function",
      "constant": true
    },
    {
      "inputs": [],
      "name": "renounceOwnership",
      "outputs": [],
      "stateMutability": "nonpayable",
      "type": "function"
    },
    {
      "inputs": [
        {
          "internalType": "address",
          "name": "from",
          "type": "address"
        },
        {
          "internalType": "address",
          "name": "to",
          "type": "address"
        },
        {
          "internalType": "uint256",
          "name": "tokenId",
          "type": "uint256"
        }
      ],
      "name": "safeTransferFrom",
      "outputs": [],
      "stateMutability": "nonpayable",
      "type": "function"
    },
    {
      "inputs": [
        {
          "internalType": "address",
          "name": "from",
          "type": "address"
        },
        {
          "internalType": "address",
          "name": "to",
          "type": "address"
        },
        {
          "internalType": "uint256",
          "name": "tokenId",
          "type": "uint256"
        },
        {
          "internalType": "bytes",
          "name": "_data",
          "type": "bytes"
        }
      ],
      "name": "safeTransferFrom",
      "outputs": [],
      "stateMutability": "nonpayable",
      "type": "function"
    },
    {
      "inputs": [],
      "name": "saleIsActive",
      "outputs": [
        {
          "internalType": "bool",
          "name": "",
          "type": "bool"
        }
      ],
      "stateMutability": "view",
      "type": "function",
      "constant": true
    },
    {
      "inputs": [
        {
          "internalType": "address",
          "name": "operator",
          "type": "address"
        },
        {
          "internalType": "bool",
          "name": "approved",
          "type": "bool"
        }
      ],
      "name": "setApprovalForAll",
      "outputs": [],
      "stateMutability": "nonpayable",
      "type": "function"
    },
    {
      "inputs": [
        {
          "internalType": "bytes4",
          "name": "interfaceId",
          "type": "bytes4"
        }
      ],
      "name": "supportsInterface",
      "outputs": [
        {
          "internalType": "bool",
          "name": "",
          "type": "bool"
        }
      ],
      "stateMutability": "view",
      "type": "function",
      "constant": true
    },
    {
      "inputs": [],
      "name": "symbol",
      "outputs": [
        {
          "internalType": "string",
          "name": "",
          "type": "string"
        }
      ],
      "stateMutability": "view",
      "type": "function",
      "constant": true
    },
    {
      "inputs": [
        {
          "internalType": "uint256",
          "name": "index",
          "type": "uint256"
        }
      ],
      "name": "tokenByIndex",
      "outputs": [
        {
          "internalType": "uint256",
          "name": "",
          "type": "uint256"
        }
      ],
      "stateMutability": "view",
      "type": "function",
      "constant": true
    },
    {
      "inputs": [
        {
          "internalType": "address",
          "name": "owner",
          "type": "address"
        },
        {
          "internalType": "uint256",
          "name": "index",
          "type": "uint256"
        }
      ],
      "name": "tokenOfOwnerByIndex",
      "outputs": [
        {
          "internalType": "uint256",
          "name": "",
          "type": "uint256"
        }
      ],
      "stateMutability": "view",
      "type": "function",
      "constant": true
    },
    {
      "inputs": [],
      "name": "totalSupply",
      "outputs": [
        {
          "internalType": "uint256",
          "name": "",
          "type": "uint256"
        }
      ],
      "stateMutability": "view",
      "type": "function",
      "constant": true
    },
    {
      "inputs": [
        {
          "internalType": "address",
          "name": "from",
          "type": "address"
        },
        {
          "internalType": "address",
          "name": "to",
          "type": "address"
        },
        {
          "internalType": "uint256",
          "name": "tokenId",
          "type": "uint256"
        }
      ],
      "name": "transferFrom",
      "outputs": [],
      "stateMutability": "nonpayable",
      "type": "function"
    },
    {
      "inputs": [
        {
          "internalType": "address",
          "name": "newOwner",
          "type": "address"
        }
      ],
      "name": "transferOwnership",
      "outputs": [],
      "stateMutability": "nonpayable",
      "type": "function"
    },
    {
      "inputs": [],
      "name": "withdraw",
      "outputs": [],
      "stateMutability": "nonpayable",
      "type": "function"
    },
    {
      "inputs": [],
      "name": "flipSaleState",
      "outputs": [],
      "stateMutability": "nonpayable",
      "type": "function"
    },
    {
      "inputs": [
        {
          "internalType": "string",
          "name": "baseURI",
          "type": "string"
        }
      ],
      "name": "setBaseURI",
      "outputs": [],
      "stateMutability": "nonpayable",
      "type": "function"
    },
    {
      "inputs": [
        {
          "internalType": "uint256",
          "name": "tokenId",
          "type": "uint256"
        },
        {
          "internalType": "string",
          "name": "_tokenURI",
          "type": "string"
        }
      ],
      "name": "setTokenURI",
      "outputs": [],
      "stateMutability": "nonpayable",
      "type": "function"
    },
    {
      "inputs": [],
      "name": "getGiftItems",
      "outputs": [
        {
          "internalType": "uint256",
          "name": "",
          "type": "uint256"
        }
      ],
      "stateMutability": "view",
      "type": "function",
      "constant": true
    },
    {
      "inputs": [],
      "name": "reserveItems",
      "outputs": [],
      "stateMutability": "nonpayable",
      "type": "function"
    },
    {
      "inputs": [
        {
          "internalType": "address[]",
          "name": "recipients",
          "type": "address[]"
        }
      ],
      "name": "giftSportLegends",
      "outputs": [],
      "stateMutability": "nonpayable",
      "type": "function"
    },
    {
      "inputs": [
        {
          "internalType": "uint256",
          "name": "numberOfTokens",
          "type": "uint256"
        }
      ],
      "name": "mintSportLegends",
      "outputs": [],
      "stateMutability": "payable",
      "type": "function",
      "payable": true
    },
    {
      "inputs": [
        {
          "internalType": "uint256",
          "name": "tokenId",
          "type": "uint256"
        }
      ],
      "name": "tokenURI",
      "outputs": [
        {
          "internalType": "string",
          "name": "",
          "type": "string"
        }
      ],
      "stateMutability": "view",
      "type": "function",
      "constant": true
    }
  ],
  "bytecode": "0x60806040526000600b556000600c60006101000a81548160ff0219169083151502179055503480156200003157600080fd5b506040518060400160405280600c81526020017f53706f72744c6567656e647300000000000000000000000000000000000000008152506040518060400160405280600381526020017f53504c0000000000000000000000000000000000000000000000000000000000815250620000b66301ffc9a760e01b620001e960201b60201c565b8160069080519060200190620000ce929190620002fa565b508060079080519060200190620000e7929190620002fa565b50620001006380ac58cd60e01b620001e960201b60201c565b62000118635b5e139f60e01b620001e960201b60201c565b6200013063780e9d6360e01b620001e960201b60201c565b5050600062000144620002f260201b60201c565b905080600a60006101000a81548173ffffffffffffffffffffffffffffffffffffffff021916908373ffffffffffffffffffffffffffffffffffffffff1602179055508073ffffffffffffffffffffffffffffffffffffffff16600073ffffffffffffffffffffffffffffffffffffffff167f8be0079c531659141344cd1fd0a4f28419497f9722a3daafe3b4186f6b6457e060405160405180910390a350620003b0565b63ffffffff60e01b817bffffffffffffffffffffffffffffffffffffffffffffffffffffffff1916141562000286576040517f08c379a000000000000000000000000000000000000000000000000000000000815260040180806020018281038252601c8152602001807f4552433136353a20696e76616c696420696e746572666163652069640000000081525060200191505060405180910390fd5b6001600080837bffffffffffffffffffffffffffffffffffffffffffffffffffffffff19167bffffffffffffffffffffffffffffffffffffffffffffffffffffffff1916815260200190815260200160002060006101000a81548160ff02191690831515021790555050565b600033905090565b828054600181600116156101000203166002900490600052602060002090601f0160209004810192826200033257600085556200037e565b82601f106200034d57805160ff19168380011785556200037e565b828001600101855582156200037e579182015b828111156200037d57825182559160200191906001019062000360565b5b5090506200038d919062000391565b5090565b5b80821115620003ac57600081600090555060010162000392565b5090565b61402d80620003c06000396000f3fe6080604052600436106102045760003560e01c80634f6ccce711610118578063a22cb465116100a0578063c87b56dd1161006f578063c87b56dd14610d67578063dac6db1c14610e1b578063e985e9c514610e46578063eb8d244414610ecd578063f2fde38b14610efa57610204565b8063a22cb46514610b95578063a46b3b0814610bf2578063b88d4fde14610c20578063c4741fdd14610d3257610204565b806370a08231116100e757806370a0823114610a13578063715018a614610a78578063820fea3e14610a8f5780638da5cb5b14610ac457806395d89b4114610b0557610204565b80634f6ccce71461080757806355f804b3146108565780636352211e1461091e5780636c0360eb1461098357610204565b80631ae5c6ba1161019b5780633051484e1161016a5780633051484e146106f4578063334894e71461072957806334918dfd1461075e5780633ccfd60b1461077557806342842e0e1461078c57610204565b80631ae5c6ba1461051a5780631dac7cf2146105df57806323b872dd1461060a5780632f745c591461068557610204565b80630ee7487e116101d75780630ee7487e146103c95780630f258b0514610406578063162094c41461041d57806318160ddd146104ef57610204565b806301ffc9a71461020957806306fdde0314610279578063081812fc14610309578063095ea7b31461036e575b600080fd5b34801561021557600080fd5b506102616004803603602081101561022c57600080fd5b8101908080357bffffffffffffffffffffffffffffffffffffffffffffffffffffffff19169060200190929190505050610f4b565b60405180821515815260200191505060405180910390f35b34801561028557600080fd5b5061028e610fb2565b6040518080602001828103825283818151815260200191508051906020019080838360005b838110156102ce5780820151818401526020810190506102b3565b50505050905090810190601f1680156102fb5780820380516001836020036101000a031916815260200191505b509250505060405180910390f35b34801561031557600080fd5b506103426004803603602081101561032c57600080fd5b8101908080359060200190929190505050611054565b604051808273ffffffffffffffffffffffffffffffffffffffff16815260200191505060405180910390f35b34801561037a57600080fd5b506103c76004803603604081101561039157600080fd5b81019080803573ffffffffffffffffffffffffffffffffffffffff169060200190929190803590602001909291905050506110ef565b005b3480156103d557600080fd5b506103de611233565b60405180826fffffffffffffffffffffffffffffffff16815260200191505060405180910390f35b34801561041257600080fd5b5061041b611238565b005b34801561042957600080fd5b506104ed6004803603604081101561044057600080fd5b81019080803590602001909291908035906020019064010000000081111561046757600080fd5b82018360208201111561047957600080fd5b8035906020019184600183028401116401000000008311171561049b57600080fd5b91908080601f016020809104026020016040519081016040528093929190818152602001838380828437600081840152601f19601f8201169050808301925050505050505091929192905050506113b5565b005b3480156104fb57600080fd5b50610504611472565b6040518082815260200191505060405180910390f35b34801561052657600080fd5b506105dd6004803603602081101561053d57600080fd5b810190808035906020019064010000000081111561055a57600080fd5b82018360208201111561056c57600080fd5b8035906020019184602083028401116401000000008311171561058e57600080fd5b919080806020026020016040519081016040528093929190818152602001838360200280828437600081840152601f19601f820116905080830192505050505050509192919290505050611483565b005b3480156105eb57600080fd5b506105f4611699565b6040518082815260200191505060405180910390f35b34801561061657600080fd5b506106836004803603606081101561062d57600080fd5b81019080803573ffffffffffffffffffffffffffffffffffffffff169060200190929190803573ffffffffffffffffffffffffffffffffffffffff169060200190929190803590602001909291905050506116a3565b005b34801561069157600080fd5b506106de600480360360408110156106a857600080fd5b81019080803573ffffffffffffffffffffffffffffffffffffffff16906020019092919080359060200190929190505050611719565b6040518082815260200191505060405180910390f35b34801561070057600080fd5b50610709611774565b604051808267ffffffffffffffff16815260200191505060405180910390f35b34801561073557600080fd5b5061073e611779565b604051808267ffffffffffffffff16815260200191505060405180910390f35b34801561076a57600080fd5b5061077361177e565b005b34801561078157600080fd5b5061078a611859565b005b34801561079857600080fd5b50610805600480360360608110156107af57600080fd5b81019080803573ffffffffffffffffffffffffffffffffffffffff169060200190929190803573ffffffffffffffffffffffffffffffffffffffff169060200190929190803590602001909291905050506119ac565b005b34801561081357600080fd5b506108406004803603602081101561082a57600080fd5b81019080803590602001909291905050506119cc565b6040518082815260200191505060405180910390f35b34801561086257600080fd5b5061091c6004803603602081101561087957600080fd5b810190808035906020019064010000000081111561089657600080fd5b8201836020820111156108a857600080fd5b803590602001918460018302840111640100000000831117156108ca57600080fd5b91908080601f016020809104026020016040519081016040528093929190818152602001838380828437600081840152601f19601f8201169050808301925050505050505091929192905050506119ef565b005b34801561092a57600080fd5b506109576004803603602081101561094157600080fd5b8101908080359060200190929190505050611aaa565b604051808273ffffffffffffffffffffffffffffffffffffffff16815260200191505060405180910390f35b34801561098f57600080fd5b50610998611ae1565b6040518080602001828103825283818151815260200191508051906020019080838360005b838110156109d85780820151818401526020810190506109bd565b50505050905090810190601f168015610a055780820380516001836020036101000a031916815260200191505b509250505060405180910390f35b348015610a1f57600080fd5b50610a6260048036036020811015610a3657600080fd5b81019080803573ffffffffffffffffffffffffffffffffffffffff169060200190929190505050611b83565b6040518082815260200191505060405180910390f35b348015610a8457600080fd5b50610a8d611c58565b005b348015610a9b57600080fd5b50610aa4611dc8565b604051808267ffffffffffffffff16815260200191505060405180910390f35b348015610ad057600080fd5b50610ad9611dce565b604051808273ffffffffffffffffffffffffffffffffffffffff16815260200191505060405180910390f35b348015610b1157600080fd5b50610b1a611df8565b6040518080602001828103825283818151815260200191508051906020019080838360005b83811015610b5a578082015181840152602081019050610b3f565b50505050905090810190601f168015610b875780820380516001836020036101000a031916815260200191505b509250505060405180910390f35b348015610ba157600080fd5b50610bf060048036036040811015610bb857600080fd5b81019080803573ffffffffffffffffffffffffffffffffffffffff169060200190929190803515159060200190929190505050611e9a565b005b610c1e60048036036020811015610c0857600080fd5b8101908080359060200190929190505050612050565b005b348015610c2c57600080fd5b50610d3060048036036080811015610c4357600080fd5b81019080803573ffffffffffffffffffffffffffffffffffffffff169060200190929190803573ffffffffffffffffffffffffffffffffffffffff1690602001909291908035906020019092919080359060200190640100000000811115610caa57600080fd5b820183602082011115610cbc57600080fd5b80359060200191846001830284011164010000000083111715610cde57600080fd5b91908080601f016020809104026020016040519081016040528093929190818152602001838380828437600081840152601f19601f8201169050808301925050505050505091929192905050506122df565b005b348015610d3e57600080fd5b50610d47612357565b604051808267ffffffffffffffff16815260200191505060405180910390f35b348015610d7357600080fd5b50610da060048036036020811015610d8a57600080fd5b8101908080359060200190929190505050612363565b6040518080602001828103825283818151815260200191508051906020019080838360005b83811015610de0578082015181840152602081019050610dc5565b50505050905090810190601f168015610e0d5780820380516001836020036101000a031916815260200191505b509250505060405180910390f35b348015610e2757600080fd5b50610e306124e8565b6040518082815260200191505060405180910390f35b348015610e5257600080fd5b50610eb560048036036040811015610e6957600080fd5b81019080803573ffffffffffffffffffffffffffffffffffffffff169060200190929190803573ffffffffffffffffffffffffffffffffffffffff1690602001909291905050506124f3565b60405180821515815260200191505060405180910390f35b348015610ed957600080fd5b50610ee2612587565b60405180821515815260200191505060405180910390f35b348015610f0657600080fd5b50610f4960048036036020811015610f1d57600080fd5b81019080803573ffffffffffffffffffffffffffffffffffffffff16906020019092919050505061259a565b005b6000806000837bffffffffffffffffffffffffffffffffffffffffffffffffffffffff19167bffffffffffffffffffffffffffffffffffffffffffffffffffffffff1916815260200190815260200160002060009054906101000a900460ff169050919050565b606060068054600181600116156101000203166002900480601f01602080910402602001604051908101604052809291908181526020018280546001816001161561010002031660029004801561104a5780601f1061101f5761010080835404028352916020019161104a565b820191906000526020600020905b81548152906001019060200180831161102d57829003601f168201915b5050505050905090565b600061105f8261278f565b6110b4576040517f08c379a000000000000000000000000000000000000000000000000000000000815260040180806020018281038252602c815260200180613ed0602c913960400191505060405180910390fd5b6004600083815260200190815260200160002060009054906101000a900473ffffffffffffffffffffffffffffffffffffffff169050919050565b60006110fa82611aaa565b90508073ffffffffffffffffffffffffffffffffffffffff168373ffffffffffffffffffffffffffffffffffffffff161415611181576040517f08c379a0000000000000000000000000000000000000000000000000000000008152600401808060200182810382526021815260200180613f806021913960400191505060405180910390fd5b8073ffffffffffffffffffffffffffffffffffffffff166111a06127ac565b73ffffffffffffffffffffffffffffffffffffffff1614806111cf57506111ce816111c96127ac565b6124f3565b5b611224576040517f08c379a0000000000000000000000000000000000000000000000000000000008152600401808060200182810382526038815260200180613e026038913960400191505060405180910390fd5b61122e83836127b4565b505050565b600a81565b6112406127ac565b73ffffffffffffffffffffffffffffffffffffffff1661125e611dce565b73ffffffffffffffffffffffffffffffffffffffff16146112e7576040517f08c379a00000000000000000000000000000000000000000000000000000000081526004018080602001828103825260208152602001807f4f776e61626c653a2063616c6c6572206973206e6f7420746865206f776e657281525060200191505060405180910390fd5b601b6032611e14010167ffffffffffffffff1661131f601b67ffffffffffffffff16611311611472565b61286d90919063ffffffff16565b1115611376576040517f08c379a0000000000000000000000000000000000000000000000000000000008152600401808060200182810382526026815260200180613fd26026913960400191505060405180910390fd5b6000611380611472565b905060005b601b67ffffffffffffffff168110156113b1576113a4338284016128f5565b8080600101915050611385565b5050565b6113bd6127ac565b73ffffffffffffffffffffffffffffffffffffffff166113db611dce565b73ffffffffffffffffffffffffffffffffffffffff1614611464576040517f08c379a00000000000000000000000000000000000000000000000000000000081526004018080602001828103825260208152602001807f4f776e61626c653a2063616c6c6572206973206e6f7420746865206f776e657281525060200191505060405180910390fd5b61146e8282612913565b5050565b600061147e600261299d565b905090565b61148b6127ac565b73ffffffffffffffffffffffffffffffffffffffff166114a9611dce565b73ffffffffffffffffffffffffffffffffffffffff1614611532576040517f08c379a00000000000000000000000000000000000000000000000000000000081526004018080602001828103825260208152602001807f4f776e61626c653a2063616c6c6572206973206e6f7420746865206f776e657281525060200191505060405180910390fd5b600160320167ffffffffffffffff16600b54825101106115ba576040517f08c379a000000000000000000000000000000000000000000000000000000000815260040180806020018281038252601d8152602001807f43616e27742067696674206d6f7265207468616e203530206974656d7300000081525060200191505060405180910390fd5b601b6032611e14010167ffffffffffffffff166115e882516115da611472565b61286d90919063ffffffff16565b111561163f576040517f08c379a0000000000000000000000000000000000000000000000000000000008152600401808060200182810382526022815260200180613d8e6022913960400191505060405180910390fd5b6000611649611472565b905060005b82518110156116945761167683828151811061166657fe5b60200260200101518284016128f5565b6001600b60008282540192505081905550808060010191505061164e565b505050565b6000600b54905090565b6116b46116ae6127ac565b826129b2565b611709576040517f08c379a0000000000000000000000000000000000000000000000000000000008152600401808060200182810382526031815260200180613fa16031913960400191505060405180910390fd5b611714838383612aa6565b505050565b600061176c82600160008673ffffffffffffffffffffffffffffffffffffffff1673ffffffffffffffffffffffffffffffffffffffff168152602001908152602001600020612ce990919063ffffffff16565b905092915050565b601b81565b603281565b6117866127ac565b73ffffffffffffffffffffffffffffffffffffffff166117a4611dce565b73ffffffffffffffffffffffffffffffffffffffff161461182d576040517f08c379a00000000000000000000000000000000000000000000000000000000081526004018080602001828103825260208152602001807f4f776e61626c653a2063616c6c6572206973206e6f7420746865206f776e657281525060200191505060405180910390fd5b600c60009054906101000a900460ff1615600c60006101000a81548160ff021916908315150217905550565b6118616127ac565b73ffffffffffffffffffffffffffffffffffffffff1661187f611dce565b73ffffffffffffffffffffffffffffffffffffffff1614611908576040517f08c379a00000000000000000000000000000000000000000000000000000000081526004018080602001828103825260208152602001807f4f776e61626c653a2063616c6c6572206973206e6f7420746865206f776e657281525060200191505060405180910390fd5b60004790503373ffffffffffffffffffffffffffffffffffffffff166108fc829081150290604051600060405180830381858888f19350505050158015611953573d6000803e3d6000fd5b507f69ca02dd4edd7bf0a4abb9ed3b7af3f14778db5d61921c7dc7cd545266326de23382604051808373ffffffffffffffffffffffffffffffffffffffff1681526020018281526020019250505060405180910390a150565b6119c7838383604051806020016040528060008152506122df565b505050565b6000806119e3836002612d0390919063ffffffff16565b50905080915050919050565b6119f76127ac565b73ffffffffffffffffffffffffffffffffffffffff16611a15611dce565b73ffffffffffffffffffffffffffffffffffffffff1614611a9e576040517f08c379a00000000000000000000000000000000000000000000000000000000081526004018080602001828103825260208152602001807f4f776e61626c653a2063616c6c6572206973206e6f7420746865206f776e657281525060200191505060405180910390fd5b611aa781612d2f565b50565b6000611ada82604051806060016040528060298152602001613e64602991396002612d499092919063ffffffff16565b9050919050565b606060098054600181600116156101000203166002900480601f016020809104026020016040519081016040528092919081815260200182805460018160011615610100020316600290048015611b795780601f10611b4e57610100808354040283529160200191611b79565b820191906000526020600020905b815481529060010190602001808311611b5c57829003601f168201915b5050505050905090565b60008073ffffffffffffffffffffffffffffffffffffffff168273ffffffffffffffffffffffffffffffffffffffff161415611c0a576040517f08c379a000000000000000000000000000000000000000000000000000000000815260040180806020018281038252602a815260200180613e3a602a913960400191505060405180910390fd5b611c51600160008473ffffffffffffffffffffffffffffffffffffffff1673ffffffffffffffffffffffffffffffffffffffff168152602001908152602001600020612d68565b9050919050565b611c606127ac565b73ffffffffffffffffffffffffffffffffffffffff16611c7e611dce565b73ffffffffffffffffffffffffffffffffffffffff1614611d07576040517f08c379a00000000000000000000000000000000000000000000000000000000081526004018080602001828103825260208152602001807f4f776e61626c653a2063616c6c6572206973206e6f7420746865206f776e657281525060200191505060405180910390fd5b600073ffffffffffffffffffffffffffffffffffffffff16600a60009054906101000a900473ffffffffffffffffffffffffffffffffffffffff1673ffffffffffffffffffffffffffffffffffffffff167f8be0079c531659141344cd1fd0a4f28419497f9722a3daafe3b4186f6b6457e060405160405180910390a36000600a60006101000a81548173ffffffffffffffffffffffffffffffffffffffff021916908373ffffffffffffffffffffffffffffffffffffffff160217905550565b611e1481565b6000600a60009054906101000a900473ffffffffffffffffffffffffffffffffffffffff16905090565b606060078054600181600116156101000203166002900480601f016020809104026020016040519081016040528092919081815260200182805460018160011615610100020316600290048015611e905780601f10611e6557610100808354040283529160200191611e90565b820191906000526020600020905b815481529060010190602001808311611e7357829003601f168201915b5050505050905090565b611ea26127ac565b73ffffffffffffffffffffffffffffffffffffffff168273ffffffffffffffffffffffffffffffffffffffff161415611f43576040517f08c379a00000000000000000000000000000000000000000000000000000000081526004018080602001828103825260198152602001807f4552433732313a20617070726f766520746f2063616c6c65720000000000000081525060200191505060405180910390fd5b8060056000611f506127ac565b73ffffffffffffffffffffffffffffffffffffffff1673ffffffffffffffffffffffffffffffffffffffff16815260200190815260200160002060008473ffffffffffffffffffffffffffffffffffffffff1673ffffffffffffffffffffffffffffffffffffffff16815260200190815260200160002060006101000a81548160ff0219169083151502179055508173ffffffffffffffffffffffffffffffffffffffff16611ffd6127ac565b73ffffffffffffffffffffffffffffffffffffffff167f17307eab39ab6107e8899845ad3d59bd9653f200f220920489ca2b5937696c318360405180821515815260200191505060405180910390a35050565b600c60009054906101000a900460ff166120d2576040517f08c379a000000000000000000000000000000000000000000000000000000000815260040180806020018281038252601b8152602001807f53616c65206d7573742062652061637469766520746f206d696e74000000000081525060200191505060405180910390fd5b600a6fffffffffffffffffffffffffffffffff1681111561215b576040517f08c379a000000000000000000000000000000000000000000000000000000000815260040180806020018281038252601d8152602001807f43616e2774206d696e74206d6f7265207468616e203130206974656d7300000081525060200191505060405180910390fd5b601b6032611e14010167ffffffffffffffff166121888261217a611472565b61286d90919063ffffffff16565b11156121fc576040517f08c379a00000000000000000000000000000000000000000000000000000000081526004018080602001828103825260208152602001807f507572636861736520776f756c6420657863656564206d617820737570706c7981525060200191505060405180910390fd5b6122168166b1a2bc2ec50000612d7d90919063ffffffff16565b341461228a576040517f08c379a000000000000000000000000000000000000000000000000000000000815260040180806020018281038252601f8152602001807f45746865722076616c75652073656e74206973206e6f7420636f72726563740081525060200191505060405180910390fd5b60005b818110156122db57600061229f611472565b9050601b6032611e14010167ffffffffffffffff166122bc611472565b10156122cd576122cc33826128f5565b5b50808060010191505061228d565b5050565b6122f06122ea6127ac565b836129b2565b612345576040517f08c379a0000000000000000000000000000000000000000000000000000000008152600401808060200182810382526031815260200180613fa16031913960400191505060405180910390fd5b61235184848484612e03565b50505050565b601b6032611e14010181565b606061236e8261278f565b6123c3576040517f08c379a000000000000000000000000000000000000000000000000000000000815260040180806020018281038252602f815260200180613f51602f913960400191505060405180910390fd5b60006123cd611ae1565b90506000815114156123fa57604051806060016040528060358152602001613d35603591399150506124e3565b600081511161241857604051806020016040528060008152506124df565b8061242284612e75565b6040516020018083805190602001908083835b602083106124585780518252602082019150602081019050602083039250612435565b6001836020036101000a03801982511681845116808217855250505050505090500182805190602001908083835b602083106124a95780518252602082019150602081019050602083039250612486565b6001836020036101000a038019825116818451168082178552505050505050905001925050506040516020818303038152906040525b9150505b919050565b66b1a2bc2ec5000081565b6000600560008473ffffffffffffffffffffffffffffffffffffffff1673ffffffffffffffffffffffffffffffffffffffff16815260200190815260200160002060008373ffffffffffffffffffffffffffffffffffffffff1673ffffffffffffffffffffffffffffffffffffffff16815260200190815260200160002060009054906101000a900460ff16905092915050565b600c60009054906101000a900460ff1681565b6125a26127ac565b73ffffffffffffffffffffffffffffffffffffffff166125c0611dce565b73ffffffffffffffffffffffffffffffffffffffff1614612649576040517f08c379a00000000000000000000000000000000000000000000000000000000081526004018080602001828103825260208152602001807f4f776e61626c653a2063616c6c6572206973206e6f7420746865206f776e657281525060200191505060405180910390fd5b600073ffffffffffffffffffffffffffffffffffffffff168173ffffffffffffffffffffffffffffffffffffffff1614156126cf576040517f08c379a0000000000000000000000000000000000000000000000000000000008152600401808060200182810382526026815260200180613d0f6026913960400191505060405180910390fd5b8073ffffffffffffffffffffffffffffffffffffffff16600a60009054906101000a900473ffffffffffffffffffffffffffffffffffffffff1673ffffffffffffffffffffffffffffffffffffffff167f8be0079c531659141344cd1fd0a4f28419497f9722a3daafe3b4186f6b6457e060405160405180910390a380600a60006101000a81548173ffffffffffffffffffffffffffffffffffffffff021916908373ffffffffffffffffffffffffffffffffffffffff16021790555050565b60006127a5826002612fbc90919063ffffffff16565b9050919050565b600033905090565b816004600083815260200190815260200160002060006101000a81548173ffffffffffffffffffffffffffffffffffffffff021916908373ffffffffffffffffffffffffffffffffffffffff160217905550808273ffffffffffffffffffffffffffffffffffffffff1661282783611aaa565b73ffffffffffffffffffffffffffffffffffffffff167f8c5be1e5ebec7d5bd14f71427d1e84f3dd0314c0f7b2291e5b200ac8c7c3b92560405160405180910390a45050565b6000808284019050838110156128eb576040517f08c379a000000000000000000000000000000000000000000000000000000000815260040180806020018281038252601b8152602001807f536166654d6174683a206164646974696f6e206f766572666c6f77000000000081525060200191505060405180910390fd5b8091505092915050565b61290f828260405180602001604052806000815250612fd6565b5050565b61291c8261278f565b612971576040517f08c379a000000000000000000000000000000000000000000000000000000000815260040180806020018281038252602c815260200180613efc602c913960400191505060405180910390fd5b80600860008481526020019081526020016000209080519060200190612998929190613c0f565b505050565b60006129ab82600001613047565b9050919050565b60006129bd8261278f565b612a12576040517f08c379a000000000000000000000000000000000000000000000000000000000815260040180806020018281038252602c815260200180613dd6602c913960400191505060405180910390fd5b6000612a1d83611aaa565b90508073ffffffffffffffffffffffffffffffffffffffff168473ffffffffffffffffffffffffffffffffffffffff161480612a8c57508373ffffffffffffffffffffffffffffffffffffffff16612a7484611054565b73ffffffffffffffffffffffffffffffffffffffff16145b80612a9d5750612a9c81856124f3565b5b91505092915050565b8273ffffffffffffffffffffffffffffffffffffffff16612ac682611aaa565b73ffffffffffffffffffffffffffffffffffffffff1614612b32576040517f08c379a0000000000000000000000000000000000000000000000000000000008152600401808060200182810382526029815260200180613f286029913960400191505060405180910390fd5b600073ffffffffffffffffffffffffffffffffffffffff168273ffffffffffffffffffffffffffffffffffffffff161415612bb8576040517f08c379a0000000000000000000000000000000000000000000000000000000008152600401808060200182810382526024815260200180613d6a6024913960400191505060405180910390fd5b612bc3838383613058565b612bce6000826127b4565b612c1f81600160008673ffffffffffffffffffffffffffffffffffffffff1673ffffffffffffffffffffffffffffffffffffffff16815260200190815260200160002061305d90919063ffffffff16565b50612c7181600160008573ffffffffffffffffffffffffffffffffffffffff1673ffffffffffffffffffffffffffffffffffffffff16815260200190815260200160002061307790919063ffffffff16565b50612c88818360026130919092919063ffffffff16565b50808273ffffffffffffffffffffffffffffffffffffffff168473ffffffffffffffffffffffffffffffffffffffff167fddf252ad1be2c89b69c2b068fc378daa952ba7f163c4a11628f55a4df523b3ef60405160405180910390a4505050565b6000612cf883600001836130c6565b60001c905092915050565b600080600080612d168660000186613149565b915091508160001c8160001c9350935050509250929050565b8060099080519060200190612d45929190613c0f565b5050565b6000612d5c846000018460001b846131e2565b60001c90509392505050565b6000612d76826000016132d8565b9050919050565b600080831415612d905760009050612dfd565b6000828402905082848281612da157fe5b0414612df8576040517f08c379a0000000000000000000000000000000000000000000000000000000008152600401808060200182810382526021815260200180613eaf6021913960400191505060405180910390fd5b809150505b92915050565b612e0e848484612aa6565b612e1a848484846132e9565b612e6f576040517f08c379a0000000000000000000000000000000000000000000000000000000008152600401808060200182810382526032815260200180613cdd6032913960400191505060405180910390fd5b50505050565b60606000821415612ebd576040518060400160405280600181526020017f30000000000000000000000000000000000000000000000000000000000000008152509050612fb7565b600082905060005b60008214612ee7578080600101915050600a8281612edf57fe5b049150612ec5565b60008167ffffffffffffffff81118015612f0057600080fd5b506040519080825280601f01601f191660200182016040528015612f335781602001600182028036833780820191505090505b50905060006001830390508593505b60008414612faf57600a8481612f5457fe5b0660300160f81b82828060019003935081518110612f6e57fe5b60200101907effffffffffffffffffffffffffffffffffffffffffffffffffffffffffffff1916908160001a905350600a8481612fa757fe5b049350612f42565b819450505050505b919050565b6000612fce836000018360001b613502565b905092915050565b612fe08383613525565b612fed60008484846132e9565b613042576040517f08c379a0000000000000000000000000000000000000000000000000000000008152600401808060200182810382526032815260200180613cdd6032913960400191505060405180910390fd5b505050565b600081600001805490509050919050565b505050565b600061306f836000018360001b613719565b905092915050565b6000613089836000018360001b613801565b905092915050565b60006130bd846000018460001b8473ffffffffffffffffffffffffffffffffffffffff1660001b613871565b90509392505050565b600081836000018054905011613127576040517f08c379a0000000000000000000000000000000000000000000000000000000008152600401808060200182810382526022815260200180613cbb6022913960400191505060405180910390fd5b82600001828154811061313657fe5b9060005260206000200154905092915050565b600080828460000180549050116131ab576040517f08c379a0000000000000000000000000000000000000000000000000000000008152600401808060200182810382526022815260200180613e8d6022913960400191505060405180910390fd5b60008460000184815481106131bc57fe5b906000526020600020906002020190508060000154816001015492509250509250929050565b600080846001016000858152602001908152602001600020549050600081141583906132a9576040517f08c379a00000000000000000000000000000000000000000000000000000000081526004018080602001828103825283818151815260200191508051906020019080838360005b8381101561326e578082015181840152602081019050613253565b50505050905090810190601f16801561329b5780820380516001836020036101000a031916815260200191505b509250505060405180910390fd5b508460000160018203815481106132bc57fe5b9060005260206000209060020201600101549150509392505050565b600081600001805490509050919050565b600061330a8473ffffffffffffffffffffffffffffffffffffffff1661394d565b61331757600190506134fa565b600061348163150b7a0260e01b61332c6127ac565b888787604051602401808573ffffffffffffffffffffffffffffffffffffffff1681526020018473ffffffffffffffffffffffffffffffffffffffff16815260200183815260200180602001828103825283818151815260200191508051906020019080838360005b838110156133b0578082015181840152602081019050613395565b50505050905090810190601f1680156133dd5780820380516001836020036101000a031916815260200191505b5095505050505050604051602081830303815290604052907bffffffffffffffffffffffffffffffffffffffffffffffffffffffff19166020820180517bffffffffffffffffffffffffffffffffffffffffffffffffffffffff8381831617835250505050604051806060016040528060328152602001613cdd603291398773ffffffffffffffffffffffffffffffffffffffff166139609092919063ffffffff16565b9050600081806020019051602081101561349a57600080fd5b8101908080519060200190929190505050905063150b7a0260e01b7bffffffffffffffffffffffffffffffffffffffffffffffffffffffff1916817bffffffffffffffffffffffffffffffffffffffffffffffffffffffff191614925050505b949350505050565b600080836001016000848152602001908152602001600020541415905092915050565b600073ffffffffffffffffffffffffffffffffffffffff168273ffffffffffffffffffffffffffffffffffffffff1614156135c8576040517f08c379a00000000000000000000000000000000000000000000000000000000081526004018080602001828103825260208152602001807f4552433732313a206d696e7420746f20746865207a65726f206164647265737381525060200191505060405180910390fd5b6135d18161278f565b15613644576040517f08c379a000000000000000000000000000000000000000000000000000000000815260040180806020018281038252601c8152602001807f4552433732313a20746f6b656e20616c7265616479206d696e7465640000000081525060200191505060405180910390fd5b61365060008383613058565b6136a181600160008573ffffffffffffffffffffffffffffffffffffffff1673ffffffffffffffffffffffffffffffffffffffff16815260200190815260200160002061307790919063ffffffff16565b506136b8818360026130919092919063ffffffff16565b50808273ffffffffffffffffffffffffffffffffffffffff16600073ffffffffffffffffffffffffffffffffffffffff167fddf252ad1be2c89b69c2b068fc378daa952ba7f163c4a11628f55a4df523b3ef60405160405180910390a45050565b600080836001016000848152602001908152602001600020549050600081146137f5576000600182039050600060018660000180549050039050600086600001828154811061376457fe5b906000526020600020015490508087600001848154811061378157fe5b90600052602060002001819055506001830187600101600083815260200190815260200160002081905550866000018054806137b957fe5b600190038181906000526020600020016000905590558660010160008781526020019081526020016000206000905560019450505050506137fb565b60009150505b92915050565b600061380d8383613978565b61386657826000018290806001815401808255809150506001900390600052602060002001600090919091909150558260000180549050836001016000848152602001908152602001600020819055506001905061386b565b600090505b92915050565b600080846001016000858152602001908152602001600020549050600081141561391857846000016040518060400160405280868152602001858152509080600181540180825580915050600190039060005260206000209060020201600090919091909150600082015181600001556020820151816001015550508460000180549050856001016000868152602001908152602001600020819055506001915050613946565b8285600001600183038154811061392b57fe5b90600052602060002090600202016001018190555060009150505b9392505050565b600080823b905060008111915050919050565b606061396f848460008561399b565b90509392505050565b600080836001016000848152602001908152602001600020541415905092915050565b6060824710156139f6576040517f08c379a0000000000000000000000000000000000000000000000000000000008152600401808060200182810382526026815260200180613db06026913960400191505060405180910390fd5b6139ff8561394d565b613a71576040517f08c379a000000000000000000000000000000000000000000000000000000000815260040180806020018281038252601d8152602001807f416464726573733a2063616c6c20746f206e6f6e2d636f6e747261637400000081525060200191505060405180910390fd5b6000808673ffffffffffffffffffffffffffffffffffffffff1685876040518082805190602001908083835b60208310613ac05780518252602082019150602081019050602083039250613a9d565b6001836020036101000a03801982511681845116808217855250505050505090500191505060006040518083038185875af1925050503d8060008114613b22576040519150601f19603f3d011682016040523d82523d6000602084013e613b27565b606091505b5091509150613b37828286613b43565b92505050949350505050565b60608315613b5357829050613c08565b600083511115613b665782518084602001fd5b816040517f08c379a00000000000000000000000000000000000000000000000000000000081526004018080602001828103825283818151815260200191508051906020019080838360005b83811015613bcd578082015181840152602081019050613bb2565b50505050905090810190601f168015613bfa5780820380516001836020036101000a031916815260200191505b509250505060405180910390fd5b9392505050565b828054600181600116156101000203166002900490600052602060002090601f016020900481019282613c455760008555613c8c565b82601f10613c5e57805160ff1916838001178555613c8c565b82800160010185558215613c8c579182015b82811115613c8b578251825591602001919060010190613c70565b5b509050613c999190613c9d565b5090565b5b80821115613cb6576000816000905550600101613c9e565b509056fe456e756d657261626c655365743a20696e646578206f7574206f6620626f756e64734552433732313a207472616e7366657220746f206e6f6e20455243373231526563656976657220696d706c656d656e7465724f776e61626c653a206e6577206f776e657220697320746865207a65726f2061646472657373697066733a2f2f516d57754365484c3175616a6a4e454c4b6665483138617a5a334b5342315966665474626a614e4a715a703139664552433732313a207472616e7366657220746f20746865207a65726f206164647265737347696674206974656d7320776f756c6420657863656564206d617820737570706c79416464726573733a20696e73756666696369656e742062616c616e636520666f722063616c6c4552433732313a206f70657261746f7220717565727920666f72206e6f6e6578697374656e7420746f6b656e4552433732313a20617070726f76652063616c6c6572206973206e6f74206f776e6572206e6f7220617070726f76656420666f7220616c6c4552433732313a2062616c616e636520717565727920666f7220746865207a65726f20616464726573734552433732313a206f776e657220717565727920666f72206e6f6e6578697374656e7420746f6b656e456e756d657261626c654d61703a20696e646578206f7574206f6620626f756e6473536166654d6174683a206d756c7469706c69636174696f6e206f766572666c6f774552433732313a20617070726f76656420717565727920666f72206e6f6e6578697374656e7420746f6b656e4552433732314d657461646174613a2055524920736574206f66206e6f6e6578697374656e7420746f6b656e4552433732313a207472616e73666572206f6620746f6b656e2074686174206973206e6f74206f776e4552433732314d657461646174613a2055524920717565727920666f72206e6f6e6578697374656e7420746f6b656e4552433732313a20617070726f76616c20746f2063757272656e74206f776e65724552433732313a207472616e736665722063616c6c6572206973206e6f74206f776e6572206e6f7220617070726f7665645265736572766564206974656d7320776f756c6420657863656564206d617820737570706c79a26469706673582212209197384f3f7c97f59698c222737069327c1436e7dc335c0abfac3795d0c7a9df64736f6c63430007060033",
  "immutableReferences": {},
  "source": "\n// SPDX-License-Identifier: MIT\n\npragma solidity ^0.7.6;\n\nimport \"openzeppelin-solidity/contracts/token/ERC721/ERC721.sol\";\nimport \"openzeppelin-solidity/contracts/access/Ownable.sol\";\nimport \"openzeppelin-solidity/contracts/math/SafeMath.sol\";\n\ncontract SportLegends is ERC721, Ownable {\n\n    using SafeMath for uint256;\n    \n    event Transfer(address _to, uint _value);\n\n    uint256 public constant itemPrice = 0.05 ether;\n    uint64 public constant RESERVED_ITEMS = 27;\n    uint64 public constant GIFT_ITEMS = 50;\n    uint64 public constant ADOPT_ITEMS = 7700;\n    uint64 public constant TOTAL_ITEMS = ADOPT_ITEMS + GIFT_ITEMS + RESERVED_ITEMS;\n    uint128 public constant MAX_ITEMS_PER_MINT = 10;\n\n    uint256 private giftItems = 0;\n    string private constant IPFS_GUESS_ITEM = \"ipfs://QmWuCeHL1uajjNELKfeH18azZ3KSB1YffTtbjaNJqZp19f\";\n    bool public saleIsActive = false;\n\n    constructor() ERC721(\"SportLegends\", \"SPL\") {\n    }\n\n    function withdraw() public onlyOwner {\n        uint balance = address(this).balance;\n        msg.sender.transfer(balance);\n        emit Transfer(msg.sender, balance);\n    }\n    \n    function flipSaleState() public onlyOwner {\n        saleIsActive = !saleIsActive;\n    }\n    \n    function setBaseURI(string memory baseURI) public onlyOwner {\n        _setBaseURI(baseURI);\n    }\n    \n    function setTokenURI(uint256 tokenId, string memory _tokenURI) public onlyOwner {\n        _setTokenURI(tokenId, _tokenURI);\n    }\n\n    function getGiftItems() public view returns( uint256 ){\n        return giftItems;\n    }\n\n\n    function reserveItems() public onlyOwner {        \n        require(totalSupply().add(RESERVED_ITEMS) <= TOTAL_ITEMS, \"Reserved items would exceed max supply\");\n        uint supply = totalSupply();\n        uint i;\n        for (i = 0; i < RESERVED_ITEMS; i++) {\n            _safeMint(msg.sender, supply + i);\n        }\n    }\n\n    function giftSportLegends( address [] memory recipients ) public onlyOwner {\n        require(recipients.length + giftItems < GIFT_ITEMS + 1, \"Can't gift more than 50 items\");\n        require(totalSupply().add(recipients.length) <= TOTAL_ITEMS, \"Gift items would exceed max supply\");\n        uint256 supply = totalSupply();        \n        for( uint256 i ; i < recipients.length; i++ ){\n            _safeMint(recipients[i], supply + i );\n            giftItems += 1;\n        }\n    }\n\n    function mintSportLegends(uint numberOfTokens) public payable {\n        require(saleIsActive, \"Sale must be active to mint\");\n        require(numberOfTokens <= MAX_ITEMS_PER_MINT, \"Can't mint more than 10 items\");\n        require(totalSupply().add(numberOfTokens) <= TOTAL_ITEMS, \"Purchase would exceed max supply\");\n        require(msg.value == itemPrice.mul(numberOfTokens), \"Ether value sent is not correct\");\n        \n        for(uint i = 0; i < numberOfTokens; i++) {\n            uint mintIndex = totalSupply();\n            if (totalSupply() < TOTAL_ITEMS) {\n                _safeMint(msg.sender, mintIndex);\n            }\n        }\n    }\n\n    function tokenURI(uint256 tokenId) public view virtual override returns (string memory) {\n        require(_exists(tokenId), \"ERC721Metadata: URI query for nonexistent token\");\n\n        string memory baseURI = baseURI();\n        if( bytes(baseURI).length == 0 ){\n            return IPFS_GUESS_ITEM;\n        }\n        return bytes(baseURI).length > 0 ? string(abi.encodePacked(baseURI, Strings.toString(tokenId))) : \"\";\n    }\n}",
  "sourcePath": "/Users/gianmarco/dev/projects/sport-legends/contracts/SportLegends.sol",
  "compiler": {
    "name": "solc",
    "version": "0.7.6+commit.7338295f.Emscripten.clang"
  },
  "schemaVersion": "3.4.3",
  "updatedAt": "2021-09-01T22:51:57.523Z",
  "networkType": "ethereum",
  "devdoc": {
    "kind": "dev",
    "methods": {
      "approve(address,uint256)": {
        "details": "See {IERC721-approve}."
      },
      "balanceOf(address)": {
        "details": "See {IERC721-balanceOf}."
      },
      "baseURI()": {
        "details": "Returns the base URI set via {_setBaseURI}. This will be automatically added as a prefix in {tokenURI} to each token's URI, or to the token ID if no specific URI is set for that token ID."
      },
      "getApproved(uint256)": {
        "details": "See {IERC721-getApproved}."
      },
      "isApprovedForAll(address,address)": {
        "details": "See {IERC721-isApprovedForAll}."
      },
      "name()": {
        "details": "See {IERC721Metadata-name}."
      },
      "owner()": {
        "details": "Returns the address of the current owner."
      },
      "ownerOf(uint256)": {
        "details": "See {IERC721-ownerOf}."
      },
      "renounceOwnership()": {
        "details": "Leaves the contract without owner. It will not be possible to call `onlyOwner` functions anymore. Can only be called by the current owner. NOTE: Renouncing ownership will leave the contract without an owner, thereby removing any functionality that is only available to the owner."
      },
      "safeTransferFrom(address,address,uint256)": {
        "details": "See {IERC721-safeTransferFrom}."
      },
      "safeTransferFrom(address,address,uint256,bytes)": {
        "details": "See {IERC721-safeTransferFrom}."
      },
      "setApprovalForAll(address,bool)": {
        "details": "See {IERC721-setApprovalForAll}."
      },
      "supportsInterface(bytes4)": {
        "details": "See {IERC165-supportsInterface}. Time complexity O(1), guaranteed to always use less than 30 000 gas."
      },
      "symbol()": {
        "details": "See {IERC721Metadata-symbol}."
      },
      "tokenByIndex(uint256)": {
        "details": "See {IERC721Enumerable-tokenByIndex}."
      },
      "tokenOfOwnerByIndex(address,uint256)": {
        "details": "See {IERC721Enumerable-tokenOfOwnerByIndex}."
      },
      "tokenURI(uint256)": {
        "details": "See {IERC721Metadata-tokenURI}."
      },
      "totalSupply()": {
        "details": "See {IERC721Enumerable-totalSupply}."
      },
      "transferFrom(address,address,uint256)": {
        "details": "See {IERC721-transferFrom}."
      },
      "transferOwnership(address)": {
        "details": "Transfers ownership of the contract to a new account (`newOwner`). Can only be called by the current owner."
      }
    },
    "version": 1
  },
  "userdoc": {
    "kind": "user",
    "methods": {},
    "version": 1
  }
}