{
  "contractName": "SportSuperstars",
  "abi": [
    {
      "inputs": [],
      "stateMutability": "nonpayable",
      "type": "constructor"
    },
    {
      "anonymous": false,
      "inputs": [
        {
          "indexed": true,
          "internalType": "address",
          "name": "owner",
          "type": "address"
        },
        {
          "indexed": true,
          "internalType": "address",
          "name": "approved",
          "type": "address"
        },
        {
          "indexed": true,
          "internalType": "uint256",
          "name": "tokenId",
          "type": "uint256"
        }
      ],
      "name": "Approval",
      "type": "event"
    },
    {
      "anonymous": false,
      "inputs": [
        {
          "indexed": true,
          "internalType": "address",
          "name": "owner",
          "type": "address"
        },
        {
          "indexed": true,
          "internalType": "address",
          "name": "operator",
          "type": "address"
        },
        {
          "indexed": false,
          "internalType": "bool",
          "name": "approved",
          "type": "bool"
        }
      ],
      "name": "ApprovalForAll",
      "type": "event"
    },
    {
      "anonymous": false,
      "inputs": [
        {
          "indexed": true,
          "internalType": "address",
          "name": "previousOwner",
          "type": "address"
        },
        {
          "indexed": true,
          "internalType": "address",
          "name": "newOwner",
          "type": "address"
        }
      ],
      "name": "OwnershipTransferred",
      "type": "event"
    },
    {
      "anonymous": false,
      "inputs": [
        {
          "indexed": false,
          "internalType": "address",
          "name": "_to",
          "type": "address"
        },
        {
          "indexed": false,
          "internalType": "uint256",
          "name": "_value",
          "type": "uint256"
        }
      ],
      "name": "Transfer",
      "type": "event"
    },
    {
      "anonymous": false,
      "inputs": [
        {
          "indexed": true,
          "internalType": "address",
          "name": "from",
          "type": "address"
        },
        {
          "indexed": true,
          "internalType": "address",
          "name": "to",
          "type": "address"
        },
        {
          "indexed": true,
          "internalType": "uint256",
          "name": "tokenId",
          "type": "uint256"
        }
      ],
      "name": "Transfer",
      "type": "event"
    },
    {
      "inputs": [],
      "name": "ADOPT_ITEMS",
      "outputs": [
        {
          "internalType": "uint64",
          "name": "",
          "type": "uint64"
        }
      ],
      "stateMutability": "view",
      "type": "function"
    },
    {
      "inputs": [],
      "name": "GIFT_ITEMS",
      "outputs": [
        {
          "internalType": "uint64",
          "name": "",
          "type": "uint64"
        }
      ],
      "stateMutability": "view",
      "type": "function"
    },
    {
      "inputs": [],
      "name": "MAX_ITEMS_PER_MINT",
      "outputs": [
        {
          "internalType": "uint128",
          "name": "",
          "type": "uint128"
        }
      ],
      "stateMutability": "view",
      "type": "function"
    },
    {
      "inputs": [],
      "name": "PREADOPT_ITEMS",
      "outputs": [
        {
          "internalType": "uint64",
          "name": "",
          "type": "uint64"
        }
      ],
      "stateMutability": "view",
      "type": "function"
    },
    {
      "inputs": [],
      "name": "TOTAL_ITEMS",
      "outputs": [
        {
          "internalType": "uint128",
          "name": "",
          "type": "uint128"
        }
      ],
      "stateMutability": "view",
      "type": "function"
    },
    {
      "inputs": [
        {
          "internalType": "address",
          "name": "to",
          "type": "address"
        },
        {
          "internalType": "uint256",
          "name": "tokenId",
          "type": "uint256"
        }
      ],
      "name": "approve",
      "outputs": [],
      "stateMutability": "nonpayable",
      "type": "function"
    },
    {
      "inputs": [
        {
          "internalType": "address",
          "name": "owner",
          "type": "address"
        }
      ],
      "name": "balanceOf",
      "outputs": [
        {
          "internalType": "uint256",
          "name": "",
          "type": "uint256"
        }
      ],
      "stateMutability": "view",
      "type": "function"
    },
    {
      "inputs": [],
      "name": "baseURI",
      "outputs": [
        {
          "internalType": "string",
          "name": "",
          "type": "string"
        }
      ],
      "stateMutability": "view",
      "type": "function"
    },
    {
      "inputs": [
        {
          "internalType": "uint256",
          "name": "tokenId",
          "type": "uint256"
        }
      ],
      "name": "getApproved",
      "outputs": [
        {
          "internalType": "address",
          "name": "",
          "type": "address"
        }
      ],
      "stateMutability": "view",
      "type": "function"
    },
    {
      "inputs": [
        {
          "internalType": "address",
          "name": "owner",
          "type": "address"
        },
        {
          "internalType": "address",
          "name": "operator",
          "type": "address"
        }
      ],
      "name": "isApprovedForAll",
      "outputs": [
        {
          "internalType": "bool",
          "name": "",
          "type": "bool"
        }
      ],
      "stateMutability": "view",
      "type": "function"
    },
    {
      "inputs": [],
      "name": "itemPrice",
      "outputs": [
        {
          "internalType": "uint256",
          "name": "",
          "type": "uint256"
        }
      ],
      "stateMutability": "view",
      "type": "function"
    },
    {
      "inputs": [],
      "name": "name",
      "outputs": [
        {
          "internalType": "string",
          "name": "",
          "type": "string"
        }
      ],
      "stateMutability": "view",
      "type": "function"
    },
    {
      "inputs": [],
      "name": "owner",
      "outputs": [
        {
          "internalType": "address",
          "name": "",
          "type": "address"
        }
      ],
      "stateMutability": "view",
      "type": "function"
    },
    {
      "inputs": [
        {
          "internalType": "uint256",
          "name": "tokenId",
          "type": "uint256"
        }
      ],
      "name": "ownerOf",
      "outputs": [
        {
          "internalType": "address",
          "name": "",
          "type": "address"
        }
      ],
      "stateMutability": "view",
      "type": "function"
    },
    {
      "inputs": [],
      "name": "preSaleIsActive",
      "outputs": [
        {
          "internalType": "bool",
          "name": "",
          "type": "bool"
        }
      ],
      "stateMutability": "view",
      "type": "function"
    },
    {
      "inputs": [],
      "name": "renounceOwnership",
      "outputs": [],
      "stateMutability": "nonpayable",
      "type": "function"
    },
    {
      "inputs": [
        {
          "internalType": "address",
          "name": "from",
          "type": "address"
        },
        {
          "internalType": "address",
          "name": "to",
          "type": "address"
        },
        {
          "internalType": "uint256",
          "name": "tokenId",
          "type": "uint256"
        }
      ],
      "name": "safeTransferFrom",
      "outputs": [],
      "stateMutability": "nonpayable",
      "type": "function"
    },
    {
      "inputs": [
        {
          "internalType": "address",
          "name": "from",
          "type": "address"
        },
        {
          "internalType": "address",
          "name": "to",
          "type": "address"
        },
        {
          "internalType": "uint256",
          "name": "tokenId",
          "type": "uint256"
        },
        {
          "internalType": "bytes",
          "name": "_data",
          "type": "bytes"
        }
      ],
      "name": "safeTransferFrom",
      "outputs": [],
      "stateMutability": "nonpayable",
      "type": "function"
    },
    {
      "inputs": [],
      "name": "saleIsActive",
      "outputs": [
        {
          "internalType": "bool",
          "name": "",
          "type": "bool"
        }
      ],
      "stateMutability": "view",
      "type": "function"
    },
    {
      "inputs": [
        {
          "internalType": "address",
          "name": "operator",
          "type": "address"
        },
        {
          "internalType": "bool",
          "name": "approved",
          "type": "bool"
        }
      ],
      "name": "setApprovalForAll",
      "outputs": [],
      "stateMutability": "nonpayable",
      "type": "function"
    },
    {
      "inputs": [
        {
          "internalType": "bytes4",
          "name": "interfaceId",
          "type": "bytes4"
        }
      ],
      "name": "supportsInterface",
      "outputs": [
        {
          "internalType": "bool",
          "name": "",
          "type": "bool"
        }
      ],
      "stateMutability": "view",
      "type": "function"
    },
    {
      "inputs": [],
      "name": "symbol",
      "outputs": [
        {
          "internalType": "string",
          "name": "",
          "type": "string"
        }
      ],
      "stateMutability": "view",
      "type": "function"
    },
    {
      "inputs": [
        {
          "internalType": "uint256",
          "name": "index",
          "type": "uint256"
        }
      ],
      "name": "tokenByIndex",
      "outputs": [
        {
          "internalType": "uint256",
          "name": "",
          "type": "uint256"
        }
      ],
      "stateMutability": "view",
      "type": "function"
    },
    {
      "inputs": [
        {
          "internalType": "address",
          "name": "owner",
          "type": "address"
        },
        {
          "internalType": "uint256",
          "name": "index",
          "type": "uint256"
        }
      ],
      "name": "tokenOfOwnerByIndex",
      "outputs": [
        {
          "internalType": "uint256",
          "name": "",
          "type": "uint256"
        }
      ],
      "stateMutability": "view",
      "type": "function"
    },
    {
      "inputs": [],
      "name": "totalSupply",
      "outputs": [
        {
          "internalType": "uint256",
          "name": "",
          "type": "uint256"
        }
      ],
      "stateMutability": "view",
      "type": "function"
    },
    {
      "inputs": [
        {
          "internalType": "address",
          "name": "from",
          "type": "address"
        },
        {
          "internalType": "address",
          "name": "to",
          "type": "address"
        },
        {
          "internalType": "uint256",
          "name": "tokenId",
          "type": "uint256"
        }
      ],
      "name": "transferFrom",
      "outputs": [],
      "stateMutability": "nonpayable",
      "type": "function"
    },
    {
      "inputs": [
        {
          "internalType": "address",
          "name": "newOwner",
          "type": "address"
        }
      ],
      "name": "transferOwnership",
      "outputs": [],
      "stateMutability": "nonpayable",
      "type": "function"
    },
    {
      "inputs": [],
      "name": "withdraw",
      "outputs": [],
      "stateMutability": "nonpayable",
      "type": "function"
    },
    {
      "inputs": [],
      "name": "flipSaleState",
      "outputs": [],
      "stateMutability": "nonpayable",
      "type": "function"
    },
    {
      "inputs": [],
      "name": "flipPreSaleState",
      "outputs": [],
      "stateMutability": "nonpayable",
      "type": "function"
    },
    {
      "inputs": [
        {
          "internalType": "uint32",
          "name": "mapIndex",
          "type": "uint32"
        }
      ],
      "name": "setPreSaleMapIndex",
      "outputs": [],
      "stateMutability": "nonpayable",
      "type": "function"
    },
    {
      "inputs": [
        {
          "internalType": "address[]",
          "name": "recipients",
          "type": "address[]"
        }
      ],
      "name": "setPreSalesAddresses",
      "outputs": [],
      "stateMutability": "nonpayable",
      "type": "function"
    },
    {
      "inputs": [
        {
          "internalType": "string",
          "name": "baseURI",
          "type": "string"
        }
      ],
      "name": "setBaseURI",
      "outputs": [],
      "stateMutability": "nonpayable",
      "type": "function"
    },
    {
      "inputs": [
        {
          "internalType": "uint256",
          "name": "tokenId",
          "type": "uint256"
        },
        {
          "internalType": "string",
          "name": "_tokenURI",
          "type": "string"
        }
      ],
      "name": "setTokenURI",
      "outputs": [],
      "stateMutability": "nonpayable",
      "type": "function"
    },
    {
      "inputs": [],
      "name": "getPreSaleMapIndex",
      "outputs": [
        {
          "internalType": "uint32",
          "name": "",
          "type": "uint32"
        }
      ],
      "stateMutability": "view",
      "type": "function"
    },
    {
      "inputs": [
        {
          "internalType": "address",
          "name": "recipient",
          "type": "address"
        }
      ],
      "name": "isAddressAllowedForPreSale",
      "outputs": [
        {
          "internalType": "bool",
          "name": "",
          "type": "bool"
        }
      ],
      "stateMutability": "view",
      "type": "function"
    },
    {
      "inputs": [],
      "name": "getGiftItems",
      "outputs": [
        {
          "internalType": "uint256",
          "name": "",
          "type": "uint256"
        }
      ],
      "stateMutability": "view",
      "type": "function"
    },
    {
      "inputs": [],
      "name": "getPreSaleItems",
      "outputs": [
        {
          "internalType": "uint256",
          "name": "",
          "type": "uint256"
        }
      ],
      "stateMutability": "view",
      "type": "function"
    },
    {
      "inputs": [
        {
          "internalType": "uint256",
          "name": "numberOfTokens",
          "type": "uint256"
        }
      ],
      "name": "reserveItems",
      "outputs": [],
      "stateMutability": "nonpayable",
      "type": "function"
    },
    {
      "inputs": [
        {
          "internalType": "address[]",
          "name": "recipients",
          "type": "address[]"
        }
      ],
      "name": "giftSportSuperstars",
      "outputs": [],
      "stateMutability": "nonpayable",
      "type": "function"
    },
    {
      "inputs": [
        {
          "internalType": "uint256",
          "name": "numberOfTokens",
          "type": "uint256"
        }
      ],
      "name": "mintPreSaleSportSuperstars",
      "outputs": [],
      "stateMutability": "payable",
      "type": "function"
    },
    {
      "inputs": [
        {
          "internalType": "uint256",
          "name": "numberOfTokens",
          "type": "uint256"
        }
      ],
      "name": "mintSportSuperstars",
      "outputs": [],
      "stateMutability": "payable",
      "type": "function"
    },
    {
      "inputs": [
        {
          "internalType": "uint256",
          "name": "tokenId",
          "type": "uint256"
        }
      ],
      "name": "tokenURI",
      "outputs": [
        {
          "internalType": "string",
          "name": "",
          "type": "string"
        }
      ],
      "stateMutability": "view",
      "type": "function"
    }
  ],
  "bytecode": "0x60806040526000600a60146101000a81548160ff0219169083151502179055506000600a60156101000a81548160ff0219169083151502179055506000600b556000600c556001600d60006101000a81548163ffffffff021916908363ffffffff1602179055503480156200007357600080fd5b506040518060400160405280601081526020017f53706f72742053757065727374617273000000000000000000000000000000008152506040518060400160405280600381526020017f5353530000000000000000000000000000000000000000000000000000000000815250620000f86301ffc9a760e01b6200022b60201b60201c565b8160069080519060200190620001109291906200033c565b508060079080519060200190620001299291906200033c565b50620001426380ac58cd60e01b6200022b60201b60201c565b6200015a635b5e139f60e01b6200022b60201b60201c565b6200017263780e9d6360e01b6200022b60201b60201c565b50506000620001866200033460201b60201c565b905080600a60006101000a81548173ffffffffffffffffffffffffffffffffffffffff021916908373ffffffffffffffffffffffffffffffffffffffff1602179055508073ffffffffffffffffffffffffffffffffffffffff16600073ffffffffffffffffffffffffffffffffffffffff167f8be0079c531659141344cd1fd0a4f28419497f9722a3daafe3b4186f6b6457e060405160405180910390a350620003f2565b63ffffffff60e01b817bffffffffffffffffffffffffffffffffffffffffffffffffffffffff19161415620002c8576040517f08c379a000000000000000000000000000000000000000000000000000000000815260040180806020018281038252601c8152602001807f4552433136353a20696e76616c696420696e746572666163652069640000000081525060200191505060405180910390fd5b6001600080837bffffffffffffffffffffffffffffffffffffffffffffffffffffffff19167bffffffffffffffffffffffffffffffffffffffffffffffffffffffff1916815260200190815260200160002060006101000a81548160ff02191690831515021790555050565b600033905090565b828054600181600116156101000203166002900490600052602060002090601f016020900481019282620003745760008555620003c0565b82601f106200038f57805160ff1916838001178555620003c0565b82800160010185558215620003c0579182015b82811115620003bf578251825591602001919060010190620003a2565b5b509050620003cf9190620003d3565b5090565b5b80821115620003ee576000816000905550600101620003d4565b5090565b614b1880620004026000396000f3fe60806040526004361061025c5760003560e01c806355f804b3116101445780639e4aa2df116100b6578063dac6db1c1161007a578063dac6db1c14611092578063e985e9c5146110bd578063eb8d244414611144578063f032554914611171578063f2fde38b14611188578063fd47532d146111d95761025c565b80639e4aa2df14610df1578063a22cb46514610e32578063b88d4fde14610e8f578063c4741fdd14610fa1578063c87b56dd14610fde5761025c565b806370a082311161010857806370a0823114610c34578063715018a614610c99578063820fea3e14610cb05780638da5cb5b14610ce557806395d89b4114610d26578063974c25a614610db65761025c565b806355f804b3146109845780635d5faaa514610a4c5780636352211e14610a7a5780636c0360eb14610adf5780636c94babb14610b6f5761025c565b80631f0234d8116101dd57806334918dfd116101a157806334918dfd1461079c5780633ccfd60b146107b35780633d9e1333146107ca57806341425b03146107f557806342842e0e146108ba5780634f6ccce7146109355761025c565b80631f0234d81461062257806323b872dd1461064f578063260dae1f146106ca5780632f745c59146106f8578063334894e7146107675761025c565b80630ee7487e116102245780630ee7487e14610488578063162094c4146104c557806318160ddd146105975780631a93ff9f146105c25780631dac7cf2146105f75761025c565b806301ffc9a71461026157806302ad565c146102d157806306fdde0314610338578063081812fc146103c8578063095ea7b31461042d575b600080fd5b34801561026d57600080fd5b506102b96004803603602081101561028457600080fd5b8101908080357bffffffffffffffffffffffffffffffffffffffffffffffffffffffff1916906020019092919050505061120a565b60405180821515815260200191505060405180910390f35b3480156102dd57600080fd5b50610320600480360360208110156102f457600080fd5b81019080803573ffffffffffffffffffffffffffffffffffffffff169060200190929190505050611271565b60405180821515815260200191505060405180910390f35b34801561034457600080fd5b5061034d611301565b6040518080602001828103825283818151815260200191508051906020019080838360005b8381101561038d578082015181840152602081019050610372565b50505050905090810190601f1680156103ba5780820380516001836020036101000a031916815260200191505b509250505060405180910390f35b3480156103d457600080fd5b50610401600480360360208110156103eb57600080fd5b81019080803590602001909291905050506113a3565b604051808273ffffffffffffffffffffffffffffffffffffffff16815260200191505060405180910390f35b34801561043957600080fd5b506104866004803603604081101561045057600080fd5b81019080803573ffffffffffffffffffffffffffffffffffffffff1690602001909291908035906020019092919050505061143e565b005b34801561049457600080fd5b5061049d611582565b60405180826fffffffffffffffffffffffffffffffff16815260200191505060405180910390f35b3480156104d157600080fd5b50610595600480360360408110156104e857600080fd5b81019080803590602001909291908035906020019064010000000081111561050f57600080fd5b82018360208201111561052157600080fd5b8035906020019184600183028401116401000000008311171561054357600080fd5b91908080601f016020809104026020016040519081016040528093929190818152602001838380828437600081840152601f19601f820116905080830192505050505050509192919290505050611587565b005b3480156105a357600080fd5b506105ac611644565b6040518082815260200191505060405180910390f35b3480156105ce57600080fd5b506105d7611655565b604051808267ffffffffffffffff16815260200191505060405180910390f35b34801561060357600080fd5b5061060c61165b565b6040518082815260200191505060405180910390f35b34801561062e57600080fd5b50610637611665565b60405180821515815260200191505060405180910390f35b34801561065b57600080fd5b506106c86004803603606081101561067257600080fd5b81019080803573ffffffffffffffffffffffffffffffffffffffff169060200190929190803573ffffffffffffffffffffffffffffffffffffffff16906020019092919080359060200190929190505050611678565b005b6106f6600480360360208110156106e057600080fd5b81019080803590602001909291905050506116ee565b005b34801561070457600080fd5b506107516004803603604081101561071b57600080fd5b81019080803573ffffffffffffffffffffffffffffffffffffffff16906020019092919080359060200190929190505050611b13565b6040518082815260200191505060405180910390f35b34801561077357600080fd5b5061077c611b6e565b604051808267ffffffffffffffff16815260200191505060405180910390f35b3480156107a857600080fd5b506107b1611b73565b005b3480156107bf57600080fd5b506107c8611c4e565b005b3480156107d657600080fd5b506107df611da1565b6040518082815260200191505060405180910390f35b34801561080157600080fd5b506108b86004803603602081101561081857600080fd5b810190808035906020019064010000000081111561083557600080fd5b82018360208201111561084757600080fd5b8035906020019184602083028401116401000000008311171561086957600080fd5b919080806020026020016040519081016040528093929190818152602001838360200280828437600081840152601f19601f820116905080830192505050505050509192919290505050611dab565b005b3480156108c657600080fd5b50610933600480360360608110156108dd57600080fd5b81019080803573ffffffffffffffffffffffffffffffffffffffff169060200190929190803573ffffffffffffffffffffffffffffffffffffffff16906020019092919080359060200190929190505050611f18565b005b34801561094157600080fd5b5061096e6004803603602081101561095857600080fd5b8101908080359060200190929190505050611f38565b6040518082815260200191505060405180910390f35b34801561099057600080fd5b50610a4a600480360360208110156109a757600080fd5b81019080803590602001906401000000008111156109c457600080fd5b8201836020820111156109d657600080fd5b803590602001918460018302840111640100000000831117156109f857600080fd5b91908080601f016020809104026020016040519081016040528093929190818152602001838380828437600081840152601f19601f820116905080830192505050505050509192919290505050611f5b565b005b610a7860048036036020811015610a6257600080fd5b8101908080359060200190929190505050612016565b005b348015610a8657600080fd5b50610ab360048036036020811015610a9d57600080fd5b81019080803590602001909291905050506122a9565b604051808273ffffffffffffffffffffffffffffffffffffffff16815260200191505060405180910390f35b348015610aeb57600080fd5b50610af46122e0565b6040518080602001828103825283818151815260200191508051906020019080838360005b83811015610b34578082015181840152602081019050610b19565b50505050905090810190601f168015610b615780820380516001836020036101000a031916815260200191505b509250505060405180910390f35b348015610b7b57600080fd5b50610c3260048036036020811015610b9257600080fd5b8101908080359060200190640100000000811115610baf57600080fd5b820183602082011115610bc157600080fd5b80359060200191846020830284011164010000000083111715610be357600080fd5b919080806020026020016040519081016040528093929190818152602001838360200280828437600081840152601f19601f820116905080830192505050505050509192919290505050612382565b005b348015610c4057600080fd5b50610c8360048036036020811015610c5757600080fd5b81019080803573ffffffffffffffffffffffffffffffffffffffff16906020019092919050505061259a565b6040518082815260200191505060405180910390f35b348015610ca557600080fd5b50610cae61266f565b005b348015610cbc57600080fd5b50610cc56127df565b604051808267ffffffffffffffff16815260200191505060405180910390f35b348015610cf157600080fd5b50610cfa6127e5565b604051808273ffffffffffffffffffffffffffffffffffffffff16815260200191505060405180910390f35b348015610d3257600080fd5b50610d3b61280f565b6040518080602001828103825283818151815260200191508051906020019080838360005b83811015610d7b578082015181840152602081019050610d60565b50505050905090810190601f168015610da85780820380516001836020036101000a031916815260200191505b509250505060405180910390f35b348015610dc257600080fd5b50610def60048036036020811015610dd957600080fd5b81019080803590602001909291905050506128b1565b005b348015610dfd57600080fd5b50610e3060048036036020811015610e1457600080fd5b81019080803563ffffffff169060200190929190505050612a1b565b005b348015610e3e57600080fd5b50610e8d60048036036040811015610e5557600080fd5b81019080803573ffffffffffffffffffffffffffffffffffffffff169060200190929190803515159060200190929190505050612aee565b005b348015610e9b57600080fd5b50610f9f60048036036080811015610eb257600080fd5b81019080803573ffffffffffffffffffffffffffffffffffffffff169060200190929190803573ffffffffffffffffffffffffffffffffffffffff1690602001909291908035906020019092919080359060200190640100000000811115610f1957600080fd5b820183602082011115610f2b57600080fd5b80359060200191846001830284011164010000000083111715610f4d57600080fd5b91908080601f016020809104026020016040519081016040528093929190818152602001838380828437600081840152601f19601f820116905080830192505050505050509192919290505050612ca4565b005b348015610fad57600080fd5b50610fb6612d1c565b60405180826fffffffffffffffffffffffffffffffff16815260200191505060405180910390f35b348015610fea57600080fd5b506110176004803603602081101561100157600080fd5b8101908080359060200190929190505050612d22565b6040518080602001828103825283818151815260200191508051906020019080838360005b8381101561105757808201518184015260208101905061103c565b50505050905090810190601f1680156110845780820380516001836020036101000a031916815260200191505b509250505060405180910390f35b34801561109e57600080fd5b506110a7612ea7565b6040518082815260200191505060405180910390f35b3480156110c957600080fd5b5061112c600480360360408110156110e057600080fd5b81019080803573ffffffffffffffffffffffffffffffffffffffff169060200190929190803573ffffffffffffffffffffffffffffffffffffffff169060200190929190505050612eb2565b60405180821515815260200191505060405180910390f35b34801561115057600080fd5b50611159612f46565b60405180821515815260200191505060405180910390f35b34801561117d57600080fd5b50611186612f59565b005b34801561119457600080fd5b506111d7600480360360208110156111ab57600080fd5b81019080803573ffffffffffffffffffffffffffffffffffffffff169060200190929190505050613034565b005b3480156111e557600080fd5b506111ee613229565b604051808263ffffffff16815260200191505060405180910390f35b6000806000837bffffffffffffffffffffffffffffffffffffffffffffffffffffffff19167bffffffffffffffffffffffffffffffffffffffffffffffffffffffff1916815260200190815260200160002060009054906101000a900460ff169050919050565b600080600e6000600d60009054906101000a900463ffffffff1663ffffffff1663ffffffff16815260200190815260200160002060008473ffffffffffffffffffffffffffffffffffffffff1673ffffffffffffffffffffffffffffffffffffffff16815260200190815260200160002060009054906101000a900463ffffffff1663ffffffff16119050919050565b606060068054600181600116156101000203166002900480601f0160208091040260200160405190810160405280929190818152602001828054600181600116156101000203166002900480156113995780601f1061136e57610100808354040283529160200191611399565b820191906000526020600020905b81548152906001019060200180831161137c57829003601f168201915b5050505050905090565b60006113ae82613243565b611403576040517f08c379a000000000000000000000000000000000000000000000000000000000815260040180806020018281038252602c815260200180614984602c913960400191505060405180910390fd5b6004600083815260200190815260200160002060009054906101000a900473ffffffffffffffffffffffffffffffffffffffff169050919050565b6000611449826122a9565b90508073ffffffffffffffffffffffffffffffffffffffff168373ffffffffffffffffffffffffffffffffffffffff1614156114d0576040517f08c379a0000000000000000000000000000000000000000000000000000000008152600401808060200182810382526021815260200180614a346021913960400191505060405180910390fd5b8073ffffffffffffffffffffffffffffffffffffffff166114ef613260565b73ffffffffffffffffffffffffffffffffffffffff16148061151e575061151d81611518613260565b612eb2565b5b611573576040517f08c379a00000000000000000000000000000000000000000000000000000000081526004018080602001828103825260388152602001806148b66038913960400191505060405180910390fd5b61157d8383613268565b505050565b600a81565b61158f613260565b73ffffffffffffffffffffffffffffffffffffffff166115ad6127e5565b73ffffffffffffffffffffffffffffffffffffffff1614611636576040517f08c379a00000000000000000000000000000000000000000000000000000000081526004018080602001828103825260208152602001807f4f776e61626c653a2063616c6c6572206973206e6f7420746865206f776e657281525060200191505060405180910390fd5b6116408282613321565b5050565b600061165060026133ab565b905090565b6102bc81565b6000600b54905090565b600a60159054906101000a900460ff1681565b611689611683613260565b826133c0565b6116de576040517f08c379a0000000000000000000000000000000000000000000000000000000008152600401808060200182810382526031815260200180614a8c6031913960400191505060405180910390fd5b6116e98383836134b4565b505050565b600a60159054906101000a900460ff16611770576040517f08c379a000000000000000000000000000000000000000000000000000000000815260040180806020018281038252601f8152602001807f5072652073616c65206d7573742062652061637469766520746f206d696e740081525060200191505060405180910390fd5b6000600e6000600d60009054906101000a900463ffffffff1663ffffffff1663ffffffff16815260200190815260200160002060003373ffffffffffffffffffffffffffffffffffffffff1673ffffffffffffffffffffffffffffffffffffffff16815260200190815260200160002060009054906101000a900463ffffffff1663ffffffff161161184d576040517f08c379a0000000000000000000000000000000000000000000000000000000008152600401808060200182810382526037815260200180614a556037913960400191505060405180910390fd5b60016102bc0167ffffffffffffffff16600c548201106118d5576040517f08c379a000000000000000000000000000000000000000000000000000000000815260040180806020018281038252601e8152602001807f43616e2774206d696e74206d6f7265207468616e20373030206974656d73000081525060200191505060405180910390fd5b600a6fffffffffffffffffffffffffffffffff1681111561195e576040517f08c379a000000000000000000000000000000000000000000000000000000000815260040180806020018281038252601d8152602001807f43616e2774206d696e74206d6f7265207468616e203130206974656d7300000081525060200191505060405180910390fd5b611e616fffffffffffffffffffffffffffffffff1661198d8261197f611644565b6136f790919063ffffffff16565b1115611a01576040517f08c379a00000000000000000000000000000000000000000000000000000000081526004018080602001828103825260208152602001807f507572636861736520776f756c6420657863656564206d617820737570706c7981525060200191505060405180910390fd5b611a1b8166d529ae9e86000061377f90919063ffffffff16565b3414611a8f576040517f08c379a000000000000000000000000000000000000000000000000000000000815260040180806020018281038252601f8152602001807f45746865722076616c75652073656e74206973206e6f7420636f72726563740081525060200191505060405180910390fd5b60005b81811015611b0f576000611aa4611644565b9050611e616fffffffffffffffffffffffffffffffff16611ac3611644565b108015611ae0575060016102bc0167ffffffffffffffff16600c54105b15611b0157611aef3382613805565b6001600c600082825401925050819055505b508080600101915050611a92565b5050565b6000611b6682600160008673ffffffffffffffffffffffffffffffffffffffff1673ffffffffffffffffffffffffffffffffffffffff16815260200190815260200160002061382390919063ffffffff16565b905092915050565b604681565b611b7b613260565b73ffffffffffffffffffffffffffffffffffffffff16611b996127e5565b73ffffffffffffffffffffffffffffffffffffffff1614611c22576040517f08c379a00000000000000000000000000000000000000000000000000000000081526004018080602001828103825260208152602001807f4f776e61626c653a2063616c6c6572206973206e6f7420746865206f776e657281525060200191505060405180910390fd5b600a60149054906101000a900460ff1615600a60146101000a81548160ff021916908315150217905550565b611c56613260565b73ffffffffffffffffffffffffffffffffffffffff16611c746127e5565b73ffffffffffffffffffffffffffffffffffffffff1614611cfd576040517f08c379a00000000000000000000000000000000000000000000000000000000081526004018080602001828103825260208152602001807f4f776e61626c653a2063616c6c6572206973206e6f7420746865206f776e657281525060200191505060405180910390fd5b60004790503373ffffffffffffffffffffffffffffffffffffffff166108fc829081150290604051600060405180830381858888f19350505050158015611d48573d6000803e3d6000fd5b507f69ca02dd4edd7bf0a4abb9ed3b7af3f14778db5d61921c7dc7cd545266326de23382604051808373ffffffffffffffffffffffffffffffffffffffff1681526020018281526020019250505060405180910390a150565b6000600c54905090565b611db3613260565b73ffffffffffffffffffffffffffffffffffffffff16611dd16127e5565b73ffffffffffffffffffffffffffffffffffffffff1614611e5a576040517f08c379a00000000000000000000000000000000000000000000000000000000081526004018080602001828103825260208152602001807f4f776e61626c653a2063616c6c6572206973206e6f7420746865206f776e657281525060200191505060405180910390fd5b60005b8151811015611f14576001600e6000600d60009054906101000a900463ffffffff1663ffffffff1663ffffffff1681526020019081526020016000206000848481518110611ea757fe5b602002602001015173ffffffffffffffffffffffffffffffffffffffff1673ffffffffffffffffffffffffffffffffffffffff16815260200190815260200160002060006101000a81548163ffffffff021916908363ffffffff1602179055508080600101915050611e5d565b5050565b611f3383838360405180602001604052806000815250612ca4565b505050565b600080611f4f83600261383d90919063ffffffff16565b50905080915050919050565b611f63613260565b73ffffffffffffffffffffffffffffffffffffffff16611f816127e5565b73ffffffffffffffffffffffffffffffffffffffff161461200a576040517f08c379a00000000000000000000000000000000000000000000000000000000081526004018080602001828103825260208152602001807f4f776e61626c653a2063616c6c6572206973206e6f7420746865206f776e657281525060200191505060405180910390fd5b61201381613869565b50565b600a60149054906101000a900460ff16612098576040517f08c379a000000000000000000000000000000000000000000000000000000000815260040180806020018281038252601b8152602001807f53616c65206d7573742062652061637469766520746f206d696e74000000000081525060200191505060405180910390fd5b600a6fffffffffffffffffffffffffffffffff16811115612121576040517f08c379a000000000000000000000000000000000000000000000000000000000815260040180806020018281038252601d8152602001807f43616e2774206d696e74206d6f7265207468616e203130206974656d7300000081525060200191505060405180910390fd5b611e616fffffffffffffffffffffffffffffffff1661215082612142611644565b6136f790919063ffffffff16565b11156121c4576040517f08c379a00000000000000000000000000000000000000000000000000000000081526004018080602001828103825260208152602001807f507572636861736520776f756c6420657863656564206d617820737570706c7981525060200191505060405180910390fd5b6121de8166d529ae9e86000061377f90919063ffffffff16565b3414612252576040517f08c379a000000000000000000000000000000000000000000000000000000000815260040180806020018281038252601f8152602001807f45746865722076616c75652073656e74206973206e6f7420636f72726563740081525060200191505060405180910390fd5b60005b818110156122a5576000612267611644565b9050611e616fffffffffffffffffffffffffffffffff16612286611644565b1015612297576122963382613805565b5b508080600101915050612255565b5050565b60006122d9826040518060600160405280602981526020016149186029913960026138839092919063ffffffff16565b9050919050565b606060098054600181600116156101000203166002900480601f0160208091040260200160405190810160405280929190818152602001828054600181600116156101000203166002900480156123785780601f1061234d57610100808354040283529160200191612378565b820191906000526020600020905b81548152906001019060200180831161235b57829003601f168201915b5050505050905090565b61238a613260565b73ffffffffffffffffffffffffffffffffffffffff166123a86127e5565b73ffffffffffffffffffffffffffffffffffffffff1614612431576040517f08c379a00000000000000000000000000000000000000000000000000000000081526004018080602001828103825260208152602001807f4f776e61626c653a2063616c6c6572206973206e6f7420746865206f776e657281525060200191505060405180910390fd5b600160460167ffffffffffffffff16600b54825101106124b9576040517f08c379a000000000000000000000000000000000000000000000000000000000815260040180806020018281038252601d8152602001807f43616e27742067696674206d6f7265207468616e203730206974656d7300000081525060200191505060405180910390fd5b611e616fffffffffffffffffffffffffffffffff166124e982516124db611644565b6136f790919063ffffffff16565b1115612540576040517f08c379a00000000000000000000000000000000000000000000000000000000081526004018080602001828103825260228152602001806148426022913960400191505060405180910390fd5b600061254a611644565b905060005b82518110156125955761257783828151811061256757fe5b6020026020010151828401613805565b6001600b60008282540192505081905550808060010191505061254f565b505050565b60008073ffffffffffffffffffffffffffffffffffffffff168273ffffffffffffffffffffffffffffffffffffffff161415612621576040517f08c379a000000000000000000000000000000000000000000000000000000000815260040180806020018281038252602a8152602001806148ee602a913960400191505060405180910390fd5b612668600160008473ffffffffffffffffffffffffffffffffffffffff1673ffffffffffffffffffffffffffffffffffffffff1681526020019081526020016000206138a2565b9050919050565b612677613260565b73ffffffffffffffffffffffffffffffffffffffff166126956127e5565b73ffffffffffffffffffffffffffffffffffffffff161461271e576040517f08c379a00000000000000000000000000000000000000000000000000000000081526004018080602001828103825260208152602001807f4f776e61626c653a2063616c6c6572206973206e6f7420746865206f776e657281525060200191505060405180910390fd5b600073ffffffffffffffffffffffffffffffffffffffff16600a60009054906101000a900473ffffffffffffffffffffffffffffffffffffffff1673ffffffffffffffffffffffffffffffffffffffff167f8be0079c531659141344cd1fd0a4f28419497f9722a3daafe3b4186f6b6457e060405160405180910390a36000600a60006101000a81548173ffffffffffffffffffffffffffffffffffffffff021916908373ffffffffffffffffffffffffffffffffffffffff160217905550565b611b5881565b6000600a60009054906101000a900473ffffffffffffffffffffffffffffffffffffffff16905090565b606060078054600181600116156101000203166002900480601f0160208091040260200160405190810160405280929190818152602001828054600181600116156101000203166002900480156128a75780601f1061287c576101008083540402835291602001916128a7565b820191906000526020600020905b81548152906001019060200180831161288a57829003601f168201915b5050505050905090565b6128b9613260565b73ffffffffffffffffffffffffffffffffffffffff166128d76127e5565b73ffffffffffffffffffffffffffffffffffffffff1614612960576040517f08c379a00000000000000000000000000000000000000000000000000000000081526004018080602001828103825260208152602001807f4f776e61626c653a2063616c6c6572206973206e6f7420746865206f776e657281525060200191505060405180910390fd5b611e616fffffffffffffffffffffffffffffffff1661298f82612981611644565b6136f790919063ffffffff16565b11156129e6576040517f08c379a0000000000000000000000000000000000000000000000000000000008152600401808060200182810382526026815260200180614abd6026913960400191505060405180910390fd5b60006129f0611644565b905060005b82811015612a1657612a0933828401613805565b80806001019150506129f5565b505050565b612a23613260565b73ffffffffffffffffffffffffffffffffffffffff16612a416127e5565b73ffffffffffffffffffffffffffffffffffffffff1614612aca576040517f08c379a00000000000000000000000000000000000000000000000000000000081526004018080602001828103825260208152602001807f4f776e61626c653a2063616c6c6572206973206e6f7420746865206f776e657281525060200191505060405180910390fd5b80600d60006101000a81548163ffffffff021916908363ffffffff16021790555050565b612af6613260565b73ffffffffffffffffffffffffffffffffffffffff168273ffffffffffffffffffffffffffffffffffffffff161415612b97576040517f08c379a00000000000000000000000000000000000000000000000000000000081526004018080602001828103825260198152602001807f4552433732313a20617070726f766520746f2063616c6c65720000000000000081525060200191505060405180910390fd5b8060056000612ba4613260565b73ffffffffffffffffffffffffffffffffffffffff1673ffffffffffffffffffffffffffffffffffffffff16815260200190815260200160002060008473ffffffffffffffffffffffffffffffffffffffff1673ffffffffffffffffffffffffffffffffffffffff16815260200190815260200160002060006101000a81548160ff0219169083151502179055508173ffffffffffffffffffffffffffffffffffffffff16612c51613260565b73ffffffffffffffffffffffffffffffffffffffff167f17307eab39ab6107e8899845ad3d59bd9653f200f220920489ca2b5937696c318360405180821515815260200191505060405180910390a35050565b612cb5612caf613260565b836133c0565b612d0a576040517f08c379a0000000000000000000000000000000000000000000000000000000008152600401808060200182810382526031815260200180614a8c6031913960400191505060405180910390fd5b612d16848484846138b7565b50505050565b611e6181565b6060612d2d82613243565b612d82576040517f08c379a000000000000000000000000000000000000000000000000000000000815260040180806020018281038252602f815260200180614a05602f913960400191505060405180910390fd5b6000612d8c6122e0565b9050600081511415612db9576040518060600160405280603581526020016147e960359139915050612ea2565b6000815111612dd75760405180602001604052806000815250612e9e565b80612de184613929565b6040516020018083805190602001908083835b60208310612e175780518252602082019150602081019050602083039250612df4565b6001836020036101000a03801982511681845116808217855250505050505090500182805190602001908083835b60208310612e685780518252602082019150602081019050602083039250612e45565b6001836020036101000a038019825116818451168082178552505050505050905001925050506040516020818303038152906040525b9150505b919050565b66d529ae9e86000081565b6000600560008473ffffffffffffffffffffffffffffffffffffffff1673ffffffffffffffffffffffffffffffffffffffff16815260200190815260200160002060008373ffffffffffffffffffffffffffffffffffffffff1673ffffffffffffffffffffffffffffffffffffffff16815260200190815260200160002060009054906101000a900460ff16905092915050565b600a60149054906101000a900460ff1681565b612f61613260565b73ffffffffffffffffffffffffffffffffffffffff16612f7f6127e5565b73ffffffffffffffffffffffffffffffffffffffff1614613008576040517f08c379a00000000000000000000000000000000000000000000000000000000081526004018080602001828103825260208152602001807f4f776e61626c653a2063616c6c6572206973206e6f7420746865206f776e657281525060200191505060405180910390fd5b600a60159054906101000a900460ff1615600a60156101000a81548160ff021916908315150217905550565b61303c613260565b73ffffffffffffffffffffffffffffffffffffffff1661305a6127e5565b73ffffffffffffffffffffffffffffffffffffffff16146130e3576040517f08c379a00000000000000000000000000000000000000000000000000000000081526004018080602001828103825260208152602001807f4f776e61626c653a2063616c6c6572206973206e6f7420746865206f776e657281525060200191505060405180910390fd5b600073ffffffffffffffffffffffffffffffffffffffff168173ffffffffffffffffffffffffffffffffffffffff161415613169576040517f08c379a00000000000000000000000000000000000000000000000000000000081526004018080602001828103825260268152602001806147c36026913960400191505060405180910390fd5b8073ffffffffffffffffffffffffffffffffffffffff16600a60009054906101000a900473ffffffffffffffffffffffffffffffffffffffff1673ffffffffffffffffffffffffffffffffffffffff167f8be0079c531659141344cd1fd0a4f28419497f9722a3daafe3b4186f6b6457e060405160405180910390a380600a60006101000a81548173ffffffffffffffffffffffffffffffffffffffff021916908373ffffffffffffffffffffffffffffffffffffffff16021790555050565b6000600d60009054906101000a900463ffffffff16905090565b6000613259826002613a7090919063ffffffff16565b9050919050565b600033905090565b816004600083815260200190815260200160002060006101000a81548173ffffffffffffffffffffffffffffffffffffffff021916908373ffffffffffffffffffffffffffffffffffffffff160217905550808273ffffffffffffffffffffffffffffffffffffffff166132db836122a9565b73ffffffffffffffffffffffffffffffffffffffff167f8c5be1e5ebec7d5bd14f71427d1e84f3dd0314c0f7b2291e5b200ac8c7c3b92560405160405180910390a45050565b61332a82613243565b61337f576040517f08c379a000000000000000000000000000000000000000000000000000000000815260040180806020018281038252602c8152602001806149b0602c913960400191505060405180910390fd5b806008600084815260200190815260200160002090805190602001906133a69291906146c3565b505050565b60006133b982600001613a8a565b9050919050565b60006133cb82613243565b613420576040517f08c379a000000000000000000000000000000000000000000000000000000000815260040180806020018281038252602c81526020018061488a602c913960400191505060405180910390fd5b600061342b836122a9565b90508073ffffffffffffffffffffffffffffffffffffffff168473ffffffffffffffffffffffffffffffffffffffff16148061349a57508373ffffffffffffffffffffffffffffffffffffffff16613482846113a3565b73ffffffffffffffffffffffffffffffffffffffff16145b806134ab57506134aa8185612eb2565b5b91505092915050565b8273ffffffffffffffffffffffffffffffffffffffff166134d4826122a9565b73ffffffffffffffffffffffffffffffffffffffff1614613540576040517f08c379a00000000000000000000000000000000000000000000000000000000081526004018080602001828103825260298152602001806149dc6029913960400191505060405180910390fd5b600073ffffffffffffffffffffffffffffffffffffffff168273ffffffffffffffffffffffffffffffffffffffff1614156135c6576040517f08c379a000000000000000000000000000000000000000000000000000000000815260040180806020018281038252602481526020018061481e6024913960400191505060405180910390fd5b6135d1838383613a9b565b6135dc600082613268565b61362d81600160008673ffffffffffffffffffffffffffffffffffffffff1673ffffffffffffffffffffffffffffffffffffffff168152602001908152602001600020613aa090919063ffffffff16565b5061367f81600160008573ffffffffffffffffffffffffffffffffffffffff1673ffffffffffffffffffffffffffffffffffffffff168152602001908152602001600020613aba90919063ffffffff16565b5061369681836002613ad49092919063ffffffff16565b50808273ffffffffffffffffffffffffffffffffffffffff168473ffffffffffffffffffffffffffffffffffffffff167fddf252ad1be2c89b69c2b068fc378daa952ba7f163c4a11628f55a4df523b3ef60405160405180910390a4505050565b600080828401905083811015613775576040517f08c379a000000000000000000000000000000000000000000000000000000000815260040180806020018281038252601b8152602001807f536166654d6174683a206164646974696f6e206f766572666c6f77000000000081525060200191505060405180910390fd5b8091505092915050565b60008083141561379257600090506137ff565b60008284029050828482816137a357fe5b04146137fa576040517f08c379a00000000000000000000000000000000000000000000000000000000081526004018080602001828103825260218152602001806149636021913960400191505060405180910390fd5b809150505b92915050565b61381f828260405180602001604052806000815250613b09565b5050565b60006138328360000183613b7a565b60001c905092915050565b6000806000806138508660000186613bfd565b915091508160001c8160001c9350935050509250929050565b806009908051906020019061387f9291906146c3565b5050565b6000613896846000018460001b84613c96565b60001c90509392505050565b60006138b082600001613d8c565b9050919050565b6138c28484846134b4565b6138ce84848484613d9d565b613923576040517f08c379a00000000000000000000000000000000000000000000000000000000081526004018080602001828103825260328152602001806147916032913960400191505060405180910390fd5b50505050565b60606000821415613971576040518060400160405280600181526020017f30000000000000000000000000000000000000000000000000000000000000008152509050613a6b565b600082905060005b6000821461399b578080600101915050600a828161399357fe5b049150613979565b60008167ffffffffffffffff811180156139b457600080fd5b506040519080825280601f01601f1916602001820160405280156139e75781602001600182028036833780820191505090505b50905060006001830390508593505b60008414613a6357600a8481613a0857fe5b0660300160f81b82828060019003935081518110613a2257fe5b60200101907effffffffffffffffffffffffffffffffffffffffffffffffffffffffffffff1916908160001a905350600a8481613a5b57fe5b0493506139f6565b819450505050505b919050565b6000613a82836000018360001b613fb6565b905092915050565b600081600001805490509050919050565b505050565b6000613ab2836000018360001b613fd9565b905092915050565b6000613acc836000018360001b6140c1565b905092915050565b6000613b00846000018460001b8473ffffffffffffffffffffffffffffffffffffffff1660001b614131565b90509392505050565b613b13838361420d565b613b206000848484613d9d565b613b75576040517f08c379a00000000000000000000000000000000000000000000000000000000081526004018080602001828103825260328152602001806147916032913960400191505060405180910390fd5b505050565b600081836000018054905011613bdb576040517f08c379a000000000000000000000000000000000000000000000000000000000815260040180806020018281038252602281526020018061476f6022913960400191505060405180910390fd5b826000018281548110613bea57fe5b9060005260206000200154905092915050565b60008082846000018054905011613c5f576040517f08c379a00000000000000000000000000000000000000000000000000000000081526004018080602001828103825260228152602001806149416022913960400191505060405180910390fd5b6000846000018481548110613c7057fe5b906000526020600020906002020190508060000154816001015492509250509250929050565b60008084600101600085815260200190815260200160002054905060008114158390613d5d576040517f08c379a00000000000000000000000000000000000000000000000000000000081526004018080602001828103825283818151815260200191508051906020019080838360005b83811015613d22578082015181840152602081019050613d07565b50505050905090810190601f168015613d4f5780820380516001836020036101000a031916815260200191505b509250505060405180910390fd5b50846000016001820381548110613d7057fe5b9060005260206000209060020201600101549150509392505050565b600081600001805490509050919050565b6000613dbe8473ffffffffffffffffffffffffffffffffffffffff16614401565b613dcb5760019050613fae565b6000613f3563150b7a0260e01b613de0613260565b888787604051602401808573ffffffffffffffffffffffffffffffffffffffff1681526020018473ffffffffffffffffffffffffffffffffffffffff16815260200183815260200180602001828103825283818151815260200191508051906020019080838360005b83811015613e64578082015181840152602081019050613e49565b50505050905090810190601f168015613e915780820380516001836020036101000a031916815260200191505b5095505050505050604051602081830303815290604052907bffffffffffffffffffffffffffffffffffffffffffffffffffffffff19166020820180517bffffffffffffffffffffffffffffffffffffffffffffffffffffffff8381831617835250505050604051806060016040528060328152602001614791603291398773ffffffffffffffffffffffffffffffffffffffff166144149092919063ffffffff16565b90506000818060200190516020811015613f4e57600080fd5b8101908080519060200190929190505050905063150b7a0260e01b7bffffffffffffffffffffffffffffffffffffffffffffffffffffffff1916817bffffffffffffffffffffffffffffffffffffffffffffffffffffffff191614925050505b949350505050565b600080836001016000848152602001908152602001600020541415905092915050565b600080836001016000848152602001908152602001600020549050600081146140b5576000600182039050600060018660000180549050039050600086600001828154811061402457fe5b906000526020600020015490508087600001848154811061404157fe5b906000526020600020018190555060018301876001016000838152602001908152602001600020819055508660000180548061407957fe5b600190038181906000526020600020016000905590558660010160008781526020019081526020016000206000905560019450505050506140bb565b60009150505b92915050565b60006140cd838361442c565b61412657826000018290806001815401808255809150506001900390600052602060002001600090919091909150558260000180549050836001016000848152602001908152602001600020819055506001905061412b565b600090505b92915050565b60008084600101600085815260200190815260200160002054905060008114156141d857846000016040518060400160405280868152602001858152509080600181540180825580915050600190039060005260206000209060020201600090919091909150600082015181600001556020820151816001015550508460000180549050856001016000868152602001908152602001600020819055506001915050614206565b828560000160018303815481106141eb57fe5b90600052602060002090600202016001018190555060009150505b9392505050565b600073ffffffffffffffffffffffffffffffffffffffff168273ffffffffffffffffffffffffffffffffffffffff1614156142b0576040517f08c379a00000000000000000000000000000000000000000000000000000000081526004018080602001828103825260208152602001807f4552433732313a206d696e7420746f20746865207a65726f206164647265737381525060200191505060405180910390fd5b6142b981613243565b1561432c576040517f08c379a000000000000000000000000000000000000000000000000000000000815260040180806020018281038252601c8152602001807f4552433732313a20746f6b656e20616c7265616479206d696e7465640000000081525060200191505060405180910390fd5b61433860008383613a9b565b61438981600160008573ffffffffffffffffffffffffffffffffffffffff1673ffffffffffffffffffffffffffffffffffffffff168152602001908152602001600020613aba90919063ffffffff16565b506143a081836002613ad49092919063ffffffff16565b50808273ffffffffffffffffffffffffffffffffffffffff16600073ffffffffffffffffffffffffffffffffffffffff167fddf252ad1be2c89b69c2b068fc378daa952ba7f163c4a11628f55a4df523b3ef60405160405180910390a45050565b600080823b905060008111915050919050565b6060614423848460008561444f565b90509392505050565b600080836001016000848152602001908152602001600020541415905092915050565b6060824710156144aa576040517f08c379a00000000000000000000000000000000000000000000000000000000081526004018080602001828103825260268152602001806148646026913960400191505060405180910390fd5b6144b385614401565b614525576040517f08c379a000000000000000000000000000000000000000000000000000000000815260040180806020018281038252601d8152602001807f416464726573733a2063616c6c20746f206e6f6e2d636f6e747261637400000081525060200191505060405180910390fd5b6000808673ffffffffffffffffffffffffffffffffffffffff1685876040518082805190602001908083835b602083106145745780518252602082019150602081019050602083039250614551565b6001836020036101000a03801982511681845116808217855250505050505090500191505060006040518083038185875af1925050503d80600081146145d6576040519150601f19603f3d011682016040523d82523d6000602084013e6145db565b606091505b50915091506145eb8282866145f7565b92505050949350505050565b60608315614607578290506146bc565b60008351111561461a5782518084602001fd5b816040517f08c379a00000000000000000000000000000000000000000000000000000000081526004018080602001828103825283818151815260200191508051906020019080838360005b83811015614681578082015181840152602081019050614666565b50505050905090810190601f1680156146ae5780820380516001836020036101000a031916815260200191505b509250505060405180910390fd5b9392505050565b828054600181600116156101000203166002900490600052602060002090601f0160209004810192826146f95760008555614740565b82601f1061471257805160ff1916838001178555614740565b82800160010185558215614740579182015b8281111561473f578251825591602001919060010190614724565b5b50905061474d9190614751565b5090565b5b8082111561476a576000816000905550600101614752565b509056fe456e756d657261626c655365743a20696e646578206f7574206f6620626f756e64734552433732313a207472616e7366657220746f206e6f6e20455243373231526563656976657220696d706c656d656e7465724f776e61626c653a206e6577206f776e657220697320746865207a65726f2061646472657373697066733a2f2f516d57754365484c3175616a6a4e454c4b6665483138617a5a334b5342315966665474626a614e4a715a703139664552433732313a207472616e7366657220746f20746865207a65726f206164647265737347696674206974656d7320776f756c6420657863656564206d617820737570706c79416464726573733a20696e73756666696369656e742062616c616e636520666f722063616c6c4552433732313a206f70657261746f7220717565727920666f72206e6f6e6578697374656e7420746f6b656e4552433732313a20617070726f76652063616c6c6572206973206e6f74206f776e6572206e6f7220617070726f76656420666f7220616c6c4552433732313a2062616c616e636520717565727920666f7220746865207a65726f20616464726573734552433732313a206f776e657220717565727920666f72206e6f6e6578697374656e7420746f6b656e456e756d657261626c654d61703a20696e646578206f7574206f6620626f756e6473536166654d6174683a206d756c7469706c69636174696f6e206f766572666c6f774552433732313a20617070726f76656420717565727920666f72206e6f6e6578697374656e7420746f6b656e4552433732314d657461646174613a2055524920736574206f66206e6f6e6578697374656e7420746f6b656e4552433732313a207472616e73666572206f6620746f6b656e2074686174206973206e6f74206f776e4552433732314d657461646174613a2055524920717565727920666f72206e6f6e6578697374656e7420746f6b656e4552433732313a20617070726f76616c20746f2063757272656e74206f776e6572596f7520617265206e6f7420616c6c6f77656420746f20706172746563697061746520746f20746865207072652073616c65206d696e744552433732313a207472616e736665722063616c6c6572206973206e6f74206f776e6572206e6f7220617070726f7665645265736572766564206974656d7320776f756c6420657863656564206d617820737570706c79a2646970667358221220ea313973c09f6e7a887f44f2c406fdef9a5459b63e8291ae9dfe2cc6ace7c60064736f6c63430007060033",
  "immutableReferences": {},
  "source": "\n// SPDX-License-Identifier: MIT\n\npragma solidity ^0.7.6;\n\nimport \"openzeppelin-solidity/contracts/token/ERC721/ERC721.sol\";\nimport \"openzeppelin-solidity/contracts/access/Ownable.sol\";\nimport \"openzeppelin-solidity/contracts/math/SafeMath.sol\";\n\ncontract SportSuperstars is ERC721, Ownable {\n\n    using SafeMath for uint256;\n    \n    event Transfer(address _to, uint _value);\n\n    bool public saleIsActive = false;\n    bool public preSaleIsActive = false;\n\n    uint256 public constant itemPrice = 0.06 ether;\n    uint64 public constant GIFT_ITEMS = 70;\n    uint64 public constant PREADOPT_ITEMS = 700;\n    uint64 public constant ADOPT_ITEMS = 7000;\n    uint128 public constant TOTAL_ITEMS = 7777;\n    uint128 public constant MAX_ITEMS_PER_MINT = 10;\n\n    uint256 private giftItems = 0;\n    uint256 private preSaleItems = 0;\n    string private constant IPFS_GUESS_ITEM = \"ipfs://QmWuCeHL1uajjNELKfeH18azZ3KSB1YffTtbjaNJqZp19f\";\n\n    uint32 private _presaleMapIndex = 1;\n\n    mapping (uint32 => mapping (address => uint32)) private _preSaleAddress;\n\n    constructor() ERC721(\"Sport Superstars\", \"SSS\") {\n    }\n\n    function withdraw() public onlyOwner {\n        uint balance = address(this).balance;\n        msg.sender.transfer(balance);\n        emit Transfer(msg.sender, balance);\n    }\n    \n    function flipSaleState() public onlyOwner {\n        saleIsActive = !saleIsActive;\n    }\n    \n    function flipPreSaleState() public onlyOwner {\n        preSaleIsActive = !preSaleIsActive;\n    }\n\n    function setPreSaleMapIndex(uint32 mapIndex) public onlyOwner {\n        _presaleMapIndex = mapIndex;\n    }\n\n    function setPreSalesAddresses( address [] memory recipients ) public onlyOwner {   \n        for( uint256 i ; i < recipients.length; i++ ){\n            _preSaleAddress[_presaleMapIndex][recipients[i]] = 1;\n        }\n    }\n\n    function setBaseURI(string memory baseURI) public onlyOwner {\n        _setBaseURI(baseURI);\n    }\n    \n    function setTokenURI(uint256 tokenId, string memory _tokenURI) public onlyOwner {\n        _setTokenURI(tokenId, _tokenURI);\n    }\n\n    function getPreSaleMapIndex() public view returns( uint32 ) {\n        return _presaleMapIndex;\n    }\n\n    function isAddressAllowedForPreSale(address recipient ) public view returns( bool ) {   \n        return    _preSaleAddress[_presaleMapIndex][recipient] > 0;\n    }\n\n    function getGiftItems() public view returns( uint256 ){\n        return giftItems;\n    }\n\n    function getPreSaleItems() public view returns( uint256 ){\n        return preSaleItems;\n    }\n\n    function reserveItems(uint numberOfTokens) public onlyOwner {        \n        require(totalSupply().add(numberOfTokens) <= TOTAL_ITEMS, \"Reserved items would exceed max supply\");\n        uint supply = totalSupply();\n        uint i;\n        for (i = 0; i < numberOfTokens; i++) {\n            _safeMint(msg.sender, supply + i);\n        }\n    }\n\n    function giftSportSuperstars( address [] memory recipients ) public onlyOwner {\n        require(recipients.length + giftItems < GIFT_ITEMS + 1, \"Can't gift more than 70 items\");\n        require(totalSupply().add(recipients.length) <= TOTAL_ITEMS, \"Gift items would exceed max supply\");\n        uint256 supply = totalSupply();        \n        for( uint256 i ; i < recipients.length; i++ ){\n            _safeMint(recipients[i], supply + i );\n            giftItems += 1;\n        }\n    }\n\n    function mintPreSaleSportSuperstars(uint numberOfTokens) public payable {\n        require(preSaleIsActive, \"Pre sale must be active to mint\");\n        require(_preSaleAddress[_presaleMapIndex][msg.sender] > 0, \"You are not allowed to partecipate to the pre sale mint\");\n        require(numberOfTokens + preSaleItems < PREADOPT_ITEMS + 1, \"Can't mint more than 700 items\");\n        require(numberOfTokens <= MAX_ITEMS_PER_MINT, \"Can't mint more than 10 items\");\n        require(totalSupply().add(numberOfTokens) <= TOTAL_ITEMS, \"Purchase would exceed max supply\");\n        require(msg.value == itemPrice.mul(numberOfTokens), \"Ether value sent is not correct\");\n        \n        for(uint i = 0; i < numberOfTokens; i++) {\n            uint mintIndex = totalSupply();\n            if (totalSupply() < TOTAL_ITEMS && preSaleItems < PREADOPT_ITEMS + 1) {\n                _safeMint(msg.sender, mintIndex);\n                preSaleItems += 1;\n            }\n        }\n    }\n\n    function mintSportSuperstars(uint numberOfTokens) public payable {\n        require(saleIsActive, \"Sale must be active to mint\");\n        require(numberOfTokens <= MAX_ITEMS_PER_MINT, \"Can't mint more than 10 items\");\n        require(totalSupply().add(numberOfTokens) <= TOTAL_ITEMS, \"Purchase would exceed max supply\");\n        require(msg.value == itemPrice.mul(numberOfTokens), \"Ether value sent is not correct\");\n        \n        for(uint i = 0; i < numberOfTokens; i++) {\n            uint mintIndex = totalSupply();\n            if (totalSupply() < TOTAL_ITEMS) {\n                _safeMint(msg.sender, mintIndex);\n            }\n        }\n    }\n\n    function tokenURI(uint256 tokenId) public view virtual override returns (string memory) {\n        require(_exists(tokenId), \"ERC721Metadata: URI query for nonexistent token\");\n\n        string memory baseURI = baseURI();\n        if( bytes(baseURI).length == 0 ){\n            return IPFS_GUESS_ITEM;\n        }\n        return bytes(baseURI).length > 0 ? string(abi.encodePacked(baseURI, Strings.toString(tokenId))) : \"\";\n    }\n}",
  "sourcePath": "/Users/gianmarco/dev/projects/sport-superstars/contracts/SportSuperstars.sol",
  "compiler": {
    "name": "solc",
    "version": "0.7.6+commit.7338295f.Emscripten.clang"
  },
  "schemaVersion": "3.4.3",
  "updatedAt": "2022-01-07T13:57:38.238Z",
  "devdoc": {
    "kind": "dev",
    "methods": {
      "approve(address,uint256)": {
        "details": "See {IERC721-approve}."
      },
      "balanceOf(address)": {
        "details": "See {IERC721-balanceOf}."
      },
      "baseURI()": {
        "details": "Returns the base URI set via {_setBaseURI}. This will be automatically added as a prefix in {tokenURI} to each token's URI, or to the token ID if no specific URI is set for that token ID."
      },
      "getApproved(uint256)": {
        "details": "See {IERC721-getApproved}."
      },
      "isApprovedForAll(address,address)": {
        "details": "See {IERC721-isApprovedForAll}."
      },
      "name()": {
        "details": "See {IERC721Metadata-name}."
      },
      "owner()": {
        "details": "Returns the address of the current owner."
      },
      "ownerOf(uint256)": {
        "details": "See {IERC721-ownerOf}."
      },
      "renounceOwnership()": {
        "details": "Leaves the contract without owner. It will not be possible to call `onlyOwner` functions anymore. Can only be called by the current owner. NOTE: Renouncing ownership will leave the contract without an owner, thereby removing any functionality that is only available to the owner."
      },
      "safeTransferFrom(address,address,uint256)": {
        "details": "See {IERC721-safeTransferFrom}."
      },
      "safeTransferFrom(address,address,uint256,bytes)": {
        "details": "See {IERC721-safeTransferFrom}."
      },
      "setApprovalForAll(address,bool)": {
        "details": "See {IERC721-setApprovalForAll}."
      },
      "supportsInterface(bytes4)": {
        "details": "See {IERC165-supportsInterface}. Time complexity O(1), guaranteed to always use less than 30 000 gas."
      },
      "symbol()": {
        "details": "See {IERC721Metadata-symbol}."
      },
      "tokenByIndex(uint256)": {
        "details": "See {IERC721Enumerable-tokenByIndex}."
      },
      "tokenOfOwnerByIndex(address,uint256)": {
        "details": "See {IERC721Enumerable-tokenOfOwnerByIndex}."
      },
      "tokenURI(uint256)": {
        "details": "See {IERC721Metadata-tokenURI}."
      },
      "totalSupply()": {
        "details": "See {IERC721Enumerable-totalSupply}."
      },
      "transferFrom(address,address,uint256)": {
        "details": "See {IERC721-transferFrom}."
      },
      "transferOwnership(address)": {
        "details": "Transfers ownership of the contract to a new account (`newOwner`). Can only be called by the current owner."
      }
    },
    "version": 1
  },
  "userdoc": {
    "kind": "user",
    "methods": {},
    "version": 1
  }
}