{
  "contractName": "SportSuperstars",
  "abi": [
    {
      "inputs": [],
      "stateMutability": "nonpayable",
      "type": "constructor"
    },
    {
      "anonymous": false,
      "inputs": [
        {
          "indexed": true,
          "internalType": "address",
          "name": "owner",
          "type": "address"
        },
        {
          "indexed": true,
          "internalType": "address",
          "name": "approved",
          "type": "address"
        },
        {
          "indexed": true,
          "internalType": "uint256",
          "name": "tokenId",
          "type": "uint256"
        }
      ],
      "name": "Approval",
      "type": "event"
    },
    {
      "anonymous": false,
      "inputs": [
        {
          "indexed": true,
          "internalType": "address",
          "name": "owner",
          "type": "address"
        },
        {
          "indexed": true,
          "internalType": "address",
          "name": "operator",
          "type": "address"
        },
        {
          "indexed": false,
          "internalType": "bool",
          "name": "approved",
          "type": "bool"
        }
      ],
      "name": "ApprovalForAll",
      "type": "event"
    },
    {
      "anonymous": false,
      "inputs": [
        {
          "indexed": true,
          "internalType": "address",
          "name": "previousOwner",
          "type": "address"
        },
        {
          "indexed": true,
          "internalType": "address",
          "name": "newOwner",
          "type": "address"
        }
      ],
      "name": "OwnershipTransferred",
      "type": "event"
    },
    {
      "anonymous": false,
      "inputs": [
        {
          "indexed": false,
          "internalType": "address",
          "name": "_to",
          "type": "address"
        },
        {
          "indexed": false,
          "internalType": "uint256",
          "name": "_value",
          "type": "uint256"
        }
      ],
      "name": "Transfer",
      "type": "event"
    },
    {
      "anonymous": false,
      "inputs": [
        {
          "indexed": true,
          "internalType": "address",
          "name": "from",
          "type": "address"
        },
        {
          "indexed": true,
          "internalType": "address",
          "name": "to",
          "type": "address"
        },
        {
          "indexed": true,
          "internalType": "uint256",
          "name": "tokenId",
          "type": "uint256"
        }
      ],
      "name": "Transfer",
      "type": "event"
    },
    {
      "inputs": [],
      "name": "ADOPT_ITEMS",
      "outputs": [
        {
          "internalType": "uint64",
          "name": "",
          "type": "uint64"
        }
      ],
      "stateMutability": "view",
      "type": "function",
      "constant": true
    },
    {
      "inputs": [],
      "name": "GIFT_ITEMS",
      "outputs": [
        {
          "internalType": "uint64",
          "name": "",
          "type": "uint64"
        }
      ],
      "stateMutability": "view",
      "type": "function",
      "constant": true
    },
    {
      "inputs": [],
      "name": "MAX_ITEMS_PER_MINT",
      "outputs": [
        {
          "internalType": "uint128",
          "name": "",
          "type": "uint128"
        }
      ],
      "stateMutability": "view",
      "type": "function",
      "constant": true
    },
    {
      "inputs": [],
      "name": "PREADOPT_ITEMS",
      "outputs": [
        {
          "internalType": "uint64",
          "name": "",
          "type": "uint64"
        }
      ],
      "stateMutability": "view",
      "type": "function",
      "constant": true
    },
    {
      "inputs": [],
      "name": "RESERVED_ITEMS",
      "outputs": [
        {
          "internalType": "uint64",
          "name": "",
          "type": "uint64"
        }
      ],
      "stateMutability": "view",
      "type": "function",
      "constant": true
    },
    {
      "inputs": [],
      "name": "TOTAL_ITEMS",
      "outputs": [
        {
          "internalType": "uint128",
          "name": "",
          "type": "uint128"
        }
      ],
      "stateMutability": "view",
      "type": "function",
      "constant": true
    },
    {
      "inputs": [
        {
          "internalType": "address",
          "name": "to",
          "type": "address"
        },
        {
          "internalType": "uint256",
          "name": "tokenId",
          "type": "uint256"
        }
      ],
      "name": "approve",
      "outputs": [],
      "stateMutability": "nonpayable",
      "type": "function"
    },
    {
      "inputs": [
        {
          "internalType": "address",
          "name": "owner",
          "type": "address"
        }
      ],
      "name": "balanceOf",
      "outputs": [
        {
          "internalType": "uint256",
          "name": "",
          "type": "uint256"
        }
      ],
      "stateMutability": "view",
      "type": "function",
      "constant": true
    },
    {
      "inputs": [],
      "name": "baseURI",
      "outputs": [
        {
          "internalType": "string",
          "name": "",
          "type": "string"
        }
      ],
      "stateMutability": "view",
      "type": "function",
      "constant": true
    },
    {
      "inputs": [
        {
          "internalType": "uint256",
          "name": "tokenId",
          "type": "uint256"
        }
      ],
      "name": "getApproved",
      "outputs": [
        {
          "internalType": "address",
          "name": "",
          "type": "address"
        }
      ],
      "stateMutability": "view",
      "type": "function",
      "constant": true
    },
    {
      "inputs": [
        {
          "internalType": "address",
          "name": "owner",
          "type": "address"
        },
        {
          "internalType": "address",
          "name": "operator",
          "type": "address"
        }
      ],
      "name": "isApprovedForAll",
      "outputs": [
        {
          "internalType": "bool",
          "name": "",
          "type": "bool"
        }
      ],
      "stateMutability": "view",
      "type": "function",
      "constant": true
    },
    {
      "inputs": [],
      "name": "itemPrice",
      "outputs": [
        {
          "internalType": "uint256",
          "name": "",
          "type": "uint256"
        }
      ],
      "stateMutability": "view",
      "type": "function",
      "constant": true
    },
    {
      "inputs": [],
      "name": "name",
      "outputs": [
        {
          "internalType": "string",
          "name": "",
          "type": "string"
        }
      ],
      "stateMutability": "view",
      "type": "function",
      "constant": true
    },
    {
      "inputs": [],
      "name": "owner",
      "outputs": [
        {
          "internalType": "address",
          "name": "",
          "type": "address"
        }
      ],
      "stateMutability": "view",
      "type": "function",
      "constant": true
    },
    {
      "inputs": [
        {
          "internalType": "uint256",
          "name": "tokenId",
          "type": "uint256"
        }
      ],
      "name": "ownerOf",
      "outputs": [
        {
          "internalType": "address",
          "name": "",
          "type": "address"
        }
      ],
      "stateMutability": "view",
      "type": "function",
      "constant": true
    },
    {
      "inputs": [],
      "name": "preSaleIsActive",
      "outputs": [
        {
          "internalType": "bool",
          "name": "",
          "type": "bool"
        }
      ],
      "stateMutability": "view",
      "type": "function",
      "constant": true
    },
    {
      "inputs": [],
      "name": "renounceOwnership",
      "outputs": [],
      "stateMutability": "nonpayable",
      "type": "function"
    },
    {
      "inputs": [
        {
          "internalType": "address",
          "name": "from",
          "type": "address"
        },
        {
          "internalType": "address",
          "name": "to",
          "type": "address"
        },
        {
          "internalType": "uint256",
          "name": "tokenId",
          "type": "uint256"
        }
      ],
      "name": "safeTransferFrom",
      "outputs": [],
      "stateMutability": "nonpayable",
      "type": "function"
    },
    {
      "inputs": [
        {
          "internalType": "address",
          "name": "from",
          "type": "address"
        },
        {
          "internalType": "address",
          "name": "to",
          "type": "address"
        },
        {
          "internalType": "uint256",
          "name": "tokenId",
          "type": "uint256"
        },
        {
          "internalType": "bytes",
          "name": "_data",
          "type": "bytes"
        }
      ],
      "name": "safeTransferFrom",
      "outputs": [],
      "stateMutability": "nonpayable",
      "type": "function"
    },
    {
      "inputs": [],
      "name": "saleIsActive",
      "outputs": [
        {
          "internalType": "bool",
          "name": "",
          "type": "bool"
        }
      ],
      "stateMutability": "view",
      "type": "function",
      "constant": true
    },
    {
      "inputs": [
        {
          "internalType": "address",
          "name": "operator",
          "type": "address"
        },
        {
          "internalType": "bool",
          "name": "approved",
          "type": "bool"
        }
      ],
      "name": "setApprovalForAll",
      "outputs": [],
      "stateMutability": "nonpayable",
      "type": "function"
    },
    {
      "inputs": [
        {
          "internalType": "bytes4",
          "name": "interfaceId",
          "type": "bytes4"
        }
      ],
      "name": "supportsInterface",
      "outputs": [
        {
          "internalType": "bool",
          "name": "",
          "type": "bool"
        }
      ],
      "stateMutability": "view",
      "type": "function",
      "constant": true
    },
    {
      "inputs": [],
      "name": "symbol",
      "outputs": [
        {
          "internalType": "string",
          "name": "",
          "type": "string"
        }
      ],
      "stateMutability": "view",
      "type": "function",
      "constant": true
    },
    {
      "inputs": [
        {
          "internalType": "uint256",
          "name": "index",
          "type": "uint256"
        }
      ],
      "name": "tokenByIndex",
      "outputs": [
        {
          "internalType": "uint256",
          "name": "",
          "type": "uint256"
        }
      ],
      "stateMutability": "view",
      "type": "function",
      "constant": true
    },
    {
      "inputs": [
        {
          "internalType": "address",
          "name": "owner",
          "type": "address"
        },
        {
          "internalType": "uint256",
          "name": "index",
          "type": "uint256"
        }
      ],
      "name": "tokenOfOwnerByIndex",
      "outputs": [
        {
          "internalType": "uint256",
          "name": "",
          "type": "uint256"
        }
      ],
      "stateMutability": "view",
      "type": "function",
      "constant": true
    },
    {
      "inputs": [],
      "name": "totalSupply",
      "outputs": [
        {
          "internalType": "uint256",
          "name": "",
          "type": "uint256"
        }
      ],
      "stateMutability": "view",
      "type": "function",
      "constant": true
    },
    {
      "inputs": [
        {
          "internalType": "address",
          "name": "from",
          "type": "address"
        },
        {
          "internalType": "address",
          "name": "to",
          "type": "address"
        },
        {
          "internalType": "uint256",
          "name": "tokenId",
          "type": "uint256"
        }
      ],
      "name": "transferFrom",
      "outputs": [],
      "stateMutability": "nonpayable",
      "type": "function"
    },
    {
      "inputs": [
        {
          "internalType": "address",
          "name": "newOwner",
          "type": "address"
        }
      ],
      "name": "transferOwnership",
      "outputs": [],
      "stateMutability": "nonpayable",
      "type": "function"
    },
    {
      "inputs": [],
      "name": "withdraw",
      "outputs": [],
      "stateMutability": "nonpayable",
      "type": "function"
    },
    {
      "inputs": [],
      "name": "flipSaleState",
      "outputs": [],
      "stateMutability": "nonpayable",
      "type": "function"
    },
    {
      "inputs": [],
      "name": "flipPreSaleState",
      "outputs": [],
      "stateMutability": "nonpayable",
      "type": "function"
    },
    {
      "inputs": [
        {
          "internalType": "uint32",
          "name": "mapIndex",
          "type": "uint32"
        }
      ],
      "name": "setPreSaleMapIndex",
      "outputs": [],
      "stateMutability": "nonpayable",
      "type": "function"
    },
    {
      "inputs": [
        {
          "internalType": "address[]",
          "name": "recipients",
          "type": "address[]"
        }
      ],
      "name": "setPreSalesAddresses",
      "outputs": [],
      "stateMutability": "nonpayable",
      "type": "function"
    },
    {
      "inputs": [
        {
          "internalType": "string",
          "name": "baseURI",
          "type": "string"
        }
      ],
      "name": "setBaseURI",
      "outputs": [],
      "stateMutability": "nonpayable",
      "type": "function"
    },
    {
      "inputs": [
        {
          "internalType": "uint256",
          "name": "tokenId",
          "type": "uint256"
        },
        {
          "internalType": "string",
          "name": "_tokenURI",
          "type": "string"
        }
      ],
      "name": "setTokenURI",
      "outputs": [],
      "stateMutability": "nonpayable",
      "type": "function"
    },
    {
      "inputs": [],
      "name": "getPreSaleMapIndex",
      "outputs": [
        {
          "internalType": "uint32",
          "name": "",
          "type": "uint32"
        }
      ],
      "stateMutability": "view",
      "type": "function",
      "constant": true
    },
    {
      "inputs": [
        {
          "internalType": "address",
          "name": "recipient",
          "type": "address"
        }
      ],
      "name": "isAddressAllowedForPreSale",
      "outputs": [
        {
          "internalType": "bool",
          "name": "",
          "type": "bool"
        }
      ],
      "stateMutability": "view",
      "type": "function",
      "constant": true
    },
    {
      "inputs": [],
      "name": "getGiftItems",
      "outputs": [
        {
          "internalType": "uint256",
          "name": "",
          "type": "uint256"
        }
      ],
      "stateMutability": "view",
      "type": "function",
      "constant": true
    },
    {
      "inputs": [],
      "name": "getPreSaleItems",
      "outputs": [
        {
          "internalType": "uint256",
          "name": "",
          "type": "uint256"
        }
      ],
      "stateMutability": "view",
      "type": "function",
      "constant": true
    },
    {
      "inputs": [],
      "name": "reserveItems",
      "outputs": [],
      "stateMutability": "nonpayable",
      "type": "function"
    },
    {
      "inputs": [
        {
          "internalType": "address[]",
          "name": "recipients",
          "type": "address[]"
        }
      ],
      "name": "giftSportSuperstars",
      "outputs": [],
      "stateMutability": "nonpayable",
      "type": "function"
    },
    {
      "inputs": [
        {
          "internalType": "uint256",
          "name": "numberOfTokens",
          "type": "uint256"
        }
      ],
      "name": "mintPreSaleSportSuperstars",
      "outputs": [],
      "stateMutability": "payable",
      "type": "function",
      "payable": true
    },
    {
      "inputs": [
        {
          "internalType": "uint256",
          "name": "numberOfTokens",
          "type": "uint256"
        }
      ],
      "name": "mintSportSuperstars",
      "outputs": [],
      "stateMutability": "payable",
      "type": "function",
      "payable": true
    },
    {
      "inputs": [
        {
          "internalType": "uint256",
          "name": "tokenId",
          "type": "uint256"
        }
      ],
      "name": "tokenURI",
      "outputs": [
        {
          "internalType": "string",
          "name": "",
          "type": "string"
        }
      ],
      "stateMutability": "view",
      "type": "function",
      "constant": true
    }
  ],
  "bytecode": "0x60806040526000600a60146101000a81548160ff0219169083151502179055506000600a60156101000a81548160ff0219169083151502179055506000600b556000600c556001600d60006101000a81548163ffffffff021916908363ffffffff1602179055503480156200007357600080fd5b506040518060400160405280601081526020017f53706f72742053757065727374617273000000000000000000000000000000008152506040518060400160405280600381526020017f5353530000000000000000000000000000000000000000000000000000000000815250620000f86301ffc9a760e01b6200022b60201b60201c565b8160069080519060200190620001109291906200033c565b508060079080519060200190620001299291906200033c565b50620001426380ac58cd60e01b6200022b60201b60201c565b6200015a635b5e139f60e01b6200022b60201b60201c565b6200017263780e9d6360e01b6200022b60201b60201c565b50506000620001866200033460201b60201c565b905080600a60006101000a81548173ffffffffffffffffffffffffffffffffffffffff021916908373ffffffffffffffffffffffffffffffffffffffff1602179055508073ffffffffffffffffffffffffffffffffffffffff16600073ffffffffffffffffffffffffffffffffffffffff167f8be0079c531659141344cd1fd0a4f28419497f9722a3daafe3b4186f6b6457e060405160405180910390a350620003f2565b63ffffffff60e01b817bffffffffffffffffffffffffffffffffffffffffffffffffffffffff19161415620002c8576040517f08c379a000000000000000000000000000000000000000000000000000000000815260040180806020018281038252601c8152602001807f4552433136353a20696e76616c696420696e746572666163652069640000000081525060200191505060405180910390fd5b6001600080837bffffffffffffffffffffffffffffffffffffffffffffffffffffffff19167bffffffffffffffffffffffffffffffffffffffffffffffffffffffff1916815260200190815260200160002060006101000a81548160ff02191690831515021790555050565b600033905090565b828054600181600116156101000203166002900490600052602060002090601f016020900481019282620003745760008555620003c0565b82601f106200038f57805160ff1916838001178555620003c0565b82800160010185558215620003c0579182015b82811115620003bf578251825591602001919060010190620003a2565b5b509050620003cf9190620003d3565b5090565b5b80821115620003ee576000816000905550600101620003d4565b5090565b614bda80620004026000396000f3fe6080604052600436106102675760003560e01c80634f6ccce7116101445780639e4aa2df116100b6578063dac6db1c1161007a578063dac6db1c146110ae578063e985e9c5146110d9578063eb8d244414611160578063f03255491461118d578063f2fde38b146111a4578063fd47532d146111f557610267565b80639e4aa2df14610e0d578063a22cb46514610e4e578063b88d4fde14610eab578063c4741fdd14610fbd578063c87b56dd14610ffa57610267565b80636c94babb116101085780636c94babb14610bc657806370a0823114610c8b578063715018a614610cf0578063820fea3e14610d075780638da5cb5b14610d3c57806395d89b4114610d7d57610267565b80634f6ccce71461098c57806355f804b3146109db5780635d5faaa514610aa35780636352211e14610ad15780636c0360eb14610b3657610267565b80631f0234d8116101dd578063334894e7116101a1578063334894e7146107be57806334918dfd146107f35780633ccfd60b1461080a5780633d9e13331461082157806341425b031461084c57806342842e0e1461091157610267565b80631f0234d81461064457806323b872dd14610671578063260dae1f146106ec5780632f745c591461071a5780633051484e1461078957610267565b80630ee7487e1161022f5780630ee7487e146104935780630f258b05146104d0578063162094c4146104e757806318160ddd146105b95780631a93ff9f146105e45780631dac7cf21461061957610267565b806301ffc9a71461026c57806302ad565c146102dc57806306fdde0314610343578063081812fc146103d3578063095ea7b314610438575b600080fd5b34801561027857600080fd5b506102c46004803603602081101561028f57600080fd5b8101908080357bffffffffffffffffffffffffffffffffffffffffffffffffffffffff19169060200190929190505050611226565b60405180821515815260200191505060405180910390f35b3480156102e857600080fd5b5061032b600480360360208110156102ff57600080fd5b81019080803573ffffffffffffffffffffffffffffffffffffffff16906020019092919050505061128d565b60405180821515815260200191505060405180910390f35b34801561034f57600080fd5b5061035861131d565b6040518080602001828103825283818151815260200191508051906020019080838360005b8381101561039857808201518184015260208101905061037d565b50505050905090810190601f1680156103c55780820380516001836020036101000a031916815260200191505b509250505060405180910390f35b3480156103df57600080fd5b5061040c600480360360208110156103f657600080fd5b81019080803590602001909291905050506113bf565b604051808273ffffffffffffffffffffffffffffffffffffffff16815260200191505060405180910390f35b34801561044457600080fd5b506104916004803603604081101561045b57600080fd5b81019080803573ffffffffffffffffffffffffffffffffffffffff1690602001909291908035906020019092919050505061145a565b005b34801561049f57600080fd5b506104a861159e565b60405180826fffffffffffffffffffffffffffffffff16815260200191505060405180910390f35b3480156104dc57600080fd5b506104e56115a3565b005b3480156104f357600080fd5b506105b76004803603604081101561050a57600080fd5b81019080803590602001909291908035906020019064010000000081111561053157600080fd5b82018360208201111561054357600080fd5b8035906020019184600183028401116401000000008311171561056557600080fd5b91908080601f016020809104026020016040519081016040528093929190818152602001838380828437600081840152601f19601f820116905080830192505050505050509192919290505050611736565b005b3480156105c557600080fd5b506105ce6117f3565b6040518082815260200191505060405180910390f35b3480156105f057600080fd5b506105f9611804565b604051808267ffffffffffffffff16815260200191505060405180910390f35b34801561062557600080fd5b5061062e61180a565b6040518082815260200191505060405180910390f35b34801561065057600080fd5b50610659611814565b60405180821515815260200191505060405180910390f35b34801561067d57600080fd5b506106ea6004803603606081101561069457600080fd5b81019080803573ffffffffffffffffffffffffffffffffffffffff169060200190929190803573ffffffffffffffffffffffffffffffffffffffff16906020019092919080359060200190929190505050611827565b005b6107186004803603602081101561070257600080fd5b810190808035906020019092919050505061189d565b005b34801561072657600080fd5b506107736004803603604081101561073d57600080fd5b81019080803573ffffffffffffffffffffffffffffffffffffffff16906020019092919080359060200190929190505050611cea565b6040518082815260200191505060405180910390f35b34801561079557600080fd5b5061079e611d45565b604051808267ffffffffffffffff16815260200191505060405180910390f35b3480156107ca57600080fd5b506107d3611d4a565b604051808267ffffffffffffffff16815260200191505060405180910390f35b3480156107ff57600080fd5b50610808611d4f565b005b34801561081657600080fd5b5061081f611e2a565b005b34801561082d57600080fd5b50610836611f7d565b6040518082815260200191505060405180910390f35b34801561085857600080fd5b5061090f6004803603602081101561086f57600080fd5b810190808035906020019064010000000081111561088c57600080fd5b82018360208201111561089e57600080fd5b803590602001918460208302840111640100000000831117156108c057600080fd5b919080806020026020016040519081016040528093929190818152602001838360200280828437600081840152601f19601f820116905080830192505050505050509192919290505050611f87565b005b34801561091d57600080fd5b5061098a6004803603606081101561093457600080fd5b81019080803573ffffffffffffffffffffffffffffffffffffffff169060200190929190803573ffffffffffffffffffffffffffffffffffffffff169060200190929190803590602001909291905050506120f4565b005b34801561099857600080fd5b506109c5600480360360208110156109af57600080fd5b8101908080359060200190929190505050612114565b6040518082815260200191505060405180910390f35b3480156109e757600080fd5b50610aa1600480360360208110156109fe57600080fd5b8101908080359060200190640100000000811115610a1b57600080fd5b820183602082011115610a2d57600080fd5b80359060200191846001830284011164010000000083111715610a4f57600080fd5b91908080601f016020809104026020016040519081016040528093929190818152602001838380828437600081840152601f19601f820116905080830192505050505050509192919290505050612137565b005b610acf60048036036020811015610ab957600080fd5b81019080803590602001909291905050506121f2565b005b348015610add57600080fd5b50610b0a60048036036020811015610af457600080fd5b81019080803590602001909291905050506124ad565b604051808273ffffffffffffffffffffffffffffffffffffffff16815260200191505060405180910390f35b348015610b4257600080fd5b50610b4b6124e4565b6040518080602001828103825283818151815260200191508051906020019080838360005b83811015610b8b578082015181840152602081019050610b70565b50505050905090810190601f168015610bb85780820380516001836020036101000a031916815260200191505b509250505060405180910390f35b348015610bd257600080fd5b50610c8960048036036020811015610be957600080fd5b8101908080359060200190640100000000811115610c0657600080fd5b820183602082011115610c1857600080fd5b80359060200191846020830284011164010000000083111715610c3a57600080fd5b919080806020026020016040519081016040528093929190818152602001838360200280828437600081840152601f19601f820116905080830192505050505050509192919290505050612586565b005b348015610c9757600080fd5b50610cda60048036036020811015610cae57600080fd5b81019080803573ffffffffffffffffffffffffffffffffffffffff1690602001909291905050506127b2565b6040518082815260200191505060405180910390f35b348015610cfc57600080fd5b50610d05612887565b005b348015610d1357600080fd5b50610d1c6129f7565b604051808267ffffffffffffffff16815260200191505060405180910390f35b348015610d4857600080fd5b50610d516129fd565b604051808273ffffffffffffffffffffffffffffffffffffffff16815260200191505060405180910390f35b348015610d8957600080fd5b50610d92612a27565b6040518080602001828103825283818151815260200191508051906020019080838360005b83811015610dd2578082015181840152602081019050610db7565b50505050905090810190601f168015610dff5780820380516001836020036101000a031916815260200191505b509250505060405180910390f35b348015610e1957600080fd5b50610e4c60048036036020811015610e3057600080fd5b81019080803563ffffffff169060200190929190505050612ac9565b005b348015610e5a57600080fd5b50610ea960048036036040811015610e7157600080fd5b81019080803573ffffffffffffffffffffffffffffffffffffffff169060200190929190803515159060200190929190505050612b9c565b005b348015610eb757600080fd5b50610fbb60048036036080811015610ece57600080fd5b81019080803573ffffffffffffffffffffffffffffffffffffffff169060200190929190803573ffffffffffffffffffffffffffffffffffffffff1690602001909291908035906020019092919080359060200190640100000000811115610f3557600080fd5b820183602082011115610f4757600080fd5b80359060200191846001830284011164010000000083111715610f6957600080fd5b91908080601f016020809104026020016040519081016040528093929190818152602001838380828437600081840152601f19601f820116905080830192505050505050509192919290505050612d52565b005b348015610fc957600080fd5b50610fd2612dca565b60405180826fffffffffffffffffffffffffffffffff16815260200191505060405180910390f35b34801561100657600080fd5b506110336004803603602081101561101d57600080fd5b8101908080359060200190929190505050612de4565b6040518080602001828103825283818151815260200191508051906020019080838360005b83811015611073578082015181840152602081019050611058565b50505050905090810190601f1680156110a05780820380516001836020036101000a031916815260200191505b509250505060405180910390f35b3480156110ba57600080fd5b506110c3612f69565b6040518082815260200191505060405180910390f35b3480156110e557600080fd5b50611148600480360360408110156110fc57600080fd5b81019080803573ffffffffffffffffffffffffffffffffffffffff169060200190929190803573ffffffffffffffffffffffffffffffffffffffff169060200190929190505050612f74565b60405180821515815260200191505060405180910390f35b34801561116c57600080fd5b50611175613008565b60405180821515815260200191505060405180910390f35b34801561119957600080fd5b506111a261301b565b005b3480156111b057600080fd5b506111f3600480360360208110156111c757600080fd5b81019080803573ffffffffffffffffffffffffffffffffffffffff1690602001909291905050506130f6565b005b34801561120157600080fd5b5061120a6132eb565b604051808263ffffffff16815260200191505060405180910390f35b6000806000837bffffffffffffffffffffffffffffffffffffffffffffffffffffffff19167bffffffffffffffffffffffffffffffffffffffffffffffffffffffff1916815260200190815260200160002060009054906101000a900460ff169050919050565b600080600e6000600d60009054906101000a900463ffffffff1663ffffffff1663ffffffff16815260200190815260200160002060008473ffffffffffffffffffffffffffffffffffffffff1673ffffffffffffffffffffffffffffffffffffffff16815260200190815260200160002060009054906101000a900463ffffffff1663ffffffff16119050919050565b606060068054600181600116156101000203166002900480601f0160208091040260200160405190810160405280929190818152602001828054600181600116156101000203166002900480156113b55780601f1061138a576101008083540402835291602001916113b5565b820191906000526020600020905b81548152906001019060200180831161139857829003601f168201915b5050505050905090565b60006113ca82613305565b61141f576040517f08c379a000000000000000000000000000000000000000000000000000000000815260040180806020018281038252602c815260200180614a46602c913960400191505060405180910390fd5b6004600083815260200190815260200160002060009054906101000a900473ffffffffffffffffffffffffffffffffffffffff169050919050565b6000611465826124ad565b90508073ffffffffffffffffffffffffffffffffffffffff168373ffffffffffffffffffffffffffffffffffffffff1614156114ec576040517f08c379a0000000000000000000000000000000000000000000000000000000008152600401808060200182810382526021815260200180614af66021913960400191505060405180910390fd5b8073ffffffffffffffffffffffffffffffffffffffff1661150b613322565b73ffffffffffffffffffffffffffffffffffffffff16148061153a575061153981611534613322565b612f74565b5b61158f576040517f08c379a00000000000000000000000000000000000000000000000000000000081526004018080602001828103825260388152602001806149786038913960400191505060405180910390fd5b611599838361332a565b505050565b600a81565b6115ab613322565b73ffffffffffffffffffffffffffffffffffffffff166115c96129fd565b73ffffffffffffffffffffffffffffffffffffffff1614611652576040517f08c379a00000000000000000000000000000000000000000000000000000000081526004018080602001828103825260208152602001807f4f776e61626c653a2063616c6c6572206973206e6f7420746865206f776e657281525060200191505060405180910390fd5b600760466102bc611b5801010167ffffffffffffffff166fffffffffffffffffffffffffffffffff166116a0600767ffffffffffffffff166116926117f3565b6133e390919063ffffffff16565b11156116f7576040517f08c379a0000000000000000000000000000000000000000000000000000000008152600401808060200182810382526026815260200180614b7f6026913960400191505060405180910390fd5b60006117016117f3565b905060005b600767ffffffffffffffff16811015611732576117253382840161346b565b8080600101915050611706565b5050565b61173e613322565b73ffffffffffffffffffffffffffffffffffffffff1661175c6129fd565b73ffffffffffffffffffffffffffffffffffffffff16146117e5576040517f08c379a00000000000000000000000000000000000000000000000000000000081526004018080602001828103825260208152602001807f4f776e61626c653a2063616c6c6572206973206e6f7420746865206f776e657281525060200191505060405180910390fd5b6117ef8282613489565b5050565b60006117ff6002613513565b905090565b6102bc81565b6000600b54905090565b600a60159054906101000a900460ff1681565b611838611832613322565b82613528565b61188d576040517f08c379a0000000000000000000000000000000000000000000000000000000008152600401808060200182810382526031815260200180614b4e6031913960400191505060405180910390fd5b61189883838361361c565b505050565b600a60159054906101000a900460ff1661191f576040517f08c379a000000000000000000000000000000000000000000000000000000000815260040180806020018281038252601f8152602001807f5072652073616c65206d7573742062652061637469766520746f206d696e740081525060200191505060405180910390fd5b6000600e6000600d60009054906101000a900463ffffffff1663ffffffff1663ffffffff16815260200190815260200160002060003373ffffffffffffffffffffffffffffffffffffffff1673ffffffffffffffffffffffffffffffffffffffff16815260200190815260200160002060009054906101000a900463ffffffff1663ffffffff16116119fc576040517f08c379a0000000000000000000000000000000000000000000000000000000008152600401808060200182810382526037815260200180614b176037913960400191505060405180910390fd5b60016102bc0167ffffffffffffffff16600c54820110611a84576040517f08c379a000000000000000000000000000000000000000000000000000000000815260040180806020018281038252601e8152602001807f43616e2774206d696e74206d6f7265207468616e20373030206974656d73000081525060200191505060405180910390fd5b600a6fffffffffffffffffffffffffffffffff16811115611b0d576040517f08c379a000000000000000000000000000000000000000000000000000000000815260040180806020018281038252601d8152602001807f43616e2774206d696e74206d6f7265207468616e203130206974656d7300000081525060200191505060405180910390fd5b600760466102bc611b5801010167ffffffffffffffff166fffffffffffffffffffffffffffffffff16611b5082611b426117f3565b6133e390919063ffffffff16565b1115611bc4576040517f08c379a00000000000000000000000000000000000000000000000000000000081526004018080602001828103825260208152602001807f507572636861736520776f756c6420657863656564206d617820737570706c7981525060200191505060405180910390fd5b611bde8166b1a2bc2ec5000061385f90919063ffffffff16565b3414611c52576040517f08c379a000000000000000000000000000000000000000000000000000000000815260040180806020018281038252601f8152602001807f45746865722076616c75652073656e74206973206e6f7420636f72726563740081525060200191505060405180910390fd5b60005b81811015611ce6576000611c676117f3565b9050600760466102bc611b5801010167ffffffffffffffff166fffffffffffffffffffffffffffffffff16611c9a6117f3565b108015611cb7575060016102bc0167ffffffffffffffff16600c54105b15611cd857611cc6338261346b565b6001600c600082825401925050819055505b508080600101915050611c55565b5050565b6000611d3d82600160008673ffffffffffffffffffffffffffffffffffffffff1673ffffffffffffffffffffffffffffffffffffffff1681526020019081526020016000206138e590919063ffffffff16565b905092915050565b600781565b604681565b611d57613322565b73ffffffffffffffffffffffffffffffffffffffff16611d756129fd565b73ffffffffffffffffffffffffffffffffffffffff1614611dfe576040517f08c379a00000000000000000000000000000000000000000000000000000000081526004018080602001828103825260208152602001807f4f776e61626c653a2063616c6c6572206973206e6f7420746865206f776e657281525060200191505060405180910390fd5b600a60149054906101000a900460ff1615600a60146101000a81548160ff021916908315150217905550565b611e32613322565b73ffffffffffffffffffffffffffffffffffffffff16611e506129fd565b73ffffffffffffffffffffffffffffffffffffffff1614611ed9576040517f08c379a00000000000000000000000000000000000000000000000000000000081526004018080602001828103825260208152602001807f4f776e61626c653a2063616c6c6572206973206e6f7420746865206f776e657281525060200191505060405180910390fd5b60004790503373ffffffffffffffffffffffffffffffffffffffff166108fc829081150290604051600060405180830381858888f19350505050158015611f24573d6000803e3d6000fd5b507f69ca02dd4edd7bf0a4abb9ed3b7af3f14778db5d61921c7dc7cd545266326de23382604051808373ffffffffffffffffffffffffffffffffffffffff1681526020018281526020019250505060405180910390a150565b6000600c54905090565b611f8f613322565b73ffffffffffffffffffffffffffffffffffffffff16611fad6129fd565b73ffffffffffffffffffffffffffffffffffffffff1614612036576040517f08c379a00000000000000000000000000000000000000000000000000000000081526004018080602001828103825260208152602001807f4f776e61626c653a2063616c6c6572206973206e6f7420746865206f776e657281525060200191505060405180910390fd5b60005b81518110156120f0576001600e6000600d60009054906101000a900463ffffffff1663ffffffff1663ffffffff168152602001908152602001600020600084848151811061208357fe5b602002602001015173ffffffffffffffffffffffffffffffffffffffff1673ffffffffffffffffffffffffffffffffffffffff16815260200190815260200160002060006101000a81548163ffffffff021916908363ffffffff1602179055508080600101915050612039565b5050565b61210f83838360405180602001604052806000815250612d52565b505050565b60008061212b8360026138ff90919063ffffffff16565b50905080915050919050565b61213f613322565b73ffffffffffffffffffffffffffffffffffffffff1661215d6129fd565b73ffffffffffffffffffffffffffffffffffffffff16146121e6576040517f08c379a00000000000000000000000000000000000000000000000000000000081526004018080602001828103825260208152602001807f4f776e61626c653a2063616c6c6572206973206e6f7420746865206f776e657281525060200191505060405180910390fd5b6121ef8161392b565b50565b600a60149054906101000a900460ff16612274576040517f08c379a000000000000000000000000000000000000000000000000000000000815260040180806020018281038252601b8152602001807f53616c65206d7573742062652061637469766520746f206d696e74000000000081525060200191505060405180910390fd5b600a6fffffffffffffffffffffffffffffffff168111156122fd576040517f08c379a000000000000000000000000000000000000000000000000000000000815260040180806020018281038252601d8152602001807f43616e2774206d696e74206d6f7265207468616e203130206974656d7300000081525060200191505060405180910390fd5b600760466102bc611b5801010167ffffffffffffffff166fffffffffffffffffffffffffffffffff16612340826123326117f3565b6133e390919063ffffffff16565b11156123b4576040517f08c379a00000000000000000000000000000000000000000000000000000000081526004018080602001828103825260208152602001807f507572636861736520776f756c6420657863656564206d617820737570706c7981525060200191505060405180910390fd5b6123ce8166b1a2bc2ec5000061385f90919063ffffffff16565b3414612442576040517f08c379a000000000000000000000000000000000000000000000000000000000815260040180806020018281038252601f8152602001807f45746865722076616c75652073656e74206973206e6f7420636f72726563740081525060200191505060405180910390fd5b60005b818110156124a95760006124576117f3565b9050600760466102bc611b5801010167ffffffffffffffff166fffffffffffffffffffffffffffffffff1661248a6117f3565b101561249b5761249a338261346b565b5b508080600101915050612445565b5050565b60006124dd826040518060600160405280602981526020016149da6029913960026139459092919063ffffffff16565b9050919050565b606060098054600181600116156101000203166002900480601f01602080910402602001604051908101604052809291908181526020018280546001816001161561010002031660029004801561257c5780601f106125515761010080835404028352916020019161257c565b820191906000526020600020905b81548152906001019060200180831161255f57829003601f168201915b5050505050905090565b61258e613322565b73ffffffffffffffffffffffffffffffffffffffff166125ac6129fd565b73ffffffffffffffffffffffffffffffffffffffff1614612635576040517f08c379a00000000000000000000000000000000000000000000000000000000081526004018080602001828103825260208152602001807f4f776e61626c653a2063616c6c6572206973206e6f7420746865206f776e657281525060200191505060405180910390fd5b600160460167ffffffffffffffff16600b54825101106126bd576040517f08c379a000000000000000000000000000000000000000000000000000000000815260040180806020018281038252601d8152602001807f43616e27742067696674206d6f7265207468616e203730206974656d7300000081525060200191505060405180910390fd5b600760466102bc611b5801010167ffffffffffffffff166fffffffffffffffffffffffffffffffff1661270182516126f36117f3565b6133e390919063ffffffff16565b1115612758576040517f08c379a00000000000000000000000000000000000000000000000000000000081526004018080602001828103825260228152602001806149046022913960400191505060405180910390fd5b60006127626117f3565b905060005b82518110156127ad5761278f83828151811061277f57fe5b602002602001015182840161346b565b6001600b600082825401925050819055508080600101915050612767565b505050565b60008073ffffffffffffffffffffffffffffffffffffffff168273ffffffffffffffffffffffffffffffffffffffff161415612839576040517f08c379a000000000000000000000000000000000000000000000000000000000815260040180806020018281038252602a8152602001806149b0602a913960400191505060405180910390fd5b612880600160008473ffffffffffffffffffffffffffffffffffffffff1673ffffffffffffffffffffffffffffffffffffffff168152602001908152602001600020613964565b9050919050565b61288f613322565b73ffffffffffffffffffffffffffffffffffffffff166128ad6129fd565b73ffffffffffffffffffffffffffffffffffffffff1614612936576040517f08c379a00000000000000000000000000000000000000000000000000000000081526004018080602001828103825260208152602001807f4f776e61626c653a2063616c6c6572206973206e6f7420746865206f776e657281525060200191505060405180910390fd5b600073ffffffffffffffffffffffffffffffffffffffff16600a60009054906101000a900473ffffffffffffffffffffffffffffffffffffffff1673ffffffffffffffffffffffffffffffffffffffff167f8be0079c531659141344cd1fd0a4f28419497f9722a3daafe3b4186f6b6457e060405160405180910390a36000600a60006101000a81548173ffffffffffffffffffffffffffffffffffffffff021916908373ffffffffffffffffffffffffffffffffffffffff160217905550565b611b5881565b6000600a60009054906101000a900473ffffffffffffffffffffffffffffffffffffffff16905090565b606060078054600181600116156101000203166002900480601f016020809104026020016040519081016040528092919081815260200182805460018160011615610100020316600290048015612abf5780601f10612a9457610100808354040283529160200191612abf565b820191906000526020600020905b815481529060010190602001808311612aa257829003601f168201915b5050505050905090565b612ad1613322565b73ffffffffffffffffffffffffffffffffffffffff16612aef6129fd565b73ffffffffffffffffffffffffffffffffffffffff1614612b78576040517f08c379a00000000000000000000000000000000000000000000000000000000081526004018080602001828103825260208152602001807f4f776e61626c653a2063616c6c6572206973206e6f7420746865206f776e657281525060200191505060405180910390fd5b80600d60006101000a81548163ffffffff021916908363ffffffff16021790555050565b612ba4613322565b73ffffffffffffffffffffffffffffffffffffffff168273ffffffffffffffffffffffffffffffffffffffff161415612c45576040517f08c379a00000000000000000000000000000000000000000000000000000000081526004018080602001828103825260198152602001807f4552433732313a20617070726f766520746f2063616c6c65720000000000000081525060200191505060405180910390fd5b8060056000612c52613322565b73ffffffffffffffffffffffffffffffffffffffff1673ffffffffffffffffffffffffffffffffffffffff16815260200190815260200160002060008473ffffffffffffffffffffffffffffffffffffffff1673ffffffffffffffffffffffffffffffffffffffff16815260200190815260200160002060006101000a81548160ff0219169083151502179055508173ffffffffffffffffffffffffffffffffffffffff16612cff613322565b73ffffffffffffffffffffffffffffffffffffffff167f17307eab39ab6107e8899845ad3d59bd9653f200f220920489ca2b5937696c318360405180821515815260200191505060405180910390a35050565b612d63612d5d613322565b83613528565b612db8576040517f08c379a0000000000000000000000000000000000000000000000000000000008152600401808060200182810382526031815260200180614b4e6031913960400191505060405180910390fd5b612dc484848484613979565b50505050565b600760466102bc611b5801010167ffffffffffffffff1681565b6060612def82613305565b612e44576040517f08c379a000000000000000000000000000000000000000000000000000000000815260040180806020018281038252602f815260200180614ac7602f913960400191505060405180910390fd5b6000612e4e6124e4565b9050600081511415612e7b576040518060600160405280603581526020016148ab60359139915050612f64565b6000815111612e995760405180602001604052806000815250612f60565b80612ea3846139eb565b6040516020018083805190602001908083835b60208310612ed95780518252602082019150602081019050602083039250612eb6565b6001836020036101000a03801982511681845116808217855250505050505090500182805190602001908083835b60208310612f2a5780518252602082019150602081019050602083039250612f07565b6001836020036101000a038019825116818451168082178552505050505050905001925050506040516020818303038152906040525b9150505b919050565b66b1a2bc2ec5000081565b6000600560008473ffffffffffffffffffffffffffffffffffffffff1673ffffffffffffffffffffffffffffffffffffffff16815260200190815260200160002060008373ffffffffffffffffffffffffffffffffffffffff1673ffffffffffffffffffffffffffffffffffffffff16815260200190815260200160002060009054906101000a900460ff16905092915050565b600a60149054906101000a900460ff1681565b613023613322565b73ffffffffffffffffffffffffffffffffffffffff166130416129fd565b73ffffffffffffffffffffffffffffffffffffffff16146130ca576040517f08c379a00000000000000000000000000000000000000000000000000000000081526004018080602001828103825260208152602001807f4f776e61626c653a2063616c6c6572206973206e6f7420746865206f776e657281525060200191505060405180910390fd5b600a60159054906101000a900460ff1615600a60156101000a81548160ff021916908315150217905550565b6130fe613322565b73ffffffffffffffffffffffffffffffffffffffff1661311c6129fd565b73ffffffffffffffffffffffffffffffffffffffff16146131a5576040517f08c379a00000000000000000000000000000000000000000000000000000000081526004018080602001828103825260208152602001807f4f776e61626c653a2063616c6c6572206973206e6f7420746865206f776e657281525060200191505060405180910390fd5b600073ffffffffffffffffffffffffffffffffffffffff168173ffffffffffffffffffffffffffffffffffffffff16141561322b576040517f08c379a00000000000000000000000000000000000000000000000000000000081526004018080602001828103825260268152602001806148856026913960400191505060405180910390fd5b8073ffffffffffffffffffffffffffffffffffffffff16600a60009054906101000a900473ffffffffffffffffffffffffffffffffffffffff1673ffffffffffffffffffffffffffffffffffffffff167f8be0079c531659141344cd1fd0a4f28419497f9722a3daafe3b4186f6b6457e060405160405180910390a380600a60006101000a81548173ffffffffffffffffffffffffffffffffffffffff021916908373ffffffffffffffffffffffffffffffffffffffff16021790555050565b6000600d60009054906101000a900463ffffffff16905090565b600061331b826002613b3290919063ffffffff16565b9050919050565b600033905090565b816004600083815260200190815260200160002060006101000a81548173ffffffffffffffffffffffffffffffffffffffff021916908373ffffffffffffffffffffffffffffffffffffffff160217905550808273ffffffffffffffffffffffffffffffffffffffff1661339d836124ad565b73ffffffffffffffffffffffffffffffffffffffff167f8c5be1e5ebec7d5bd14f71427d1e84f3dd0314c0f7b2291e5b200ac8c7c3b92560405160405180910390a45050565b600080828401905083811015613461576040517f08c379a000000000000000000000000000000000000000000000000000000000815260040180806020018281038252601b8152602001807f536166654d6174683a206164646974696f6e206f766572666c6f77000000000081525060200191505060405180910390fd5b8091505092915050565b613485828260405180602001604052806000815250613b4c565b5050565b61349282613305565b6134e7576040517f08c379a000000000000000000000000000000000000000000000000000000000815260040180806020018281038252602c815260200180614a72602c913960400191505060405180910390fd5b8060086000848152602001908152602001600020908051906020019061350e929190614785565b505050565b600061352182600001613bbd565b9050919050565b600061353382613305565b613588576040517f08c379a000000000000000000000000000000000000000000000000000000000815260040180806020018281038252602c81526020018061494c602c913960400191505060405180910390fd5b6000613593836124ad565b90508073ffffffffffffffffffffffffffffffffffffffff168473ffffffffffffffffffffffffffffffffffffffff16148061360257508373ffffffffffffffffffffffffffffffffffffffff166135ea846113bf565b73ffffffffffffffffffffffffffffffffffffffff16145b8061361357506136128185612f74565b5b91505092915050565b8273ffffffffffffffffffffffffffffffffffffffff1661363c826124ad565b73ffffffffffffffffffffffffffffffffffffffff16146136a8576040517f08c379a0000000000000000000000000000000000000000000000000000000008152600401808060200182810382526029815260200180614a9e6029913960400191505060405180910390fd5b600073ffffffffffffffffffffffffffffffffffffffff168273ffffffffffffffffffffffffffffffffffffffff16141561372e576040517f08c379a00000000000000000000000000000000000000000000000000000000081526004018080602001828103825260248152602001806148e06024913960400191505060405180910390fd5b613739838383613bce565b61374460008261332a565b61379581600160008673ffffffffffffffffffffffffffffffffffffffff1673ffffffffffffffffffffffffffffffffffffffff168152602001908152602001600020613bd390919063ffffffff16565b506137e781600160008573ffffffffffffffffffffffffffffffffffffffff1673ffffffffffffffffffffffffffffffffffffffff168152602001908152602001600020613bed90919063ffffffff16565b506137fe81836002613c079092919063ffffffff16565b50808273ffffffffffffffffffffffffffffffffffffffff168473ffffffffffffffffffffffffffffffffffffffff167fddf252ad1be2c89b69c2b068fc378daa952ba7f163c4a11628f55a4df523b3ef60405160405180910390a4505050565b60008083141561387257600090506138df565b600082840290508284828161388357fe5b04146138da576040517f08c379a0000000000000000000000000000000000000000000000000000000008152600401808060200182810382526021815260200180614a256021913960400191505060405180910390fd5b809150505b92915050565b60006138f48360000183613c3c565b60001c905092915050565b6000806000806139128660000186613cbf565b915091508160001c8160001c9350935050509250929050565b8060099080519060200190613941929190614785565b5050565b6000613958846000018460001b84613d58565b60001c90509392505050565b600061397282600001613e4e565b9050919050565b61398484848461361c565b61399084848484613e5f565b6139e5576040517f08c379a00000000000000000000000000000000000000000000000000000000081526004018080602001828103825260328152602001806148536032913960400191505060405180910390fd5b50505050565b60606000821415613a33576040518060400160405280600181526020017f30000000000000000000000000000000000000000000000000000000000000008152509050613b2d565b600082905060005b60008214613a5d578080600101915050600a8281613a5557fe5b049150613a3b565b60008167ffffffffffffffff81118015613a7657600080fd5b506040519080825280601f01601f191660200182016040528015613aa95781602001600182028036833780820191505090505b50905060006001830390508593505b60008414613b2557600a8481613aca57fe5b0660300160f81b82828060019003935081518110613ae457fe5b60200101907effffffffffffffffffffffffffffffffffffffffffffffffffffffffffffff1916908160001a905350600a8481613b1d57fe5b049350613ab8565b819450505050505b919050565b6000613b44836000018360001b614078565b905092915050565b613b56838361409b565b613b636000848484613e5f565b613bb8576040517f08c379a00000000000000000000000000000000000000000000000000000000081526004018080602001828103825260328152602001806148536032913960400191505060405180910390fd5b505050565b600081600001805490509050919050565b505050565b6000613be5836000018360001b61428f565b905092915050565b6000613bff836000018360001b614377565b905092915050565b6000613c33846000018460001b8473ffffffffffffffffffffffffffffffffffffffff1660001b6143e7565b90509392505050565b600081836000018054905011613c9d576040517f08c379a00000000000000000000000000000000000000000000000000000000081526004018080602001828103825260228152602001806148316022913960400191505060405180910390fd5b826000018281548110613cac57fe5b9060005260206000200154905092915050565b60008082846000018054905011613d21576040517f08c379a0000000000000000000000000000000000000000000000000000000008152600401808060200182810382526022815260200180614a036022913960400191505060405180910390fd5b6000846000018481548110613d3257fe5b906000526020600020906002020190508060000154816001015492509250509250929050565b60008084600101600085815260200190815260200160002054905060008114158390613e1f576040517f08c379a00000000000000000000000000000000000000000000000000000000081526004018080602001828103825283818151815260200191508051906020019080838360005b83811015613de4578082015181840152602081019050613dc9565b50505050905090810190601f168015613e115780820380516001836020036101000a031916815260200191505b509250505060405180910390fd5b50846000016001820381548110613e3257fe5b9060005260206000209060020201600101549150509392505050565b600081600001805490509050919050565b6000613e808473ffffffffffffffffffffffffffffffffffffffff166144c3565b613e8d5760019050614070565b6000613ff763150b7a0260e01b613ea2613322565b888787604051602401808573ffffffffffffffffffffffffffffffffffffffff1681526020018473ffffffffffffffffffffffffffffffffffffffff16815260200183815260200180602001828103825283818151815260200191508051906020019080838360005b83811015613f26578082015181840152602081019050613f0b565b50505050905090810190601f168015613f535780820380516001836020036101000a031916815260200191505b5095505050505050604051602081830303815290604052907bffffffffffffffffffffffffffffffffffffffffffffffffffffffff19166020820180517bffffffffffffffffffffffffffffffffffffffffffffffffffffffff8381831617835250505050604051806060016040528060328152602001614853603291398773ffffffffffffffffffffffffffffffffffffffff166144d69092919063ffffffff16565b9050600081806020019051602081101561401057600080fd5b8101908080519060200190929190505050905063150b7a0260e01b7bffffffffffffffffffffffffffffffffffffffffffffffffffffffff1916817bffffffffffffffffffffffffffffffffffffffffffffffffffffffff191614925050505b949350505050565b600080836001016000848152602001908152602001600020541415905092915050565b600073ffffffffffffffffffffffffffffffffffffffff168273ffffffffffffffffffffffffffffffffffffffff16141561413e576040517f08c379a00000000000000000000000000000000000000000000000000000000081526004018080602001828103825260208152602001807f4552433732313a206d696e7420746f20746865207a65726f206164647265737381525060200191505060405180910390fd5b61414781613305565b156141ba576040517f08c379a000000000000000000000000000000000000000000000000000000000815260040180806020018281038252601c8152602001807f4552433732313a20746f6b656e20616c7265616479206d696e7465640000000081525060200191505060405180910390fd5b6141c660008383613bce565b61421781600160008573ffffffffffffffffffffffffffffffffffffffff1673ffffffffffffffffffffffffffffffffffffffff168152602001908152602001600020613bed90919063ffffffff16565b5061422e81836002613c079092919063ffffffff16565b50808273ffffffffffffffffffffffffffffffffffffffff16600073ffffffffffffffffffffffffffffffffffffffff167fddf252ad1be2c89b69c2b068fc378daa952ba7f163c4a11628f55a4df523b3ef60405160405180910390a45050565b6000808360010160008481526020019081526020016000205490506000811461436b57600060018203905060006001866000018054905003905060008660000182815481106142da57fe5b90600052602060002001549050808760000184815481106142f757fe5b906000526020600020018190555060018301876001016000838152602001908152602001600020819055508660000180548061432f57fe5b60019003818190600052602060002001600090559055866001016000878152602001908152602001600020600090556001945050505050614371565b60009150505b92915050565b600061438383836144ee565b6143dc5782600001829080600181540180825580915050600190039060005260206000200160009091909190915055826000018054905083600101600084815260200190815260200160002081905550600190506143e1565b600090505b92915050565b600080846001016000858152602001908152602001600020549050600081141561448e578460000160405180604001604052808681526020018581525090806001815401808255809150506001900390600052602060002090600202016000909190919091506000820151816000015560208201518160010155505084600001805490508560010160008681526020019081526020016000208190555060019150506144bc565b828560000160018303815481106144a157fe5b90600052602060002090600202016001018190555060009150505b9392505050565b600080823b905060008111915050919050565b60606144e58484600085614511565b90509392505050565b600080836001016000848152602001908152602001600020541415905092915050565b60608247101561456c576040517f08c379a00000000000000000000000000000000000000000000000000000000081526004018080602001828103825260268152602001806149266026913960400191505060405180910390fd5b614575856144c3565b6145e7576040517f08c379a000000000000000000000000000000000000000000000000000000000815260040180806020018281038252601d8152602001807f416464726573733a2063616c6c20746f206e6f6e2d636f6e747261637400000081525060200191505060405180910390fd5b6000808673ffffffffffffffffffffffffffffffffffffffff1685876040518082805190602001908083835b602083106146365780518252602082019150602081019050602083039250614613565b6001836020036101000a03801982511681845116808217855250505050505090500191505060006040518083038185875af1925050503d8060008114614698576040519150601f19603f3d011682016040523d82523d6000602084013e61469d565b606091505b50915091506146ad8282866146b9565b92505050949350505050565b606083156146c95782905061477e565b6000835111156146dc5782518084602001fd5b816040517f08c379a00000000000000000000000000000000000000000000000000000000081526004018080602001828103825283818151815260200191508051906020019080838360005b83811015614743578082015181840152602081019050614728565b50505050905090810190601f1680156147705780820380516001836020036101000a031916815260200191505b509250505060405180910390fd5b9392505050565b828054600181600116156101000203166002900490600052602060002090601f0160209004810192826147bb5760008555614802565b82601f106147d457805160ff1916838001178555614802565b82800160010185558215614802579182015b828111156148015782518255916020019190600101906147e6565b5b50905061480f9190614813565b5090565b5b8082111561482c576000816000905550600101614814565b509056fe456e756d657261626c655365743a20696e646578206f7574206f6620626f756e64734552433732313a207472616e7366657220746f206e6f6e20455243373231526563656976657220696d706c656d656e7465724f776e61626c653a206e6577206f776e657220697320746865207a65726f2061646472657373697066733a2f2f516d57754365484c3175616a6a4e454c4b6665483138617a5a334b5342315966665474626a614e4a715a703139664552433732313a207472616e7366657220746f20746865207a65726f206164647265737347696674206974656d7320776f756c6420657863656564206d617820737570706c79416464726573733a20696e73756666696369656e742062616c616e636520666f722063616c6c4552433732313a206f70657261746f7220717565727920666f72206e6f6e6578697374656e7420746f6b656e4552433732313a20617070726f76652063616c6c6572206973206e6f74206f776e6572206e6f7220617070726f76656420666f7220616c6c4552433732313a2062616c616e636520717565727920666f7220746865207a65726f20616464726573734552433732313a206f776e657220717565727920666f72206e6f6e6578697374656e7420746f6b656e456e756d657261626c654d61703a20696e646578206f7574206f6620626f756e6473536166654d6174683a206d756c7469706c69636174696f6e206f766572666c6f774552433732313a20617070726f76656420717565727920666f72206e6f6e6578697374656e7420746f6b656e4552433732314d657461646174613a2055524920736574206f66206e6f6e6578697374656e7420746f6b656e4552433732313a207472616e73666572206f6620746f6b656e2074686174206973206e6f74206f776e4552433732314d657461646174613a2055524920717565727920666f72206e6f6e6578697374656e7420746f6b656e4552433732313a20617070726f76616c20746f2063757272656e74206f776e6572596f7520617265206e6f7420616c6c6f77656420746f20706172746563697061746520746f20746865207072652073616c65206d696e744552433732313a207472616e736665722063616c6c6572206973206e6f74206f776e6572206e6f7220617070726f7665645265736572766564206974656d7320776f756c6420657863656564206d617820737570706c79a2646970667358221220d9f13efa653e3e21e0898d1757ef149d86c1d233e263762ff75e673c488498f964736f6c63430007060033",
  "immutableReferences": {},
  "source": "\n// SPDX-License-Identifier: MIT\n\npragma solidity ^0.7.6;\n\nimport \"openzeppelin-solidity/contracts/token/ERC721/ERC721.sol\";\nimport \"openzeppelin-solidity/contracts/access/Ownable.sol\";\nimport \"openzeppelin-solidity/contracts/math/SafeMath.sol\";\n\ncontract SportSuperstars is ERC721, Ownable {\n\n    using SafeMath for uint256;\n    \n    event Transfer(address _to, uint _value);\n\n    bool public saleIsActive = false;\n    bool public preSaleIsActive = false;\n\n    uint256 public constant itemPrice = 0.05 ether;\n    uint64 public constant RESERVED_ITEMS = 7;\n    uint64 public constant GIFT_ITEMS = 70;\n    uint64 public constant PREADOPT_ITEMS = 700;\n    uint64 public constant ADOPT_ITEMS = 7000;\n    uint128 public constant TOTAL_ITEMS = ADOPT_ITEMS + PREADOPT_ITEMS + GIFT_ITEMS + RESERVED_ITEMS;\n    uint128 public constant MAX_ITEMS_PER_MINT = 10;\n\n    uint256 private giftItems = 0;\n    uint256 private preSaleItems = 0;\n    string private constant IPFS_GUESS_ITEM = \"ipfs://QmWuCeHL1uajjNELKfeH18azZ3KSB1YffTtbjaNJqZp19f\";\n\n    uint32 private _presaleMapIndex = 1;\n\n    mapping (uint32 => mapping (address => uint32)) private _preSaleAddress;\n\n    constructor() ERC721(\"Sport Superstars\", \"SSS\") {\n    }\n\n    function withdraw() public onlyOwner {\n        uint balance = address(this).balance;\n        msg.sender.transfer(balance);\n        emit Transfer(msg.sender, balance);\n    }\n    \n    function flipSaleState() public onlyOwner {\n        saleIsActive = !saleIsActive;\n    }\n    \n    function flipPreSaleState() public onlyOwner {\n        preSaleIsActive = !preSaleIsActive;\n    }\n\n    function setPreSaleMapIndex(uint32 mapIndex) public onlyOwner {\n        _presaleMapIndex = mapIndex;\n    }\n\n    function setPreSalesAddresses( address [] memory recipients ) public onlyOwner {   \n        for( uint256 i ; i < recipients.length; i++ ){\n            _preSaleAddress[_presaleMapIndex][recipients[i]] = 1;\n        }\n    }\n\n    function setBaseURI(string memory baseURI) public onlyOwner {\n        _setBaseURI(baseURI);\n    }\n    \n    function setTokenURI(uint256 tokenId, string memory _tokenURI) public onlyOwner {\n        _setTokenURI(tokenId, _tokenURI);\n    }\n\n    function getPreSaleMapIndex() public view returns( uint32 ) {\n        return _presaleMapIndex;\n    }\n\n    function isAddressAllowedForPreSale(address recipient ) public view returns( bool ) {   \n        return    _preSaleAddress[_presaleMapIndex][recipient] > 0;\n    }\n\n    function getGiftItems() public view returns( uint256 ){\n        return giftItems;\n    }\n\n    function getPreSaleItems() public view returns( uint256 ){\n        return preSaleItems;\n    }\n\n    function reserveItems() public onlyOwner {        \n        require(totalSupply().add(RESERVED_ITEMS) <= TOTAL_ITEMS, \"Reserved items would exceed max supply\");\n        uint supply = totalSupply();\n        uint i;\n        for (i = 0; i < RESERVED_ITEMS; i++) {\n            _safeMint(msg.sender, supply + i);\n        }\n    }\n\n    function giftSportSuperstars( address [] memory recipients ) public onlyOwner {\n        require(recipients.length + giftItems < GIFT_ITEMS + 1, \"Can't gift more than 70 items\");\n        require(totalSupply().add(recipients.length) <= TOTAL_ITEMS, \"Gift items would exceed max supply\");\n        uint256 supply = totalSupply();        \n        for( uint256 i ; i < recipients.length; i++ ){\n            _safeMint(recipients[i], supply + i );\n            giftItems += 1;\n        }\n    }\n\n    function mintPreSaleSportSuperstars(uint numberOfTokens) public payable {\n        require(preSaleIsActive, \"Pre sale must be active to mint\");\n        require(_preSaleAddress[_presaleMapIndex][msg.sender] > 0, \"You are not allowed to partecipate to the pre sale mint\");\n        require(numberOfTokens + preSaleItems < PREADOPT_ITEMS + 1, \"Can't mint more than 700 items\");\n        require(numberOfTokens <= MAX_ITEMS_PER_MINT, \"Can't mint more than 10 items\");\n        require(totalSupply().add(numberOfTokens) <= TOTAL_ITEMS, \"Purchase would exceed max supply\");\n        require(msg.value == itemPrice.mul(numberOfTokens), \"Ether value sent is not correct\");\n        \n        for(uint i = 0; i < numberOfTokens; i++) {\n            uint mintIndex = totalSupply();\n            if (totalSupply() < TOTAL_ITEMS && preSaleItems < PREADOPT_ITEMS + 1) {\n                _safeMint(msg.sender, mintIndex);\n                preSaleItems += 1;\n            }\n        }\n    }\n\n    function mintSportSuperstars(uint numberOfTokens) public payable {\n        require(saleIsActive, \"Sale must be active to mint\");\n        require(numberOfTokens <= MAX_ITEMS_PER_MINT, \"Can't mint more than 10 items\");\n        require(totalSupply().add(numberOfTokens) <= TOTAL_ITEMS, \"Purchase would exceed max supply\");\n        require(msg.value == itemPrice.mul(numberOfTokens), \"Ether value sent is not correct\");\n        \n        for(uint i = 0; i < numberOfTokens; i++) {\n            uint mintIndex = totalSupply();\n            if (totalSupply() < TOTAL_ITEMS) {\n                _safeMint(msg.sender, mintIndex);\n            }\n        }\n    }\n\n    function tokenURI(uint256 tokenId) public view virtual override returns (string memory) {\n        require(_exists(tokenId), \"ERC721Metadata: URI query for nonexistent token\");\n\n        string memory baseURI = baseURI();\n        if( bytes(baseURI).length == 0 ){\n            return IPFS_GUESS_ITEM;\n        }\n        return bytes(baseURI).length > 0 ? string(abi.encodePacked(baseURI, Strings.toString(tokenId))) : \"\";\n    }\n}",
  "sourcePath": "/Users/gianmarco/dev/projects/sport-legends/contracts/SportSuperstars.sol",
  "compiler": {
    "name": "solc",
    "version": "0.7.6+commit.7338295f.Emscripten.clang"
  },
  "schemaVersion": "3.4.3",
  "updatedAt": "2021-09-12T19:01:23.195Z",
  "networkType": "ethereum",
  "devdoc": {
    "kind": "dev",
    "methods": {
      "approve(address,uint256)": {
        "details": "See {IERC721-approve}."
      },
      "balanceOf(address)": {
        "details": "See {IERC721-balanceOf}."
      },
      "baseURI()": {
        "details": "Returns the base URI set via {_setBaseURI}. This will be automatically added as a prefix in {tokenURI} to each token's URI, or to the token ID if no specific URI is set for that token ID."
      },
      "getApproved(uint256)": {
        "details": "See {IERC721-getApproved}."
      },
      "isApprovedForAll(address,address)": {
        "details": "See {IERC721-isApprovedForAll}."
      },
      "name()": {
        "details": "See {IERC721Metadata-name}."
      },
      "owner()": {
        "details": "Returns the address of the current owner."
      },
      "ownerOf(uint256)": {
        "details": "See {IERC721-ownerOf}."
      },
      "renounceOwnership()": {
        "details": "Leaves the contract without owner. It will not be possible to call `onlyOwner` functions anymore. Can only be called by the current owner. NOTE: Renouncing ownership will leave the contract without an owner, thereby removing any functionality that is only available to the owner."
      },
      "safeTransferFrom(address,address,uint256)": {
        "details": "See {IERC721-safeTransferFrom}."
      },
      "safeTransferFrom(address,address,uint256,bytes)": {
        "details": "See {IERC721-safeTransferFrom}."
      },
      "setApprovalForAll(address,bool)": {
        "details": "See {IERC721-setApprovalForAll}."
      },
      "supportsInterface(bytes4)": {
        "details": "See {IERC165-supportsInterface}. Time complexity O(1), guaranteed to always use less than 30 000 gas."
      },
      "symbol()": {
        "details": "See {IERC721Metadata-symbol}."
      },
      "tokenByIndex(uint256)": {
        "details": "See {IERC721Enumerable-tokenByIndex}."
      },
      "tokenOfOwnerByIndex(address,uint256)": {
        "details": "See {IERC721Enumerable-tokenOfOwnerByIndex}."
      },
      "tokenURI(uint256)": {
        "details": "See {IERC721Metadata-tokenURI}."
      },
      "totalSupply()": {
        "details": "See {IERC721Enumerable-totalSupply}."
      },
      "transferFrom(address,address,uint256)": {
        "details": "See {IERC721-transferFrom}."
      },
      "transferOwnership(address)": {
        "details": "Transfers ownership of the contract to a new account (`newOwner`). Can only be called by the current owner."
      }
    },
    "version": 1
  },
  "userdoc": {
    "kind": "user",
    "methods": {},
    "version": 1
  }
}