{
  "contractName": "TheSporties",
  "abi": [
    {
      "inputs": [],
      "stateMutability": "nonpayable",
      "type": "constructor"
    },
    {
      "anonymous": false,
      "inputs": [
        {
          "indexed": true,
          "internalType": "address",
          "name": "owner",
          "type": "address"
        },
        {
          "indexed": true,
          "internalType": "address",
          "name": "approved",
          "type": "address"
        },
        {
          "indexed": true,
          "internalType": "uint256",
          "name": "tokenId",
          "type": "uint256"
        }
      ],
      "name": "Approval",
      "type": "event"
    },
    {
      "anonymous": false,
      "inputs": [
        {
          "indexed": true,
          "internalType": "address",
          "name": "owner",
          "type": "address"
        },
        {
          "indexed": true,
          "internalType": "address",
          "name": "operator",
          "type": "address"
        },
        {
          "indexed": false,
          "internalType": "bool",
          "name": "approved",
          "type": "bool"
        }
      ],
      "name": "ApprovalForAll",
      "type": "event"
    },
    {
      "anonymous": false,
      "inputs": [
        {
          "indexed": true,
          "internalType": "address",
          "name": "previousOwner",
          "type": "address"
        },
        {
          "indexed": true,
          "internalType": "address",
          "name": "newOwner",
          "type": "address"
        }
      ],
      "name": "OwnershipTransferred",
      "type": "event"
    },
    {
      "anonymous": false,
      "inputs": [
        {
          "indexed": false,
          "internalType": "address",
          "name": "_to",
          "type": "address"
        },
        {
          "indexed": false,
          "internalType": "uint256",
          "name": "_value",
          "type": "uint256"
        }
      ],
      "name": "Transfer",
      "type": "event"
    },
    {
      "anonymous": false,
      "inputs": [
        {
          "indexed": true,
          "internalType": "address",
          "name": "from",
          "type": "address"
        },
        {
          "indexed": true,
          "internalType": "address",
          "name": "to",
          "type": "address"
        },
        {
          "indexed": true,
          "internalType": "uint256",
          "name": "tokenId",
          "type": "uint256"
        }
      ],
      "name": "Transfer",
      "type": "event"
    },
    {
      "inputs": [],
      "name": "ADOPT_ITEMS",
      "outputs": [
        {
          "internalType": "uint64",
          "name": "",
          "type": "uint64"
        }
      ],
      "stateMutability": "view",
      "type": "function",
      "constant": true
    },
    {
      "inputs": [],
      "name": "GIFT_ITEMS",
      "outputs": [
        {
          "internalType": "uint64",
          "name": "",
          "type": "uint64"
        }
      ],
      "stateMutability": "view",
      "type": "function",
      "constant": true
    },
    {
      "inputs": [],
      "name": "MAX_ITEMS_PER_MINT",
      "outputs": [
        {
          "internalType": "uint128",
          "name": "",
          "type": "uint128"
        }
      ],
      "stateMutability": "view",
      "type": "function",
      "constant": true
    },
    {
      "inputs": [],
      "name": "RESERVED_ITEMS",
      "outputs": [
        {
          "internalType": "uint64",
          "name": "",
          "type": "uint64"
        }
      ],
      "stateMutability": "view",
      "type": "function",
      "constant": true
    },
    {
      "inputs": [],
      "name": "TOTAL_ITEMS",
      "outputs": [
        {
          "internalType": "uint64",
          "name": "",
          "type": "uint64"
        }
      ],
      "stateMutability": "view",
      "type": "function",
      "constant": true
    },
    {
      "inputs": [
        {
          "internalType": "address",
          "name": "to",
          "type": "address"
        },
        {
          "internalType": "uint256",
          "name": "tokenId",
          "type": "uint256"
        }
      ],
      "name": "approve",
      "outputs": [],
      "stateMutability": "nonpayable",
      "type": "function"
    },
    {
      "inputs": [
        {
          "internalType": "address",
          "name": "owner",
          "type": "address"
        }
      ],
      "name": "balanceOf",
      "outputs": [
        {
          "internalType": "uint256",
          "name": "",
          "type": "uint256"
        }
      ],
      "stateMutability": "view",
      "type": "function",
      "constant": true
    },
    {
      "inputs": [],
      "name": "baseURI",
      "outputs": [
        {
          "internalType": "string",
          "name": "",
          "type": "string"
        }
      ],
      "stateMutability": "view",
      "type": "function",
      "constant": true
    },
    {
      "inputs": [
        {
          "internalType": "uint256",
          "name": "tokenId",
          "type": "uint256"
        }
      ],
      "name": "getApproved",
      "outputs": [
        {
          "internalType": "address",
          "name": "",
          "type": "address"
        }
      ],
      "stateMutability": "view",
      "type": "function",
      "constant": true
    },
    {
      "inputs": [
        {
          "internalType": "address",
          "name": "owner",
          "type": "address"
        },
        {
          "internalType": "address",
          "name": "operator",
          "type": "address"
        }
      ],
      "name": "isApprovedForAll",
      "outputs": [
        {
          "internalType": "bool",
          "name": "",
          "type": "bool"
        }
      ],
      "stateMutability": "view",
      "type": "function",
      "constant": true
    },
    {
      "inputs": [],
      "name": "itemPrice",
      "outputs": [
        {
          "internalType": "uint256",
          "name": "",
          "type": "uint256"
        }
      ],
      "stateMutability": "view",
      "type": "function",
      "constant": true
    },
    {
      "inputs": [],
      "name": "name",
      "outputs": [
        {
          "internalType": "string",
          "name": "",
          "type": "string"
        }
      ],
      "stateMutability": "view",
      "type": "function",
      "constant": true
    },
    {
      "inputs": [],
      "name": "owner",
      "outputs": [
        {
          "internalType": "address",
          "name": "",
          "type": "address"
        }
      ],
      "stateMutability": "view",
      "type": "function",
      "constant": true
    },
    {
      "inputs": [
        {
          "internalType": "uint256",
          "name": "tokenId",
          "type": "uint256"
        }
      ],
      "name": "ownerOf",
      "outputs": [
        {
          "internalType": "address",
          "name": "",
          "type": "address"
        }
      ],
      "stateMutability": "view",
      "type": "function",
      "constant": true
    },
    {
      "inputs": [],
      "name": "renounceOwnership",
      "outputs": [],
      "stateMutability": "nonpayable",
      "type": "function"
    },
    {
      "inputs": [
        {
          "internalType": "address",
          "name": "from",
          "type": "address"
        },
        {
          "internalType": "address",
          "name": "to",
          "type": "address"
        },
        {
          "internalType": "uint256",
          "name": "tokenId",
          "type": "uint256"
        }
      ],
      "name": "safeTransferFrom",
      "outputs": [],
      "stateMutability": "nonpayable",
      "type": "function"
    },
    {
      "inputs": [
        {
          "internalType": "address",
          "name": "from",
          "type": "address"
        },
        {
          "internalType": "address",
          "name": "to",
          "type": "address"
        },
        {
          "internalType": "uint256",
          "name": "tokenId",
          "type": "uint256"
        },
        {
          "internalType": "bytes",
          "name": "_data",
          "type": "bytes"
        }
      ],
      "name": "safeTransferFrom",
      "outputs": [],
      "stateMutability": "nonpayable",
      "type": "function"
    },
    {
      "inputs": [],
      "name": "saleIsActive",
      "outputs": [
        {
          "internalType": "bool",
          "name": "",
          "type": "bool"
        }
      ],
      "stateMutability": "view",
      "type": "function",
      "constant": true
    },
    {
      "inputs": [
        {
          "internalType": "address",
          "name": "operator",
          "type": "address"
        },
        {
          "internalType": "bool",
          "name": "approved",
          "type": "bool"
        }
      ],
      "name": "setApprovalForAll",
      "outputs": [],
      "stateMutability": "nonpayable",
      "type": "function"
    },
    {
      "inputs": [
        {
          "internalType": "bytes4",
          "name": "interfaceId",
          "type": "bytes4"
        }
      ],
      "name": "supportsInterface",
      "outputs": [
        {
          "internalType": "bool",
          "name": "",
          "type": "bool"
        }
      ],
      "stateMutability": "view",
      "type": "function",
      "constant": true
    },
    {
      "inputs": [],
      "name": "symbol",
      "outputs": [
        {
          "internalType": "string",
          "name": "",
          "type": "string"
        }
      ],
      "stateMutability": "view",
      "type": "function",
      "constant": true
    },
    {
      "inputs": [
        {
          "internalType": "uint256",
          "name": "index",
          "type": "uint256"
        }
      ],
      "name": "tokenByIndex",
      "outputs": [
        {
          "internalType": "uint256",
          "name": "",
          "type": "uint256"
        }
      ],
      "stateMutability": "view",
      "type": "function",
      "constant": true
    },
    {
      "inputs": [
        {
          "internalType": "address",
          "name": "owner",
          "type": "address"
        },
        {
          "internalType": "uint256",
          "name": "index",
          "type": "uint256"
        }
      ],
      "name": "tokenOfOwnerByIndex",
      "outputs": [
        {
          "internalType": "uint256",
          "name": "",
          "type": "uint256"
        }
      ],
      "stateMutability": "view",
      "type": "function",
      "constant": true
    },
    {
      "inputs": [],
      "name": "totalSupply",
      "outputs": [
        {
          "internalType": "uint256",
          "name": "",
          "type": "uint256"
        }
      ],
      "stateMutability": "view",
      "type": "function",
      "constant": true
    },
    {
      "inputs": [
        {
          "internalType": "address",
          "name": "from",
          "type": "address"
        },
        {
          "internalType": "address",
          "name": "to",
          "type": "address"
        },
        {
          "internalType": "uint256",
          "name": "tokenId",
          "type": "uint256"
        }
      ],
      "name": "transferFrom",
      "outputs": [],
      "stateMutability": "nonpayable",
      "type": "function"
    },
    {
      "inputs": [
        {
          "internalType": "address",
          "name": "newOwner",
          "type": "address"
        }
      ],
      "name": "transferOwnership",
      "outputs": [],
      "stateMutability": "nonpayable",
      "type": "function"
    },
    {
      "inputs": [],
      "name": "withdraw",
      "outputs": [],
      "stateMutability": "nonpayable",
      "type": "function"
    },
    {
      "inputs": [],
      "name": "flipSaleState",
      "outputs": [],
      "stateMutability": "nonpayable",
      "type": "function"
    },
    {
      "inputs": [
        {
          "internalType": "string",
          "name": "baseURI",
          "type": "string"
        }
      ],
      "name": "setBaseURI",
      "outputs": [],
      "stateMutability": "nonpayable",
      "type": "function"
    },
    {
      "inputs": [
        {
          "internalType": "uint256",
          "name": "tokenId",
          "type": "uint256"
        },
        {
          "internalType": "string",
          "name": "_tokenURI",
          "type": "string"
        }
      ],
      "name": "setTokenURI",
      "outputs": [],
      "stateMutability": "nonpayable",
      "type": "function"
    },
    {
      "inputs": [],
      "name": "getGiftItems",
      "outputs": [
        {
          "internalType": "uint256",
          "name": "",
          "type": "uint256"
        }
      ],
      "stateMutability": "view",
      "type": "function",
      "constant": true
    },
    {
      "inputs": [],
      "name": "reserveItems",
      "outputs": [],
      "stateMutability": "nonpayable",
      "type": "function"
    },
    {
      "inputs": [
        {
          "internalType": "address[]",
          "name": "recipients",
          "type": "address[]"
        }
      ],
      "name": "airdropForCommunity",
      "outputs": [],
      "stateMutability": "nonpayable",
      "type": "function"
    },
    {
      "inputs": [
        {
          "internalType": "uint256",
          "name": "numberOfTokens",
          "type": "uint256"
        }
      ],
      "name": "mintTheSporties",
      "outputs": [],
      "stateMutability": "payable",
      "type": "function",
      "payable": true
    },
    {
      "inputs": [
        {
          "internalType": "uint256",
          "name": "tokenId",
          "type": "uint256"
        }
      ],
      "name": "tokenURI",
      "outputs": [
        {
          "internalType": "string",
          "name": "",
          "type": "string"
        }
      ],
      "stateMutability": "view",
      "type": "function",
      "constant": true
    }
  ],
  "bytecode": "0x60806040526000600b556000600c60006101000a81548160ff0219169083151502179055503480156200003157600080fd5b506040518060400160405280600b81526020017f54686553706f72746965730000000000000000000000000000000000000000008152506040518060400160405280600481526020017f5453505400000000000000000000000000000000000000000000000000000000815250620000b66301ffc9a760e01b620001e960201b60201c565b8160069080519060200190620000ce929190620002fa565b508060079080519060200190620000e7929190620002fa565b50620001006380ac58cd60e01b620001e960201b60201c565b62000118635b5e139f60e01b620001e960201b60201c565b6200013063780e9d6360e01b620001e960201b60201c565b5050600062000144620002f260201b60201c565b905080600a60006101000a81548173ffffffffffffffffffffffffffffffffffffffff021916908373ffffffffffffffffffffffffffffffffffffffff1602179055508073ffffffffffffffffffffffffffffffffffffffff16600073ffffffffffffffffffffffffffffffffffffffff167f8be0079c531659141344cd1fd0a4f28419497f9722a3daafe3b4186f6b6457e060405160405180910390a350620003b0565b63ffffffff60e01b817bffffffffffffffffffffffffffffffffffffffffffffffffffffffff1916141562000286576040517f08c379a000000000000000000000000000000000000000000000000000000000815260040180806020018281038252601c8152602001807f4552433136353a20696e76616c696420696e746572666163652069640000000081525060200191505060405180910390fd5b6001600080837bffffffffffffffffffffffffffffffffffffffffffffffffffffffff19167bffffffffffffffffffffffffffffffffffffffffffffffffffffffff1916815260200190815260200160002060006101000a81548160ff02191690831515021790555050565b600033905090565b828054600181600116156101000203166002900490600052602060002090601f0160209004810192826200033257600085556200037e565b82601f106200034d57805160ff19168380011785556200037e565b828001600101855582156200037e579182015b828111156200037d57825182559160200191906001019062000360565b5b5090506200038d919062000391565b5090565b5b80821115620003ac57600081600090555060010162000392565b5090565b61401480620003c06000396000f3fe6080604052600436106102035760003560e01c80634f6ccce71161011857806395d89b41116100a0578063c87b56dd1161006f578063c87b56dd14610d66578063dac6db1c14610e1a578063e985e9c514610e45578063eb8d244414610ecc578063f2fde38b14610ef957610203565b806395d89b4114610b32578063a22cb46514610bc2578063b88d4fde14610c1f578063c4741fdd14610d3157610203565b806370a08231116100e757806370a082311461097b578063715018a6146109e057806380b5006a146109f7578063820fea3e14610abc5780638da5cb5b14610af157610203565b80634f6ccce71461076f57806355f804b3146107be5780636352211e146108865780636c0360eb146108eb57610203565b806318160ddd1161019b5780633051484e1161016a5780633051484e1461065c578063334894e71461069157806334918dfd146106c65780633ccfd60b146106dd57806342842e0e146106f457610203565b806318160ddd1461051c5780631dac7cf21461054757806323b872dd146105725780632f745c59146105ed57610203565b8063095ea7b3116101d7578063095ea7b31461039b5780630ee7487e146103f65780630f258b0514610433578063162094c41461044a57610203565b8062cc59a01461020857806301ffc9a71461023657806306fdde03146102a6578063081812fc14610336575b600080fd5b6102346004803603602081101561021e57600080fd5b8101908080359060200190929190505050610f4a565b005b34801561024257600080fd5b5061028e6004803603602081101561025957600080fd5b8101908080357bffffffffffffffffffffffffffffffffffffffffffffffffffffffff191690602001909291905050506111d9565b60405180821515815260200191505060405180910390f35b3480156102b257600080fd5b506102bb611240565b6040518080602001828103825283818151815260200191508051906020019080838360005b838110156102fb5780820151818401526020810190506102e0565b50505050905090810190601f1680156103285780820380516001836020036101000a031916815260200191505b509250505060405180910390f35b34801561034257600080fd5b5061036f6004803603602081101561035957600080fd5b81019080803590602001909291905050506112e2565b604051808273ffffffffffffffffffffffffffffffffffffffff16815260200191505060405180910390f35b3480156103a757600080fd5b506103f4600480360360408110156103be57600080fd5b81019080803573ffffffffffffffffffffffffffffffffffffffff1690602001909291908035906020019092919050505061137d565b005b34801561040257600080fd5b5061040b6114c1565b60405180826fffffffffffffffffffffffffffffffff16815260200191505060405180910390f35b34801561043f57600080fd5b506104486114c6565b005b34801561045657600080fd5b5061051a6004803603604081101561046d57600080fd5b81019080803590602001909291908035906020019064010000000081111561049457600080fd5b8201836020820111156104a657600080fd5b803590602001918460018302840111640100000000831117156104c857600080fd5b91908080601f016020809104026020016040519081016040528093929190818152602001838380828437600081840152601f19601f820116905080830192505050505050509192919290505050611643565b005b34801561052857600080fd5b50610531611700565b6040518082815260200191505060405180910390f35b34801561055357600080fd5b5061055c611711565b6040518082815260200191505060405180910390f35b34801561057e57600080fd5b506105eb6004803603606081101561059557600080fd5b81019080803573ffffffffffffffffffffffffffffffffffffffff169060200190929190803573ffffffffffffffffffffffffffffffffffffffff1690602001909291908035906020019092919050505061171b565b005b3480156105f957600080fd5b506106466004803603604081101561061057600080fd5b81019080803573ffffffffffffffffffffffffffffffffffffffff16906020019092919080359060200190929190505050611791565b6040518082815260200191505060405180910390f35b34801561066857600080fd5b506106716117ec565b604051808267ffffffffffffffff16815260200191505060405180910390f35b34801561069d57600080fd5b506106a66117f1565b604051808267ffffffffffffffff16815260200191505060405180910390f35b3480156106d257600080fd5b506106db6117f6565b005b3480156106e957600080fd5b506106f26118d1565b005b34801561070057600080fd5b5061076d6004803603606081101561071757600080fd5b81019080803573ffffffffffffffffffffffffffffffffffffffff169060200190929190803573ffffffffffffffffffffffffffffffffffffffff16906020019092919080359060200190929190505050611a24565b005b34801561077b57600080fd5b506107a86004803603602081101561079257600080fd5b8101908080359060200190929190505050611a44565b6040518082815260200191505060405180910390f35b3480156107ca57600080fd5b50610884600480360360208110156107e157600080fd5b81019080803590602001906401000000008111156107fe57600080fd5b82018360208201111561081057600080fd5b8035906020019184600183028401116401000000008311171561083257600080fd5b91908080601f016020809104026020016040519081016040528093929190818152602001838380828437600081840152601f19601f820116905080830192505050505050509192919290505050611a67565b005b34801561089257600080fd5b506108bf600480360360208110156108a957600080fd5b8101908080359060200190929190505050611b22565b604051808273ffffffffffffffffffffffffffffffffffffffff16815260200191505060405180910390f35b3480156108f757600080fd5b50610900611b59565b6040518080602001828103825283818151815260200191508051906020019080838360005b83811015610940578082015181840152602081019050610925565b50505050905090810190601f16801561096d5780820380516001836020036101000a031916815260200191505b509250505060405180910390f35b34801561098757600080fd5b506109ca6004803603602081101561099e57600080fd5b81019080803573ffffffffffffffffffffffffffffffffffffffff169060200190929190505050611bfb565b6040518082815260200191505060405180910390f35b3480156109ec57600080fd5b506109f5611cd0565b005b348015610a0357600080fd5b50610aba60048036036020811015610a1a57600080fd5b8101908080359060200190640100000000811115610a3757600080fd5b820183602082011115610a4957600080fd5b80359060200191846020830284011164010000000083111715610a6b57600080fd5b919080806020026020016040519081016040528093929190818152602001838360200280828437600081840152601f19601f820116905080830192505050505050509192919290505050611e40565b005b348015610ac857600080fd5b50610ad1612056565b604051808267ffffffffffffffff16815260200191505060405180910390f35b348015610afd57600080fd5b50610b0661205c565b604051808273ffffffffffffffffffffffffffffffffffffffff16815260200191505060405180910390f35b348015610b3e57600080fd5b50610b47612086565b6040518080602001828103825283818151815260200191508051906020019080838360005b83811015610b87578082015181840152602081019050610b6c565b50505050905090810190601f168015610bb45780820380516001836020036101000a031916815260200191505b509250505060405180910390f35b348015610bce57600080fd5b50610c1d60048036036040811015610be557600080fd5b81019080803573ffffffffffffffffffffffffffffffffffffffff169060200190929190803515159060200190929190505050612128565b005b348015610c2b57600080fd5b50610d2f60048036036080811015610c4257600080fd5b81019080803573ffffffffffffffffffffffffffffffffffffffff169060200190929190803573ffffffffffffffffffffffffffffffffffffffff1690602001909291908035906020019092919080359060200190640100000000811115610ca957600080fd5b820183602082011115610cbb57600080fd5b80359060200191846001830284011164010000000083111715610cdd57600080fd5b91908080601f016020809104026020016040519081016040528093929190818152602001838380828437600081840152601f19601f8201169050808301925050505050505091929192905050506122de565b005b348015610d3d57600080fd5b50610d46612356565b604051808267ffffffffffffffff16815260200191505060405180910390f35b348015610d7257600080fd5b50610d9f60048036036020811015610d8957600080fd5b8101908080359060200190929190505050612362565b6040518080602001828103825283818151815260200191508051906020019080838360005b83811015610ddf578082015181840152602081019050610dc4565b50505050905090810190601f168015610e0c5780820380516001836020036101000a031916815260200191505b509250505060405180910390f35b348015610e2657600080fd5b50610e2f612504565b6040518082815260200191505060405180910390f35b348015610e5157600080fd5b50610eb460048036036040811015610e6857600080fd5b81019080803573ffffffffffffffffffffffffffffffffffffffff169060200190929190803573ffffffffffffffffffffffffffffffffffffffff16906020019092919050505061250f565b60405180821515815260200191505060405180910390f35b348015610ed857600080fd5b50610ee16125a3565b60405180821515815260200191505060405180910390f35b348015610f0557600080fd5b50610f4860048036036020811015610f1c57600080fd5b81019080803573ffffffffffffffffffffffffffffffffffffffff1690602001909291905050506125b6565b005b600c60009054906101000a900460ff16610fcc576040517f08c379a000000000000000000000000000000000000000000000000000000000815260040180806020018281038252601b8152602001807f53616c65206d7573742062652061637469766520746f206d696e74000000000081525060200191505060405180910390fd5b600a6fffffffffffffffffffffffffffffffff16811115611055576040517f08c379a000000000000000000000000000000000000000000000000000000000815260040180806020018281038252601d8152602001807f43616e2774206d696e74206d6f7265207468616e203130206974656d7300000081525060200191505060405180910390fd5b601b6032611e14010167ffffffffffffffff1661108282611074611700565b6127ab90919063ffffffff16565b11156110f6576040517f08c379a00000000000000000000000000000000000000000000000000000000081526004018080602001828103825260208152602001807f507572636861736520776f756c6420657863656564206d617820737570706c7981525060200191505060405180910390fd5b6111108166b1a2bc2ec5000061283390919063ffffffff16565b3414611184576040517f08c379a000000000000000000000000000000000000000000000000000000000815260040180806020018281038252601f8152602001807f45746865722076616c75652073656e74206973206e6f7420636f72726563740081525060200191505060405180910390fd5b60005b818110156111d5576000611199611700565b9050601b6032611e14010167ffffffffffffffff166111b6611700565b10156111c7576111c633826128b9565b5b508080600101915050611187565b5050565b6000806000837bffffffffffffffffffffffffffffffffffffffffffffffffffffffff19167bffffffffffffffffffffffffffffffffffffffffffffffffffffffff1916815260200190815260200160002060009054906101000a900460ff169050919050565b606060068054600181600116156101000203166002900480601f0160208091040260200160405190810160405280929190818152602001828054600181600116156101000203166002900480156112d85780601f106112ad576101008083540402835291602001916112d8565b820191906000526020600020905b8154815290600101906020018083116112bb57829003601f168201915b5050505050905090565b60006112ed826128d7565b611342576040517f08c379a000000000000000000000000000000000000000000000000000000000815260040180806020018281038252602c815260200180613eb7602c913960400191505060405180910390fd5b6004600083815260200190815260200160002060009054906101000a900473ffffffffffffffffffffffffffffffffffffffff169050919050565b600061138882611b22565b90508073ffffffffffffffffffffffffffffffffffffffff168373ffffffffffffffffffffffffffffffffffffffff16141561140f576040517f08c379a0000000000000000000000000000000000000000000000000000000008152600401808060200182810382526021815260200180613f676021913960400191505060405180910390fd5b8073ffffffffffffffffffffffffffffffffffffffff1661142e6128f4565b73ffffffffffffffffffffffffffffffffffffffff16148061145d575061145c816114576128f4565b61250f565b5b6114b2576040517f08c379a0000000000000000000000000000000000000000000000000000000008152600401808060200182810382526038815260200180613de96038913960400191505060405180910390fd5b6114bc83836128fc565b505050565b600a81565b6114ce6128f4565b73ffffffffffffffffffffffffffffffffffffffff166114ec61205c565b73ffffffffffffffffffffffffffffffffffffffff1614611575576040517f08c379a00000000000000000000000000000000000000000000000000000000081526004018080602001828103825260208152602001807f4f776e61626c653a2063616c6c6572206973206e6f7420746865206f776e657281525060200191505060405180910390fd5b601b6032611e14010167ffffffffffffffff166115ad601b67ffffffffffffffff1661159f611700565b6127ab90919063ffffffff16565b1115611604576040517f08c379a0000000000000000000000000000000000000000000000000000000008152600401808060200182810382526026815260200180613fb96026913960400191505060405180910390fd5b600061160e611700565b905060005b601b67ffffffffffffffff1681101561163f57611632338284016128b9565b8080600101915050611613565b5050565b61164b6128f4565b73ffffffffffffffffffffffffffffffffffffffff1661166961205c565b73ffffffffffffffffffffffffffffffffffffffff16146116f2576040517f08c379a00000000000000000000000000000000000000000000000000000000081526004018080602001828103825260208152602001807f4f776e61626c653a2063616c6c6572206973206e6f7420746865206f776e657281525060200191505060405180910390fd5b6116fc82826129b5565b5050565b600061170c6002612a3f565b905090565b6000600b54905090565b61172c6117266128f4565b82612a54565b611781576040517f08c379a0000000000000000000000000000000000000000000000000000000008152600401808060200182810382526031815260200180613f886031913960400191505060405180910390fd5b61178c838383612b48565b505050565b60006117e482600160008673ffffffffffffffffffffffffffffffffffffffff1673ffffffffffffffffffffffffffffffffffffffff168152602001908152602001600020612d8b90919063ffffffff16565b905092915050565b601b81565b603281565b6117fe6128f4565b73ffffffffffffffffffffffffffffffffffffffff1661181c61205c565b73ffffffffffffffffffffffffffffffffffffffff16146118a5576040517f08c379a00000000000000000000000000000000000000000000000000000000081526004018080602001828103825260208152602001807f4f776e61626c653a2063616c6c6572206973206e6f7420746865206f776e657281525060200191505060405180910390fd5b600c60009054906101000a900460ff1615600c60006101000a81548160ff021916908315150217905550565b6118d96128f4565b73ffffffffffffffffffffffffffffffffffffffff166118f761205c565b73ffffffffffffffffffffffffffffffffffffffff1614611980576040517f08c379a00000000000000000000000000000000000000000000000000000000081526004018080602001828103825260208152602001807f4f776e61626c653a2063616c6c6572206973206e6f7420746865206f776e657281525060200191505060405180910390fd5b60004790503373ffffffffffffffffffffffffffffffffffffffff166108fc829081150290604051600060405180830381858888f193505050501580156119cb573d6000803e3d6000fd5b507f69ca02dd4edd7bf0a4abb9ed3b7af3f14778db5d61921c7dc7cd545266326de23382604051808373ffffffffffffffffffffffffffffffffffffffff1681526020018281526020019250505060405180910390a150565b611a3f838383604051806020016040528060008152506122de565b505050565b600080611a5b836002612da590919063ffffffff16565b50905080915050919050565b611a6f6128f4565b73ffffffffffffffffffffffffffffffffffffffff16611a8d61205c565b73ffffffffffffffffffffffffffffffffffffffff1614611b16576040517f08c379a00000000000000000000000000000000000000000000000000000000081526004018080602001828103825260208152602001807f4f776e61626c653a2063616c6c6572206973206e6f7420746865206f776e657281525060200191505060405180910390fd5b611b1f81612dd1565b50565b6000611b5282604051806060016040528060298152602001613e4b602991396002612deb9092919063ffffffff16565b9050919050565b606060098054600181600116156101000203166002900480601f016020809104026020016040519081016040528092919081815260200182805460018160011615610100020316600290048015611bf15780601f10611bc657610100808354040283529160200191611bf1565b820191906000526020600020905b815481529060010190602001808311611bd457829003601f168201915b5050505050905090565b60008073ffffffffffffffffffffffffffffffffffffffff168273ffffffffffffffffffffffffffffffffffffffff161415611c82576040517f08c379a000000000000000000000000000000000000000000000000000000000815260040180806020018281038252602a815260200180613e21602a913960400191505060405180910390fd5b611cc9600160008473ffffffffffffffffffffffffffffffffffffffff1673ffffffffffffffffffffffffffffffffffffffff168152602001908152602001600020612e0a565b9050919050565b611cd86128f4565b73ffffffffffffffffffffffffffffffffffffffff16611cf661205c565b73ffffffffffffffffffffffffffffffffffffffff1614611d7f576040517f08c379a00000000000000000000000000000000000000000000000000000000081526004018080602001828103825260208152602001807f4f776e61626c653a2063616c6c6572206973206e6f7420746865206f776e657281525060200191505060405180910390fd5b600073ffffffffffffffffffffffffffffffffffffffff16600a60009054906101000a900473ffffffffffffffffffffffffffffffffffffffff1673ffffffffffffffffffffffffffffffffffffffff167f8be0079c531659141344cd1fd0a4f28419497f9722a3daafe3b4186f6b6457e060405160405180910390a36000600a60006101000a81548173ffffffffffffffffffffffffffffffffffffffff021916908373ffffffffffffffffffffffffffffffffffffffff160217905550565b611e486128f4565b73ffffffffffffffffffffffffffffffffffffffff16611e6661205c565b73ffffffffffffffffffffffffffffffffffffffff1614611eef576040517f08c379a00000000000000000000000000000000000000000000000000000000081526004018080602001828103825260208152602001807f4f776e61626c653a2063616c6c6572206973206e6f7420746865206f776e657281525060200191505060405180910390fd5b600160320167ffffffffffffffff16600b5482510110611f77576040517f08c379a000000000000000000000000000000000000000000000000000000000815260040180806020018281038252601d8152602001807f43616e27742067696674206d6f7265207468616e203530206974656d7300000081525060200191505060405180910390fd5b601b6032611e14010167ffffffffffffffff16611fa58251611f97611700565b6127ab90919063ffffffff16565b1115611ffc576040517f08c379a0000000000000000000000000000000000000000000000000000000008152600401808060200182810382526022815260200180613d756022913960400191505060405180910390fd5b6000612006611700565b905060005b82518110156120515761203383828151811061202357fe5b60200260200101518284016128b9565b6001600b60008282540192505081905550808060010191505061200b565b505050565b611e1481565b6000600a60009054906101000a900473ffffffffffffffffffffffffffffffffffffffff16905090565b606060078054600181600116156101000203166002900480601f01602080910402602001604051908101604052809291908181526020018280546001816001161561010002031660029004801561211e5780601f106120f35761010080835404028352916020019161211e565b820191906000526020600020905b81548152906001019060200180831161210157829003601f168201915b5050505050905090565b6121306128f4565b73ffffffffffffffffffffffffffffffffffffffff168273ffffffffffffffffffffffffffffffffffffffff1614156121d1576040517f08c379a00000000000000000000000000000000000000000000000000000000081526004018080602001828103825260198152602001807f4552433732313a20617070726f766520746f2063616c6c65720000000000000081525060200191505060405180910390fd5b80600560006121de6128f4565b73ffffffffffffffffffffffffffffffffffffffff1673ffffffffffffffffffffffffffffffffffffffff16815260200190815260200160002060008473ffffffffffffffffffffffffffffffffffffffff1673ffffffffffffffffffffffffffffffffffffffff16815260200190815260200160002060006101000a81548160ff0219169083151502179055508173ffffffffffffffffffffffffffffffffffffffff1661228b6128f4565b73ffffffffffffffffffffffffffffffffffffffff167f17307eab39ab6107e8899845ad3d59bd9653f200f220920489ca2b5937696c318360405180821515815260200191505060405180910390a35050565b6122ef6122e96128f4565b83612a54565b612344576040517f08c379a0000000000000000000000000000000000000000000000000000000008152600401808060200182810382526031815260200180613f886031913960400191505060405180910390fd5b61235084848484612e1f565b50505050565b601b6032611e14010181565b606061236d826128d7565b6123c2576040517f08c379a000000000000000000000000000000000000000000000000000000000815260040180806020018281038252602f815260200180613f38602f913960400191505060405180910390fd5b60006123cc611b59565b9050600081511415612416576040518060400160405280601581526020017f68747470733a2f2f697066732e696f2f697066732f00000000000000000000008152509150506124ff565b600081511161243457604051806020016040528060008152506124fb565b8061243e84612e91565b6040516020018083805190602001908083835b602083106124745780518252602082019150602081019050602083039250612451565b6001836020036101000a03801982511681845116808217855250505050505090500182805190602001908083835b602083106124c557805182526020820191506020810190506020830392506124a2565b6001836020036101000a038019825116818451168082178552505050505050905001925050506040516020818303038152906040525b9150505b919050565b66b1a2bc2ec5000081565b6000600560008473ffffffffffffffffffffffffffffffffffffffff1673ffffffffffffffffffffffffffffffffffffffff16815260200190815260200160002060008373ffffffffffffffffffffffffffffffffffffffff1673ffffffffffffffffffffffffffffffffffffffff16815260200190815260200160002060009054906101000a900460ff16905092915050565b600c60009054906101000a900460ff1681565b6125be6128f4565b73ffffffffffffffffffffffffffffffffffffffff166125dc61205c565b73ffffffffffffffffffffffffffffffffffffffff1614612665576040517f08c379a00000000000000000000000000000000000000000000000000000000081526004018080602001828103825260208152602001807f4f776e61626c653a2063616c6c6572206973206e6f7420746865206f776e657281525060200191505060405180910390fd5b600073ffffffffffffffffffffffffffffffffffffffff168173ffffffffffffffffffffffffffffffffffffffff1614156126eb576040517f08c379a0000000000000000000000000000000000000000000000000000000008152600401808060200182810382526026815260200180613d2b6026913960400191505060405180910390fd5b8073ffffffffffffffffffffffffffffffffffffffff16600a60009054906101000a900473ffffffffffffffffffffffffffffffffffffffff1673ffffffffffffffffffffffffffffffffffffffff167f8be0079c531659141344cd1fd0a4f28419497f9722a3daafe3b4186f6b6457e060405160405180910390a380600a60006101000a81548173ffffffffffffffffffffffffffffffffffffffff021916908373ffffffffffffffffffffffffffffffffffffffff16021790555050565b600080828401905083811015612829576040517f08c379a000000000000000000000000000000000000000000000000000000000815260040180806020018281038252601b8152602001807f536166654d6174683a206164646974696f6e206f766572666c6f77000000000081525060200191505060405180910390fd5b8091505092915050565b60008083141561284657600090506128b3565b600082840290508284828161285757fe5b04146128ae576040517f08c379a0000000000000000000000000000000000000000000000000000000008152600401808060200182810382526021815260200180613e966021913960400191505060405180910390fd5b809150505b92915050565b6128d3828260405180602001604052806000815250612fd8565b5050565b60006128ed82600261304990919063ffffffff16565b9050919050565b600033905090565b816004600083815260200190815260200160002060006101000a81548173ffffffffffffffffffffffffffffffffffffffff021916908373ffffffffffffffffffffffffffffffffffffffff160217905550808273ffffffffffffffffffffffffffffffffffffffff1661296f83611b22565b73ffffffffffffffffffffffffffffffffffffffff167f8c5be1e5ebec7d5bd14f71427d1e84f3dd0314c0f7b2291e5b200ac8c7c3b92560405160405180910390a45050565b6129be826128d7565b612a13576040517f08c379a000000000000000000000000000000000000000000000000000000000815260040180806020018281038252602c815260200180613ee3602c913960400191505060405180910390fd5b80600860008481526020019081526020016000209080519060200190612a3a929190613c2b565b505050565b6000612a4d82600001613063565b9050919050565b6000612a5f826128d7565b612ab4576040517f08c379a000000000000000000000000000000000000000000000000000000000815260040180806020018281038252602c815260200180613dbd602c913960400191505060405180910390fd5b6000612abf83611b22565b90508073ffffffffffffffffffffffffffffffffffffffff168473ffffffffffffffffffffffffffffffffffffffff161480612b2e57508373ffffffffffffffffffffffffffffffffffffffff16612b16846112e2565b73ffffffffffffffffffffffffffffffffffffffff16145b80612b3f5750612b3e818561250f565b5b91505092915050565b8273ffffffffffffffffffffffffffffffffffffffff16612b6882611b22565b73ffffffffffffffffffffffffffffffffffffffff1614612bd4576040517f08c379a0000000000000000000000000000000000000000000000000000000008152600401808060200182810382526029815260200180613f0f6029913960400191505060405180910390fd5b600073ffffffffffffffffffffffffffffffffffffffff168273ffffffffffffffffffffffffffffffffffffffff161415612c5a576040517f08c379a0000000000000000000000000000000000000000000000000000000008152600401808060200182810382526024815260200180613d516024913960400191505060405180910390fd5b612c65838383613074565b612c706000826128fc565b612cc181600160008673ffffffffffffffffffffffffffffffffffffffff1673ffffffffffffffffffffffffffffffffffffffff16815260200190815260200160002061307990919063ffffffff16565b50612d1381600160008573ffffffffffffffffffffffffffffffffffffffff1673ffffffffffffffffffffffffffffffffffffffff16815260200190815260200160002061309390919063ffffffff16565b50612d2a818360026130ad9092919063ffffffff16565b50808273ffffffffffffffffffffffffffffffffffffffff168473ffffffffffffffffffffffffffffffffffffffff167fddf252ad1be2c89b69c2b068fc378daa952ba7f163c4a11628f55a4df523b3ef60405160405180910390a4505050565b6000612d9a83600001836130e2565b60001c905092915050565b600080600080612db88660000186613165565b915091508160001c8160001c9350935050509250929050565b8060099080519060200190612de7929190613c2b565b5050565b6000612dfe846000018460001b846131fe565b60001c90509392505050565b6000612e18826000016132f4565b9050919050565b612e2a848484612b48565b612e3684848484613305565b612e8b576040517f08c379a0000000000000000000000000000000000000000000000000000000008152600401808060200182810382526032815260200180613cf96032913960400191505060405180910390fd5b50505050565b60606000821415612ed9576040518060400160405280600181526020017f30000000000000000000000000000000000000000000000000000000000000008152509050612fd3565b600082905060005b60008214612f03578080600101915050600a8281612efb57fe5b049150612ee1565b60008167ffffffffffffffff81118015612f1c57600080fd5b506040519080825280601f01601f191660200182016040528015612f4f5781602001600182028036833780820191505090505b50905060006001830390508593505b60008414612fcb57600a8481612f7057fe5b0660300160f81b82828060019003935081518110612f8a57fe5b60200101907effffffffffffffffffffffffffffffffffffffffffffffffffffffffffffff1916908160001a905350600a8481612fc357fe5b049350612f5e565b819450505050505b919050565b612fe2838361351e565b612fef6000848484613305565b613044576040517f08c379a0000000000000000000000000000000000000000000000000000000008152600401808060200182810382526032815260200180613cf96032913960400191505060405180910390fd5b505050565b600061305b836000018360001b613712565b905092915050565b600081600001805490509050919050565b505050565b600061308b836000018360001b613735565b905092915050565b60006130a5836000018360001b61381d565b905092915050565b60006130d9846000018460001b8473ffffffffffffffffffffffffffffffffffffffff1660001b61388d565b90509392505050565b600081836000018054905011613143576040517f08c379a0000000000000000000000000000000000000000000000000000000008152600401808060200182810382526022815260200180613cd76022913960400191505060405180910390fd5b82600001828154811061315257fe5b9060005260206000200154905092915050565b600080828460000180549050116131c7576040517f08c379a0000000000000000000000000000000000000000000000000000000008152600401808060200182810382526022815260200180613e746022913960400191505060405180910390fd5b60008460000184815481106131d857fe5b906000526020600020906002020190508060000154816001015492509250509250929050565b600080846001016000858152602001908152602001600020549050600081141583906132c5576040517f08c379a00000000000000000000000000000000000000000000000000000000081526004018080602001828103825283818151815260200191508051906020019080838360005b8381101561328a57808201518184015260208101905061326f565b50505050905090810190601f1680156132b75780820380516001836020036101000a031916815260200191505b509250505060405180910390fd5b508460000160018203815481106132d857fe5b9060005260206000209060020201600101549150509392505050565b600081600001805490509050919050565b60006133268473ffffffffffffffffffffffffffffffffffffffff16613969565b6133335760019050613516565b600061349d63150b7a0260e01b6133486128f4565b888787604051602401808573ffffffffffffffffffffffffffffffffffffffff1681526020018473ffffffffffffffffffffffffffffffffffffffff16815260200183815260200180602001828103825283818151815260200191508051906020019080838360005b838110156133cc5780820151818401526020810190506133b1565b50505050905090810190601f1680156133f95780820380516001836020036101000a031916815260200191505b5095505050505050604051602081830303815290604052907bffffffffffffffffffffffffffffffffffffffffffffffffffffffff19166020820180517bffffffffffffffffffffffffffffffffffffffffffffffffffffffff8381831617835250505050604051806060016040528060328152602001613cf9603291398773ffffffffffffffffffffffffffffffffffffffff1661397c9092919063ffffffff16565b905060008180602001905160208110156134b657600080fd5b8101908080519060200190929190505050905063150b7a0260e01b7bffffffffffffffffffffffffffffffffffffffffffffffffffffffff1916817bffffffffffffffffffffffffffffffffffffffffffffffffffffffff191614925050505b949350505050565b600073ffffffffffffffffffffffffffffffffffffffff168273ffffffffffffffffffffffffffffffffffffffff1614156135c1576040517f08c379a00000000000000000000000000000000000000000000000000000000081526004018080602001828103825260208152602001807f4552433732313a206d696e7420746f20746865207a65726f206164647265737381525060200191505060405180910390fd5b6135ca816128d7565b1561363d576040517f08c379a000000000000000000000000000000000000000000000000000000000815260040180806020018281038252601c8152602001807f4552433732313a20746f6b656e20616c7265616479206d696e7465640000000081525060200191505060405180910390fd5b61364960008383613074565b61369a81600160008573ffffffffffffffffffffffffffffffffffffffff1673ffffffffffffffffffffffffffffffffffffffff16815260200190815260200160002061309390919063ffffffff16565b506136b1818360026130ad9092919063ffffffff16565b50808273ffffffffffffffffffffffffffffffffffffffff16600073ffffffffffffffffffffffffffffffffffffffff167fddf252ad1be2c89b69c2b068fc378daa952ba7f163c4a11628f55a4df523b3ef60405160405180910390a45050565b600080836001016000848152602001908152602001600020541415905092915050565b60008083600101600084815260200190815260200160002054905060008114613811576000600182039050600060018660000180549050039050600086600001828154811061378057fe5b906000526020600020015490508087600001848154811061379d57fe5b90600052602060002001819055506001830187600101600083815260200190815260200160002081905550866000018054806137d557fe5b60019003818190600052602060002001600090559055866001016000878152602001908152602001600020600090556001945050505050613817565b60009150505b92915050565b60006138298383613994565b613882578260000182908060018154018082558091505060019003906000526020600020016000909190919091505582600001805490508360010160008481526020019081526020016000208190555060019050613887565b600090505b92915050565b600080846001016000858152602001908152602001600020549050600081141561393457846000016040518060400160405280868152602001858152509080600181540180825580915050600190039060005260206000209060020201600090919091909150600082015181600001556020820151816001015550508460000180549050856001016000868152602001908152602001600020819055506001915050613962565b8285600001600183038154811061394757fe5b90600052602060002090600202016001018190555060009150505b9392505050565b600080823b905060008111915050919050565b606061398b84846000856139b7565b90509392505050565b600080836001016000848152602001908152602001600020541415905092915050565b606082471015613a12576040517f08c379a0000000000000000000000000000000000000000000000000000000008152600401808060200182810382526026815260200180613d976026913960400191505060405180910390fd5b613a1b85613969565b613a8d576040517f08c379a000000000000000000000000000000000000000000000000000000000815260040180806020018281038252601d8152602001807f416464726573733a2063616c6c20746f206e6f6e2d636f6e747261637400000081525060200191505060405180910390fd5b6000808673ffffffffffffffffffffffffffffffffffffffff1685876040518082805190602001908083835b60208310613adc5780518252602082019150602081019050602083039250613ab9565b6001836020036101000a03801982511681845116808217855250505050505090500191505060006040518083038185875af1925050503d8060008114613b3e576040519150601f19603f3d011682016040523d82523d6000602084013e613b43565b606091505b5091509150613b53828286613b5f565b92505050949350505050565b60608315613b6f57829050613c24565b600083511115613b825782518084602001fd5b816040517f08c379a00000000000000000000000000000000000000000000000000000000081526004018080602001828103825283818151815260200191508051906020019080838360005b83811015613be9578082015181840152602081019050613bce565b50505050905090810190601f168015613c165780820380516001836020036101000a031916815260200191505b509250505060405180910390fd5b9392505050565b828054600181600116156101000203166002900490600052602060002090601f016020900481019282613c615760008555613ca8565b82601f10613c7a57805160ff1916838001178555613ca8565b82800160010185558215613ca8579182015b82811115613ca7578251825591602001919060010190613c8c565b5b509050613cb59190613cb9565b5090565b5b80821115613cd2576000816000905550600101613cba565b509056fe456e756d657261626c655365743a20696e646578206f7574206f6620626f756e64734552433732313a207472616e7366657220746f206e6f6e20455243373231526563656976657220696d706c656d656e7465724f776e61626c653a206e6577206f776e657220697320746865207a65726f20616464726573734552433732313a207472616e7366657220746f20746865207a65726f206164647265737347696674206974656d7320776f756c6420657863656564206d617820737570706c79416464726573733a20696e73756666696369656e742062616c616e636520666f722063616c6c4552433732313a206f70657261746f7220717565727920666f72206e6f6e6578697374656e7420746f6b656e4552433732313a20617070726f76652063616c6c6572206973206e6f74206f776e6572206e6f7220617070726f76656420666f7220616c6c4552433732313a2062616c616e636520717565727920666f7220746865207a65726f20616464726573734552433732313a206f776e657220717565727920666f72206e6f6e6578697374656e7420746f6b656e456e756d657261626c654d61703a20696e646578206f7574206f6620626f756e6473536166654d6174683a206d756c7469706c69636174696f6e206f766572666c6f774552433732313a20617070726f76656420717565727920666f72206e6f6e6578697374656e7420746f6b656e4552433732314d657461646174613a2055524920736574206f66206e6f6e6578697374656e7420746f6b656e4552433732313a207472616e73666572206f6620746f6b656e2074686174206973206e6f74206f776e4552433732314d657461646174613a2055524920717565727920666f72206e6f6e6578697374656e7420746f6b656e4552433732313a20617070726f76616c20746f2063757272656e74206f776e65724552433732313a207472616e736665722063616c6c6572206973206e6f74206f776e6572206e6f7220617070726f7665645265736572766564206974656d7320776f756c6420657863656564206d617820737570706c79a2646970667358221220def57d124cadfe26d681a88b82519cbf38f11d26fb749fd46397d1bed8ae948664736f6c63430007060033",
  "immutableReferences": {},
  "source": "\n// SPDX-License-Identifier: MIT\n\npragma solidity ^0.7.6;\n\nimport \"openzeppelin-solidity/contracts/token/ERC721/ERC721.sol\";\nimport \"openzeppelin-solidity/contracts/access/Ownable.sol\";\nimport \"openzeppelin-solidity/contracts/math/SafeMath.sol\";\n\ncontract TheSporties is ERC721, Ownable {\n\n    using SafeMath for uint256;\n    \n    event Transfer(address _to, uint _value);\n\n    uint256 public constant itemPrice = 0.05 ether;\n    uint64 public constant RESERVED_ITEMS = 27;\n    uint64 public constant GIFT_ITEMS = 50;\n    uint64 public constant ADOPT_ITEMS = 7700;\n    uint64 public constant TOTAL_ITEMS = ADOPT_ITEMS + GIFT_ITEMS + RESERVED_ITEMS;\n    uint128 public constant MAX_ITEMS_PER_MINT = 10;\n\n    uint256 private giftItems = 0;\n    string private constant IPFS_GUESS_ITEM = \"https://ipfs.io/ipfs/\";\n    bool public saleIsActive = false;\n\n    constructor() ERC721(\"TheSporties\", \"TSPT\") {\n    }\n\n    function withdraw() public onlyOwner {\n        uint balance = address(this).balance;\n        msg.sender.transfer(balance);\n        emit Transfer(msg.sender, balance);\n    }\n    \n    function flipSaleState() public onlyOwner {\n        saleIsActive = !saleIsActive;\n    }\n    \n    function setBaseURI(string memory baseURI) public onlyOwner {\n        _setBaseURI(baseURI);\n    }\n    \n    function setTokenURI(uint256 tokenId, string memory _tokenURI) public onlyOwner {\n        _setTokenURI(tokenId, _tokenURI);\n    }\n\n    function getGiftItems() public view returns( uint256 ){\n        return giftItems;\n    }\n\n\n    function reserveItems() public onlyOwner {        \n        require(totalSupply().add(RESERVED_ITEMS) <= TOTAL_ITEMS, \"Reserved items would exceed max supply\");\n        uint supply = totalSupply();\n        uint i;\n        for (i = 0; i < RESERVED_ITEMS; i++) {\n            _safeMint(msg.sender, supply + i);\n        }\n    }\n\n    function airdropForCommunity( address [] memory recipients ) public onlyOwner {\n        require(recipients.length + giftItems < GIFT_ITEMS + 1, \"Can't gift more than 50 items\");\n        require(totalSupply().add(recipients.length) <= TOTAL_ITEMS, \"Gift items would exceed max supply\");\n        uint256 supply = totalSupply();        \n        for( uint256 i ; i < recipients.length; i++ ){\n            _safeMint(recipients[i], supply + i );\n            giftItems += 1;\n        }\n    }\n\n    function mintTheSporties(uint numberOfTokens) public payable {\n        require(saleIsActive, \"Sale must be active to mint\");\n        require(numberOfTokens <= MAX_ITEMS_PER_MINT, \"Can't mint more than 10 items\");\n        require(totalSupply().add(numberOfTokens) <= TOTAL_ITEMS, \"Purchase would exceed max supply\");\n        require(msg.value == itemPrice.mul(numberOfTokens), \"Ether value sent is not correct\");\n        \n        for(uint i = 0; i < numberOfTokens; i++) {\n            uint mintIndex = totalSupply();\n            if (totalSupply() < TOTAL_ITEMS) {\n                _safeMint(msg.sender, mintIndex);\n            }\n        }\n    }\n\n    function tokenURI(uint256 tokenId) public view virtual override returns (string memory) {\n        require(_exists(tokenId), \"ERC721Metadata: URI query for nonexistent token\");\n\n        string memory baseURI = baseURI();\n        if( bytes(baseURI).length == 0 ){\n            return IPFS_GUESS_ITEM;\n        }\n        return bytes(baseURI).length > 0 ? string(abi.encodePacked(baseURI, Strings.toString(tokenId))) : \"\";\n    }\n}",
  "sourcePath": "/Users/gianmarco/dev/projects/crypto/TheSporties/contracts/TheSporties.sol",
  "compiler": {
    "name": "solc",
    "version": "0.7.6+commit.7338295f.Emscripten.clang"
  },
  "schemaVersion": "3.4.3",
  "updatedAt": "2021-08-31T23:24:47.767Z",
  "networkType": "ethereum",
  "devdoc": {
    "kind": "dev",
    "methods": {
      "approve(address,uint256)": {
        "details": "See {IERC721-approve}."
      },
      "balanceOf(address)": {
        "details": "See {IERC721-balanceOf}."
      },
      "baseURI()": {
        "details": "Returns the base URI set via {_setBaseURI}. This will be automatically added as a prefix in {tokenURI} to each token's URI, or to the token ID if no specific URI is set for that token ID."
      },
      "getApproved(uint256)": {
        "details": "See {IERC721-getApproved}."
      },
      "isApprovedForAll(address,address)": {
        "details": "See {IERC721-isApprovedForAll}."
      },
      "name()": {
        "details": "See {IERC721Metadata-name}."
      },
      "owner()": {
        "details": "Returns the address of the current owner."
      },
      "ownerOf(uint256)": {
        "details": "See {IERC721-ownerOf}."
      },
      "renounceOwnership()": {
        "details": "Leaves the contract without owner. It will not be possible to call `onlyOwner` functions anymore. Can only be called by the current owner. NOTE: Renouncing ownership will leave the contract without an owner, thereby removing any functionality that is only available to the owner."
      },
      "safeTransferFrom(address,address,uint256)": {
        "details": "See {IERC721-safeTransferFrom}."
      },
      "safeTransferFrom(address,address,uint256,bytes)": {
        "details": "See {IERC721-safeTransferFrom}."
      },
      "setApprovalForAll(address,bool)": {
        "details": "See {IERC721-setApprovalForAll}."
      },
      "supportsInterface(bytes4)": {
        "details": "See {IERC165-supportsInterface}. Time complexity O(1), guaranteed to always use less than 30 000 gas."
      },
      "symbol()": {
        "details": "See {IERC721Metadata-symbol}."
      },
      "tokenByIndex(uint256)": {
        "details": "See {IERC721Enumerable-tokenByIndex}."
      },
      "tokenOfOwnerByIndex(address,uint256)": {
        "details": "See {IERC721Enumerable-tokenOfOwnerByIndex}."
      },
      "tokenURI(uint256)": {
        "details": "See {IERC721Metadata-tokenURI}."
      },
      "totalSupply()": {
        "details": "See {IERC721Enumerable-totalSupply}."
      },
      "transferFrom(address,address,uint256)": {
        "details": "See {IERC721-transferFrom}."
      },
      "transferOwnership(address)": {
        "details": "Transfers ownership of the contract to a new account (`newOwner`). Can only be called by the current owner."
      }
    },
    "version": 1
  },
  "userdoc": {
    "kind": "user",
    "methods": {},
    "version": 1
  }
}